{
  "contractName": "CoinDispencer",
  "abi": [
    {
      "anonymous": false,
      "inputs": [
        {
          "indexed": true,
          "internalType": "address",
          "name": "owner",
          "type": "address"
        },
        {
          "indexed": true,
          "internalType": "address",
          "name": "spender",
          "type": "address"
        },
        {
          "indexed": false,
          "internalType": "uint256",
          "name": "value",
          "type": "uint256"
        }
      ],
      "name": "Approval",
      "type": "event"
    },
    {
      "anonymous": false,
      "inputs": [
        {
          "indexed": true,
          "internalType": "address",
          "name": "from",
          "type": "address"
        },
        {
          "indexed": true,
          "internalType": "address",
          "name": "to",
          "type": "address"
        },
        {
          "indexed": false,
          "internalType": "uint256",
          "name": "value",
          "type": "uint256"
        }
      ],
      "name": "Transfer",
      "type": "event"
    },
    {
      "inputs": [
        {
          "internalType": "address",
          "name": "owner",
          "type": "address"
        },
        {
          "internalType": "address",
          "name": "spender",
          "type": "address"
        }
      ],
      "name": "allowance",
      "outputs": [
        {
          "internalType": "uint256",
          "name": "",
          "type": "uint256"
        }
      ],
      "stateMutability": "view",
      "type": "function",
      "constant": true
    },
    {
      "inputs": [
        {
          "internalType": "address",
          "name": "spender",
          "type": "address"
        },
        {
          "internalType": "uint256",
          "name": "amount",
          "type": "uint256"
        }
      ],
      "name": "approve",
      "outputs": [
        {
          "internalType": "bool",
          "name": "",
          "type": "bool"
        }
      ],
      "stateMutability": "nonpayable",
      "type": "function"
    },
    {
      "inputs": [
        {
          "internalType": "address",
          "name": "account",
          "type": "address"
        }
      ],
      "name": "balanceOf",
      "outputs": [
        {
          "internalType": "uint256",
          "name": "",
          "type": "uint256"
        }
      ],
      "stateMutability": "view",
      "type": "function",
      "constant": true
    },
    {
      "inputs": [],
      "name": "decimals",
      "outputs": [
        {
          "internalType": "uint8",
          "name": "",
          "type": "uint8"
        }
      ],
      "stateMutability": "view",
      "type": "function",
      "constant": true
    },
    {
      "inputs": [
        {
          "internalType": "address",
          "name": "spender",
          "type": "address"
        },
        {
          "internalType": "uint256",
          "name": "subtractedValue",
          "type": "uint256"
        }
      ],
      "name": "decreaseAllowance",
      "outputs": [
        {
          "internalType": "bool",
          "name": "",
          "type": "bool"
        }
      ],
      "stateMutability": "nonpayable",
      "type": "function"
    },
    {
      "inputs": [
        {
          "internalType": "uint256",
          "name": "_team",
          "type": "uint256"
        }
      ],
      "name": "getOwner",
      "outputs": [
        {
          "internalType": "address",
          "name": "",
          "type": "address"
        }
      ],
      "stateMutability": "view",
      "type": "function",
      "constant": true
    },
    {
      "inputs": [
        {
          "internalType": "uint256",
          "name": "_team",
          "type": "uint256"
        }
      ],
      "name": "getPrice",
      "outputs": [
        {
          "internalType": "uint256",
          "name": "",
          "type": "uint256"
        }
      ],
      "stateMutability": "view",
      "type": "function",
      "constant": true
    },
    {
      "inputs": [
        {
          "internalType": "uint256",
          "name": "_team",
          "type": "uint256"
        }
      ],
      "name": "getPtcp",
      "outputs": [
        {
          "internalType": "address[]",
          "name": "",
          "type": "address[]"
        }
      ],
      "stateMutability": "view",
      "type": "function",
      "constant": true
    },
    {
      "inputs": [
        {
          "internalType": "uint256",
          "name": "_team",
          "type": "uint256"
        }
      ],
      "name": "getStake",
      "outputs": [
        {
          "internalType": "uint256[]",
          "name": "",
          "type": "uint256[]"
        }
      ],
      "stateMutability": "view",
      "type": "function",
      "constant": true
    },
    {
      "inputs": [],
      "name": "getTradingCounter",
      "outputs": [
        {
          "internalType": "uint256",
          "name": "",
          "type": "uint256"
        }
      ],
      "stateMutability": "view",
      "type": "function",
      "constant": true
    },
    {
      "inputs": [
        {
          "internalType": "address",
          "name": "spender",
          "type": "address"
        },
        {
          "internalType": "uint256",
          "name": "addedValue",
          "type": "uint256"
        }
      ],
      "name": "increaseAllowance",
      "outputs": [
        {
          "internalType": "bool",
          "name": "",
          "type": "bool"
        }
      ],
      "stateMutability": "nonpayable",
      "type": "function"
    },
    {
      "inputs": [],
      "name": "name",
      "outputs": [
        {
          "internalType": "string",
          "name": "",
          "type": "string"
        }
      ],
      "stateMutability": "view",
      "type": "function",
      "constant": true
    },
    {
      "inputs": [
        {
          "internalType": "uint256",
          "name": "_team",
          "type": "uint256"
        },
        {
          "internalType": "address[]",
          "name": "_ptcp",
          "type": "address[]"
        },
        {
          "internalType": "uint256[]",
          "name": "_stake",
          "type": "uint256[]"
        },
        {
          "internalType": "uint256",
          "name": "_price",
          "type": "uint256"
        }
      ],
      "name": "putBlockAndPurchase",
      "outputs": [],
      "stateMutability": "nonpayable",
      "type": "function"
    },
    {
      "inputs": [],
      "name": "symbol",
      "outputs": [
        {
          "internalType": "string",
          "name": "",
          "type": "string"
        }
      ],
      "stateMutability": "view",
      "type": "function",
      "constant": true
    },
    {
      "inputs": [],
      "name": "totalSupply",
      "outputs": [
        {
          "internalType": "uint256",
          "name": "",
          "type": "uint256"
        }
      ],
      "stateMutability": "view",
      "type": "function",
      "constant": true
    },
    {
      "inputs": [
        {
          "internalType": "address",
          "name": "recipient",
          "type": "address"
        },
        {
          "internalType": "uint256",
          "name": "amount",
          "type": "uint256"
        }
      ],
      "name": "transfer",
      "outputs": [
        {
          "internalType": "bool",
          "name": "",
          "type": "bool"
        }
      ],
      "stateMutability": "nonpayable",
      "type": "function"
    },
    {
      "inputs": [
        {
          "internalType": "address",
          "name": "sender",
          "type": "address"
        },
        {
          "internalType": "address",
          "name": "recipient",
          "type": "address"
        },
        {
          "internalType": "uint256",
          "name": "amount",
          "type": "uint256"
        }
      ],
      "name": "transferFrom",
      "outputs": [
        {
          "internalType": "bool",
          "name": "",
          "type": "bool"
        }
      ],
      "stateMutability": "nonpayable",
      "type": "function"
    },
    {
      "inputs": [
        {
          "internalType": "uint256",
          "name": "_discharge",
          "type": "uint256"
        },
        {
          "internalType": "uint256",
          "name": "_toknAmount",
          "type": "uint256"
        }
      ],
      "name": "sellTokn",
      "outputs": [],
      "stateMutability": "nonpayable",
      "type": "function"
    },
    {
      "inputs": [
        {
          "internalType": "uint256",
          "name": "_requireRED",
          "type": "uint256"
        },
        {
          "internalType": "uint256",
          "name": "_calcedPirec",
          "type": "uint256"
        }
      ],
      "name": "changePoint",
      "outputs": [],
      "stateMutability": "payable",
      "type": "function",
      "payable": true
    },
    {
      "inputs": [],
      "name": "ca_ethBal",
      "outputs": [
        {
          "internalType": "uint256",
          "name": "",
          "type": "uint256"
        }
      ],
      "stateMutability": "view",
      "type": "function",
      "constant": true
    },
    {
      "inputs": [],
      "name": "connection",
      "outputs": [
        {
          "internalType": "string",
          "name": "",
          "type": "string"
        }
      ],
      "stateMutability": "view",
      "type": "function",
      "constant": true
    }
  ],
  "bytecode": "0x608060405260006006556040518060400160405280601581526020017f636f6e6e656374696f6e2d72696768745f6964656100000000000000000000008152506007908051906020019062000056929190620002a9565b503480156200006457600080fd5b506040518060400160405280600681526020017f54687265616400000000000000000000000000000000000000000000000000008152506040518060400160405280600481526020017f54485265000000000000000000000000000000000000000000000000000000008152508160039080519060200190620000e9929190620002a9565b50806004908051906020019062000102929190620002a9565b505050620001213069021e19e0c9bab24000006200012760201b60201c565b62000504565b600073ffffffffffffffffffffffffffffffffffffffff168273ffffffffffffffffffffffffffffffffffffffff160362000199576040517f08c379a00000000000000000000000000000000000000000000000000000000081526004016200019090620003ba565b60405180910390fd5b620001ad600083836200029f60201b60201c565b8060026000828254620001c1919062000415565b92505081905550806000808473ffffffffffffffffffffffffffffffffffffffff1673ffffffffffffffffffffffffffffffffffffffff168152602001908152602001600020600082825462000218919062000415565b925050819055508173ffffffffffffffffffffffffffffffffffffffff16600073ffffffffffffffffffffffffffffffffffffffff167fddf252ad1be2c89b69c2b068fc378daa952ba7f163c4a11628f55a4df523b3ef836040516200027f919062000483565b60405180910390a36200029b60008383620002a460201b60201c565b5050565b505050565b505050565b828054620002b790620004cf565b90600052602060002090601f016020900481019282620002db576000855562000327565b82601f10620002f657805160ff191683800117855562000327565b8280016001018555821562000327579182015b828111156200032657825182559160200191906001019062000309565b5b5090506200033691906200033a565b5090565b5b80821115620003555760008160009055506001016200033b565b5090565b600082825260208201905092915050565b7f45524332303a206d696e7420746f20746865207a65726f206164647265737300600082015250565b6000620003a2601f8362000359565b9150620003af826200036a565b602082019050919050565b60006020820190508181036000830152620003d58162000393565b9050919050565b6000819050919050565b7f4e487b7100000000000000000000000000000000000000000000000000000000600052601160045260246000fd5b60006200042282620003dc565b91506200042f83620003dc565b9250827fffffffffffffffffffffffffffffffffffffffffffffffffffffffffffffffff03821115620004675762000466620003e6565b5b828201905092915050565b6200047d81620003dc565b82525050565b60006020820190506200049a600083018462000472565b92915050565b7f4e487b7100000000000000000000000000000000000000000000000000000000600052602260045260246000fd5b60006002820490506001821680620004e857607f821691505b602082108103620004fe57620004fd620004a0565b5b50919050565b6121ef80620005146000396000f3fe60806040526004361061012a5760003560e01c8063a457c2d7116100ab578063cca2d9661161006f578063cca2d96614610440578063ce325bf81461046b578063d00d443d146104a8578063dd62ed3e146104c4578063e757223014610501578063fd19016c1461053e5761012a565b8063a457c2d714610337578063a9059cbb14610374578063bdca4229146103b1578063c41a360a146103da578063cc068d33146104175761012a565b806339509351116100f2578063395093511461022a57806350ab647e1461026757806366acce1a146102a457806370a08231146102cf57806395d89b411461030c5761012a565b806306fdde031461012f578063095ea7b31461015a57806318160ddd1461019757806323b872dd146101c2578063313ce567146101ff575b600080fd5b34801561013b57600080fd5b50610144610569565b604051610151919061140e565b60405180910390f35b34801561016657600080fd5b50610181600480360381019061017c91906114d8565b6105fb565b60405161018e9190611533565b60405180910390f35b3480156101a357600080fd5b506101ac610619565b6040516101b9919061155d565b60405180910390f35b3480156101ce57600080fd5b506101e960048036038101906101e49190611578565b610623565b6040516101f69190611533565b60405180910390f35b34801561020b57600080fd5b5061021461063b565b60405161022191906115e7565b60405180910390f35b34801561023657600080fd5b50610251600480360381019061024c91906114d8565b610644565b60405161025e9190611533565b60405180910390f35b34801561027357600080fd5b5061028e60048036038101906102899190611602565b6106f0565b60405161029b91906116ed565b60405180910390f35b3480156102b057600080fd5b506102b9610794565b6040516102c6919061155d565b60405180910390f35b3480156102db57600080fd5b506102f660048036038101906102f1919061170f565b61079e565b604051610303919061155d565b60405180910390f35b34801561031857600080fd5b506103216107e6565b60405161032e919061140e565b60405180910390f35b34801561034357600080fd5b5061035e600480360381019061035991906114d8565b610878565b60405161036b9190611533565b60405180910390f35b34801561038057600080fd5b5061039b600480360381019061039691906114d8565b610963565b6040516103a89190611533565b60405180910390f35b3480156103bd57600080fd5b506103d860048036038101906103d39190611947565b610981565b005b3480156103e657600080fd5b5061040160048036038101906103fc9190611602565b610b44565b60405161040e91906119f5565b60405180910390f35b34801561042357600080fd5b5061043e60048036038101906104399190611a10565b610b84565b005b34801561044c57600080fd5b50610455610c57565b604051610462919061155d565b60405180910390f35b34801561047757600080fd5b50610492600480360381019061048d9190611602565b610c5f565b60405161049f9190611b0e565b60405180910390f35b6104c260048036038101906104bd9190611a10565b610ccd565b005b3480156104d057600080fd5b506104eb60048036038101906104e69190611b30565b610d38565b6040516104f8919061155d565b60405180910390f35b34801561050d57600080fd5b5061052860048036038101906105239190611602565b610dbf565b604051610535919061155d565b60405180910390f35b34801561054a57600080fd5b50610553610ddf565b604051610560919061140e565b60405180910390f35b60606003805461057890611b9f565b80601f01602080910402602001604051908101604052809291908181526020018280546105a490611b9f565b80156105f15780601f106105c6576101008083540402835291602001916105f1565b820191906000526020600020905b8154815290600101906020018083116105d457829003601f168201915b5050505050905090565b600061060f610608610e71565b8484610e79565b6001905092915050565b6000600254905090565b6000610630848484611042565b600190509392505050565b60006012905090565b60006106e6610651610e71565b84846001600061065f610e71565b73ffffffffffffffffffffffffffffffffffffffff1673ffffffffffffffffffffffffffffffffffffffff16815260200190815260200160002060008873ffffffffffffffffffffffffffffffffffffffff1673ffffffffffffffffffffffffffffffffffffffff168152602001908152602001600020546106e19190611bff565b610e79565b6001905092915050565b60606005600083815260200190815260200160002060010180548060200260200160405190810160405280929190818152602001828054801561078857602002820191906000526020600020905b8160009054906101000a900473ffffffffffffffffffffffffffffffffffffffff1673ffffffffffffffffffffffffffffffffffffffff168152602001906001019080831161073e575b50505050509050919050565b6000600654905090565b60008060008373ffffffffffffffffffffffffffffffffffffffff1673ffffffffffffffffffffffffffffffffffffffff168152602001908152602001600020549050919050565b6060600480546107f590611b9f565b80601f016020809104026020016040519081016040528092919081815260200182805461082190611b9f565b801561086e5780601f106108435761010080835404028352916020019161086e565b820191906000526020600020905b81548152906001019060200180831161085157829003601f168201915b5050505050905090565b60008060016000610887610e71565b73ffffffffffffffffffffffffffffffffffffffff1673ffffffffffffffffffffffffffffffffffffffff16815260200190815260200160002060008573ffffffffffffffffffffffffffffffffffffffff1673ffffffffffffffffffffffffffffffffffffffff16815260200190815260200160002054905082811015610944576040517f08c379a000000000000000000000000000000000000000000000000000000000815260040161093b90611cc7565b60405180910390fd5b61095861094f610e71565b85858403610e79565b600191505092915050565b6000610977610970610e71565b8484611042565b6001905092915050565b60005b83518160ff1614610a8e5760056000868152602001908152602001600020600101848260ff16815181106109bb576109ba611ce7565b5b60200260200101519080600181540180825580915050600190039060005260206000200160009091909190916101000a81548173ffffffffffffffffffffffffffffffffffffffff021916908373ffffffffffffffffffffffffffffffffffffffff16021790555060056000868152602001908152602001600020600301838260ff1681518110610a4f57610a4e611ce7565b5b6020026020010151908060018154018082558091505060019003906000526020600020016000909190919091505580610a8790611d16565b9050610984565b670de0b6b3a764000082610aa29190611d3f565b6005600087815260200190815260200160002060040181905550610add33306005600089815260200190815260200160002060040154610623565b50610ae885856112c1565b336005600087815260200190815260200160002060020160006101000a81548173ffffffffffffffffffffffffffffffffffffffff021916908373ffffffffffffffffffffffffffffffffffffffff1602179055505050505050565b60006005600083815260200190815260200160002060020160009054906101000a900473ffffffffffffffffffffffffffffffffffffffff169050919050565b6000655af3107a400083610b989190611d3f565b90506000655af3107a400083610bae9190611d3f565b905060008411610bf3576040517f08c379a0000000000000000000000000000000000000000000000000000000008152600401610bea90611e0b565b60405180910390fd5b610bfd3330610d38565b50610c09333083610623565b503373ffffffffffffffffffffffffffffffffffffffff166108fc839081150290604051600060405180830381858888f19350505050158015610c50573d6000803e3d6000fd5b5050505050565b600047905090565b606060056000838152602001908152602001600020600301805480602002602001604051908101604052809291908181526020018280548015610cc157602002820191906000526020600020905b815481526020019060010190808311610cad575b50505050509050919050565b80803414610d10576040517f08c379a0000000000000000000000000000000000000000000000000000000008152600401610d0790611e77565b60405180910390fd5b6000655af3107a400084610d249190611d3f565b9050610d31303383610623565b5050505050565b6000600160008473ffffffffffffffffffffffffffffffffffffffff1673ffffffffffffffffffffffffffffffffffffffff16815260200190815260200160002060008373ffffffffffffffffffffffffffffffffffffffff1673ffffffffffffffffffffffffffffffffffffffff16815260200190815260200160002054905092915050565b600060056000838152602001908152602001600020600401549050919050565b606060078054610dee90611b9f565b80601f0160208091040260200160405190810160405280929190818152602001828054610e1a90611b9f565b8015610e675780601f10610e3c57610100808354040283529160200191610e67565b820191906000526020600020905b815481529060010190602001808311610e4a57829003601f168201915b5050505050905090565b600033905090565b600073ffffffffffffffffffffffffffffffffffffffff168373ffffffffffffffffffffffffffffffffffffffff1603610ee8576040517f08c379a0000000000000000000000000000000000000000000000000000000008152600401610edf90611f09565b60405180910390fd5b600073ffffffffffffffffffffffffffffffffffffffff168273ffffffffffffffffffffffffffffffffffffffff1603610f57576040517f08c379a0000000000000000000000000000000000000000000000000000000008152600401610f4e90611f9b565b60405180910390fd5b80600160008573ffffffffffffffffffffffffffffffffffffffff1673ffffffffffffffffffffffffffffffffffffffff16815260200190815260200160002060008473ffffffffffffffffffffffffffffffffffffffff1673ffffffffffffffffffffffffffffffffffffffff168152602001908152602001600020819055508173ffffffffffffffffffffffffffffffffffffffff168373ffffffffffffffffffffffffffffffffffffffff167f8c5be1e5ebec7d5bd14f71427d1e84f3dd0314c0f7b2291e5b200ac8c7c3b92583604051611035919061155d565b60405180910390a3505050565b600073ffffffffffffffffffffffffffffffffffffffff168373ffffffffffffffffffffffffffffffffffffffff16036110b1576040517f08c379a00000000000000000000000000000000000000000000000000000000081526004016110a89061202d565b60405180910390fd5b600073ffffffffffffffffffffffffffffffffffffffff168273ffffffffffffffffffffffffffffffffffffffff1603611120576040517f08c379a0000000000000000000000000000000000000000000000000000000008152600401611117906120bf565b60405180910390fd5b61112b83838361136b565b60008060008573ffffffffffffffffffffffffffffffffffffffff1673ffffffffffffffffffffffffffffffffffffffff168152602001908152602001600020549050818110156111b1576040517f08c379a00000000000000000000000000000000000000000000000000000000081526004016111a890612151565b60405180910390fd5b8181036000808673ffffffffffffffffffffffffffffffffffffffff1673ffffffffffffffffffffffffffffffffffffffff16815260200190815260200160002081905550816000808573ffffffffffffffffffffffffffffffffffffffff1673ffffffffffffffffffffffffffffffffffffffff16815260200190815260200160002060008282546112449190611bff565b925050819055508273ffffffffffffffffffffffffffffffffffffffff168473ffffffffffffffffffffffffffffffffffffffff167fddf252ad1be2c89b69c2b068fc378daa952ba7f163c4a11628f55a4df523b3ef846040516112a8919061155d565b60405180910390a36112bb848484611370565b50505050565b60005b81518160ff16146113505761133e30838360ff16815181106112e9576112e8611ce7565b5b6020026020010151600560008781526020019081526020016000206003018460ff168154811061131c5761131b611ce7565b5b906000526020600020015466038d7ea4c680006113399190611d3f565b610623565b508061134990611d16565b90506112c4565b60066000815461135f90612171565b91905081905550505050565b505050565b505050565b600081519050919050565b600082825260208201905092915050565b60005b838110156113af578082015181840152602081019050611394565b838111156113be576000848401525b50505050565b6000601f19601f8301169050919050565b60006113e082611375565b6113ea8185611380565b93506113fa818560208601611391565b611403816113c4565b840191505092915050565b6000602082019050818103600083015261142881846113d5565b905092915050565b6000604051905090565b600080fd5b600080fd5b600073ffffffffffffffffffffffffffffffffffffffff82169050919050565b600061146f82611444565b9050919050565b61147f81611464565b811461148a57600080fd5b50565b60008135905061149c81611476565b92915050565b6000819050919050565b6114b5816114a2565b81146114c057600080fd5b50565b6000813590506114d2816114ac565b92915050565b600080604083850312156114ef576114ee61143a565b5b60006114fd8582860161148d565b925050602061150e858286016114c3565b9150509250929050565b60008115159050919050565b61152d81611518565b82525050565b60006020820190506115486000830184611524565b92915050565b611557816114a2565b82525050565b6000602082019050611572600083018461154e565b92915050565b6000806000606084860312156115915761159061143a565b5b600061159f8682870161148d565b93505060206115b08682870161148d565b92505060406115c1868287016114c3565b9150509250925092565b600060ff82169050919050565b6115e1816115cb565b82525050565b60006020820190506115fc60008301846115d8565b92915050565b6000602082840312156116185761161761143a565b5b6000611626848285016114c3565b91505092915050565b600081519050919050565b600082825260208201905092915050565b6000819050602082019050919050565b61166481611464565b82525050565b6000611676838361165b565b60208301905092915050565b6000602082019050919050565b600061169a8261162f565b6116a4818561163a565b93506116af8361164b565b8060005b838110156116e05781516116c7888261166a565b97506116d283611682565b9250506001810190506116b3565b5085935050505092915050565b60006020820190508181036000830152611707818461168f565b905092915050565b6000602082840312156117255761172461143a565b5b60006117338482850161148d565b91505092915050565b600080fd5b7f4e487b7100000000000000000000000000000000000000000000000000000000600052604160045260246000fd5b611779826113c4565b810181811067ffffffffffffffff8211171561179857611797611741565b5b80604052505050565b60006117ab611430565b90506117b78282611770565b919050565b600067ffffffffffffffff8211156117d7576117d6611741565b5b602082029050602081019050919050565b600080fd5b60006118006117fb846117bc565b6117a1565b90508083825260208201905060208402830185811115611823576118226117e8565b5b835b8181101561184c5780611838888261148d565b845260208401935050602081019050611825565b5050509392505050565b600082601f83011261186b5761186a61173c565b5b813561187b8482602086016117ed565b91505092915050565b600067ffffffffffffffff82111561189f5761189e611741565b5b602082029050602081019050919050565b60006118c36118be84611884565b6117a1565b905080838252602082019050602084028301858111156118e6576118e56117e8565b5b835b8181101561190f57806118fb88826114c3565b8452602084019350506020810190506118e8565b5050509392505050565b600082601f83011261192e5761192d61173c565b5b813561193e8482602086016118b0565b91505092915050565b600080600080608085870312156119615761196061143a565b5b600061196f878288016114c3565b945050602085013567ffffffffffffffff8111156119905761198f61143f565b5b61199c87828801611856565b935050604085013567ffffffffffffffff8111156119bd576119bc61143f565b5b6119c987828801611919565b92505060606119da878288016114c3565b91505092959194509250565b6119ef81611464565b82525050565b6000602082019050611a0a60008301846119e6565b92915050565b60008060408385031215611a2757611a2661143a565b5b6000611a35858286016114c3565b9250506020611a46858286016114c3565b9150509250929050565b600081519050919050565b600082825260208201905092915050565b6000819050602082019050919050565b611a85816114a2565b82525050565b6000611a978383611a7c565b60208301905092915050565b6000602082019050919050565b6000611abb82611a50565b611ac58185611a5b565b9350611ad083611a6c565b8060005b83811015611b01578151611ae88882611a8b565b9750611af383611aa3565b925050600181019050611ad4565b5085935050505092915050565b60006020820190508181036000830152611b288184611ab0565b905092915050565b60008060408385031215611b4757611b4661143a565b5b6000611b558582860161148d565b9250506020611b668582860161148d565b9150509250929050565b7f4e487b7100000000000000000000000000000000000000000000000000000000600052602260045260246000fd5b60006002820490506001821680611bb757607f821691505b602082108103611bca57611bc9611b70565b5b50919050565b7f4e487b7100000000000000000000000000000000000000000000000000000000600052601160045260246000fd5b6000611c0a826114a2565b9150611c15836114a2565b9250827fffffffffffffffffffffffffffffffffffffffffffffffffffffffffffffffff03821115611c4a57611c49611bd0565b5b828201905092915050565b7f45524332303a2064656372656173656420616c6c6f77616e63652062656c6f7760008201527f207a65726f000000000000000000000000000000000000000000000000000000602082015250565b6000611cb1602583611380565b9150611cbc82611c55565b604082019050919050565b60006020820190508181036000830152611ce081611ca4565b9050919050565b7f4e487b7100000000000000000000000000000000000000000000000000000000600052603260045260246000fd5b6000611d21826115cb565b915060ff8203611d3457611d33611bd0565b5b600182019050919050565b6000611d4a826114a2565b9150611d55836114a2565b9250817fffffffffffffffffffffffffffffffffffffffffffffffffffffffffffffffff0483118215151615611d8e57611d8d611bd0565b5b828202905092915050565b7f596f75206e65656420746f2073656c6c206174206c6561737420736f6d65207460008201527f6f6b656e73000000000000000000000000000000000000000000000000000000602082015250565b6000611df5602583611380565b9150611e0082611d99565b604082019050919050565b60006020820190508181036000830152611e2481611de8565b9050919050565b7f2152455645525420313031000000000000000000000000000000000000000000600082015250565b6000611e61600b83611380565b9150611e6c82611e2b565b602082019050919050565b60006020820190508181036000830152611e9081611e54565b9050919050565b7f45524332303a20617070726f76652066726f6d20746865207a65726f2061646460008201527f7265737300000000000000000000000000000000000000000000000000000000602082015250565b6000611ef3602483611380565b9150611efe82611e97565b604082019050919050565b60006020820190508181036000830152611f2281611ee6565b9050919050565b7f45524332303a20617070726f766520746f20746865207a65726f20616464726560008201527f7373000000000000000000000000000000000000000000000000000000000000602082015250565b6000611f85602283611380565b9150611f9082611f29565b604082019050919050565b60006020820190508181036000830152611fb481611f78565b9050919050565b7f45524332303a207472616e736665722066726f6d20746865207a65726f20616460008201527f6472657373000000000000000000000000000000000000000000000000000000602082015250565b6000612017602583611380565b915061202282611fbb565b604082019050919050565b600060208201905081810360008301526120468161200a565b9050919050565b7f45524332303a207472616e7366657220746f20746865207a65726f206164647260008201527f6573730000000000000000000000000000000000000000000000000000000000602082015250565b60006120a9602383611380565b91506120b48261204d565b604082019050919050565b600060208201905081810360008301526120d88161209c565b9050919050565b7f45524332303a207472616e7366657220616d6f756e742065786365656473206260008201527f616c616e63650000000000000000000000000000000000000000000000000000602082015250565b600061213b602683611380565b9150612146826120df565b604082019050919050565b6000602082019050818103600083015261216a8161212e565b9050919050565b600061217c826114a2565b91507fffffffffffffffffffffffffffffffffffffffffffffffffffffffffffffffff82036121ae576121ad611bd0565b5b60018201905091905056fea2646970667358221220837f81f753be498bbf9d4b5e7cf72c887f1863206d0d9a126e3cd30db0ca91a164736f6c634300080d0033",
  "immutableReferences": {},
  "source": "// SPDX-License-Identifier: MIT\npragma solidity ^0.8.3;\n\nimport './SeverStore.sol';\n\ncontract CoinDispencer is SeverStore{\n    struct userCharge{\n        uint price;\n        uint8 point;\n    }\n    string connecTecs = \"connection-right_idea\";\n    \n    mapping(address => userCharge) purchase;\n\n    modifier fee(uint _fee) {\n        if (msg.value != _fee) {\n            revert(\"!REVERT 101\");\n        } else {\n            _;\n        }\n    }\n\n    function sellTokn(uint _discharge, uint _toknAmount) external{\n        uint discharge = _discharge * 10 ** 14;\n        uint toknAmount = _toknAmount * 10 ** 14;\n        require(_discharge > 0, \"You need to sell at least some tokens\");\n        allowance(msg.sender, address(this));\n        transferFrom(msg.sender, address(this), toknAmount);\n        payable(msg.sender).transfer(discharge);\n    }\n    \n    function changePoint(uint256 _requireRED, uint _calcedPirec) external\n    payable\n    fee(_calcedPirec){\n        uint requireRED = _requireRED * 10 ** 14;\n        transferFrom(address(this), msg.sender, requireRED);\n        // purchase[msg.sender].point = _requirePoint;\n        // purchase[msg.sender].price = _calcedPirec;\n    }\n    function ca_ethBal() public view returns(uint){\n        return address(this).balance;\n    }\n    function connection() public view returns(string memory){\n        return connecTecs;\n    }\n}",
  "sourcePath": "/home/giparang/threadweb/pogre/trufflebox/contracts/CoinDispencer.sol",
  "compiler": {
    "name": "solc",
    "version": "0.8.13+commit.abaa5c0e.Emscripten.clang"
  },
  "schemaVersion": "3.4.6",
  "updatedAt": "2022-04-11T02:45:12.681Z",
  "networkType": "ethereum",
  "devdoc": {
    "kind": "dev",
    "methods": {
      "allowance(address,address)": {
        "details": "See {IERC20-allowance}."
      },
      "approve(address,uint256)": {
        "details": "See {IERC20-approve}. Requirements: - `spender` cannot be the zero address."
      },
      "balanceOf(address)": {
        "details": "See {IERC20-balanceOf}."
      },
      "decimals()": {
        "details": "Returns the number of decimals used to get its user representation. For example, if `decimals` equals `2`, a balance of `505` tokens should be displayed to a user as `5.05` (`505 / 10 ** 2`). Tokens usually opt for a value of 18, imitating the relationship between Ether and Wei. This is the value {ERC20} uses, unless this function is overridden; NOTE: This information is only used for _display_ purposes: it in no way affects any of the arithmetic of the contract, including {IERC20-balanceOf} and {IERC20-transfer}."
      },
      "decreaseAllowance(address,uint256)": {
        "details": "Atomically decreases the allowance granted to `spender` by the caller. This is an alternative to {approve} that can be used as a mitigation for problems described in {IERC20-approve}. Emits an {Approval} event indicating the updated allowance. Requirements: - `spender` cannot be the zero address. - `spender` must have allowance for the caller of at least `subtractedValue`."
      },
      "increaseAllowance(address,uint256)": {
        "details": "Atomically increases the allowance granted to `spender` by the caller. This is an alternative to {approve} that can be used as a mitigation for problems described in {IERC20-approve}. Emits an {Approval} event indicating the updated allowance. Requirements: - `spender` cannot be the zero address."
      },
      "name()": {
        "details": "Returns the name of the token."
      },
      "symbol()": {
        "details": "Returns the symbol of the token, usually a shorter version of the name."
      },
      "totalSupply()": {
        "details": "See {IERC20-totalSupply}."
      },
      "transfer(address,uint256)": {
        "details": "See {IERC20-transfer}. Requirements: - `recipient` cannot be the zero address. - the caller must have a balance of at least `amount`."
      },
      "transferFrom(address,address,uint256)": {
        "details": "See {IERC20-transferFrom}. Emits an {Approval} event indicating the updated allowance. This is not required by the EIP. See the note at the beginning of {ERC20}. Requirements: - `sender` and `recipient` cannot be the zero address. - `sender` must have a balance of at least `amount`. - the caller must have allowance for ``sender``'s tokens of at least `amount`."
      }
    },
    "version": 1
  },
  "userdoc": {
    "kind": "user",
    "methods": {},
    "version": 1
  }
}