{
  "contractName": "CoinDispencer",
  "abi": [
    {
      "anonymous": false,
      "inputs": [
        {
          "indexed": true,
          "internalType": "address",
          "name": "owner",
          "type": "address"
        },
        {
          "indexed": true,
          "internalType": "address",
          "name": "spender",
          "type": "address"
        },
        {
          "indexed": false,
          "internalType": "uint256",
          "name": "value",
          "type": "uint256"
        }
      ],
      "name": "Approval",
      "type": "event"
    },
    {
      "anonymous": false,
      "inputs": [
        {
          "indexed": true,
          "internalType": "address",
          "name": "from",
          "type": "address"
        },
        {
          "indexed": true,
          "internalType": "address",
          "name": "to",
          "type": "address"
        },
        {
          "indexed": false,
          "internalType": "uint256",
          "name": "value",
          "type": "uint256"
        }
      ],
      "name": "Transfer",
      "type": "event"
    },
    {
      "inputs": [
        {
          "internalType": "address",
          "name": "owner",
          "type": "address"
        },
        {
          "internalType": "address",
          "name": "spender",
          "type": "address"
        }
      ],
      "name": "allowance",
      "outputs": [
        {
          "internalType": "uint256",
          "name": "",
          "type": "uint256"
        }
      ],
      "stateMutability": "view",
      "type": "function"
    },
    {
      "inputs": [
        {
          "internalType": "address",
          "name": "spender",
          "type": "address"
        },
        {
          "internalType": "uint256",
          "name": "amount",
          "type": "uint256"
        }
      ],
      "name": "approve",
      "outputs": [
        {
          "internalType": "bool",
          "name": "",
          "type": "bool"
        }
      ],
      "stateMutability": "nonpayable",
      "type": "function"
    },
    {
      "inputs": [
        {
          "internalType": "address",
          "name": "account",
          "type": "address"
        }
      ],
      "name": "balanceOf",
      "outputs": [
        {
          "internalType": "uint256",
          "name": "",
          "type": "uint256"
        }
      ],
      "stateMutability": "view",
      "type": "function"
    },
    {
      "inputs": [],
      "name": "decimals",
      "outputs": [
        {
          "internalType": "uint8",
          "name": "",
          "type": "uint8"
        }
      ],
      "stateMutability": "view",
      "type": "function"
    },
    {
      "inputs": [
        {
          "internalType": "address",
          "name": "spender",
          "type": "address"
        },
        {
          "internalType": "uint256",
          "name": "subtractedValue",
          "type": "uint256"
        }
      ],
      "name": "decreaseAllowance",
      "outputs": [
        {
          "internalType": "bool",
          "name": "",
          "type": "bool"
        }
      ],
      "stateMutability": "nonpayable",
      "type": "function"
    },
    {
      "inputs": [
        {
          "internalType": "uint256",
          "name": "_team",
          "type": "uint256"
        }
      ],
      "name": "getOwner",
      "outputs": [
        {
          "internalType": "address",
          "name": "",
          "type": "address"
        }
      ],
      "stateMutability": "view",
      "type": "function"
    },
    {
      "inputs": [
        {
          "internalType": "uint256",
          "name": "_team",
          "type": "uint256"
        }
      ],
      "name": "getPrice",
      "outputs": [
        {
          "internalType": "uint256",
          "name": "",
          "type": "uint256"
        }
      ],
      "stateMutability": "view",
      "type": "function"
    },
    {
      "inputs": [
        {
          "internalType": "uint256",
          "name": "_team",
          "type": "uint256"
        }
      ],
      "name": "getPtcp",
      "outputs": [
        {
          "internalType": "address[]",
          "name": "",
          "type": "address[]"
        }
      ],
      "stateMutability": "view",
      "type": "function"
    },
    {
      "inputs": [
        {
          "internalType": "uint256",
          "name": "_team",
          "type": "uint256"
        }
      ],
      "name": "getStake",
      "outputs": [
        {
          "internalType": "uint256[]",
          "name": "",
          "type": "uint256[]"
        }
      ],
      "stateMutability": "view",
      "type": "function"
    },
    {
      "inputs": [
        {
          "internalType": "address",
          "name": "spender",
          "type": "address"
        },
        {
          "internalType": "uint256",
          "name": "addedValue",
          "type": "uint256"
        }
      ],
      "name": "increaseAllowance",
      "outputs": [
        {
          "internalType": "bool",
          "name": "",
          "type": "bool"
        }
      ],
      "stateMutability": "nonpayable",
      "type": "function"
    },
    {
      "inputs": [],
      "name": "name",
      "outputs": [
        {
          "internalType": "string",
          "name": "",
          "type": "string"
        }
      ],
      "stateMutability": "view",
      "type": "function"
    },
    {
      "inputs": [
        {
          "internalType": "uint256",
          "name": "_team",
          "type": "uint256"
        },
        {
          "internalType": "address",
          "name": "_buyer",
          "type": "address"
        },
        {
          "internalType": "address[]",
          "name": "_ptcp",
          "type": "address[]"
        }
      ],
      "name": "purchase",
      "outputs": [],
      "stateMutability": "nonpayable",
      "type": "function"
    },
    {
      "inputs": [
        {
          "internalType": "uint256",
          "name": "_team",
          "type": "uint256"
        },
        {
          "internalType": "address[]",
          "name": "_ptcp",
          "type": "address[]"
        },
        {
          "internalType": "uint256[]",
          "name": "_stake",
          "type": "uint256[]"
        },
        {
          "internalType": "uint256",
          "name": "_price",
          "type": "uint256"
        }
      ],
      "name": "putBlock",
      "outputs": [],
      "stateMutability": "nonpayable",
      "type": "function"
    },
    {
      "inputs": [
        {
          "internalType": "uint256",
          "name": "_value",
          "type": "uint256"
        },
        {
          "internalType": "address",
          "name": "_editor",
          "type": "address"
        }
      ],
      "name": "retrieve",
      "outputs": [],
      "stateMutability": "nonpayable",
      "type": "function"
    },
    {
      "inputs": [],
      "name": "symbol",
      "outputs": [
        {
          "internalType": "string",
          "name": "",
          "type": "string"
        }
      ],
      "stateMutability": "view",
      "type": "function"
    },
    {
      "inputs": [],
      "name": "totalSupply",
      "outputs": [
        {
          "internalType": "uint256",
          "name": "",
          "type": "uint256"
        }
      ],
      "stateMutability": "view",
      "type": "function"
    },
    {
      "inputs": [
        {
          "internalType": "address",
          "name": "recipient",
          "type": "address"
        },
        {
          "internalType": "uint256",
          "name": "amount",
          "type": "uint256"
        }
      ],
      "name": "transfer",
      "outputs": [
        {
          "internalType": "bool",
          "name": "",
          "type": "bool"
        }
      ],
      "stateMutability": "nonpayable",
      "type": "function"
    },
    {
      "inputs": [
        {
          "internalType": "address",
          "name": "sender",
          "type": "address"
        },
        {
          "internalType": "address",
          "name": "recipient",
          "type": "address"
        },
        {
          "internalType": "uint256",
          "name": "amount",
          "type": "uint256"
        }
      ],
      "name": "transferFrom",
      "outputs": [
        {
          "internalType": "bool",
          "name": "",
          "type": "bool"
        }
      ],
      "stateMutability": "nonpayable",
      "type": "function"
    },
    {
      "inputs": [
        {
          "internalType": "uint256",
          "name": "_toknAmount",
          "type": "uint256"
        }
      ],
      "name": "sellTokn",
      "outputs": [],
      "stateMutability": "nonpayable",
      "type": "function"
    },
    {
      "inputs": [
        {
          "internalType": "uint8",
          "name": "_requirePoint",
          "type": "uint8"
        },
        {
          "internalType": "uint256",
          "name": "_calcedPirec",
          "type": "uint256"
        }
      ],
      "name": "changePoint",
      "outputs": [],
      "stateMutability": "payable",
      "type": "function"
    },
    {
      "inputs": [],
      "name": "tempView",
      "outputs": [
        {
          "internalType": "uint256",
          "name": "",
          "type": "uint256"
        }
      ],
      "stateMutability": "view",
      "type": "function"
    },
    {
      "inputs": [],
      "name": "userPoint",
      "outputs": [
        {
          "internalType": "uint256",
          "name": "",
          "type": "uint256"
        }
      ],
      "stateMutability": "view",
      "type": "function"
    },
    {
      "inputs": [],
      "name": "connection",
      "outputs": [
        {
          "internalType": "string",
          "name": "",
          "type": "string"
        }
      ],
      "stateMutability": "view",
      "type": "function"
    }
  ],
  "bytecode": "0x608060405260006006556040518060400160405280600881526020017f6661726577656c6c00000000000000000000000000000000000000000000000081525060079080519060200190620000569291906200010b565b503480156200006457600080fd5b506040518060400160405280600681526020017f54687265616400000000000000000000000000000000000000000000000000008152506040518060400160405280600481526020017f54485265000000000000000000000000000000000000000000000000000000008152508160039080519060200190620000e99291906200010b565b508060049080519060200190620001029291906200010b565b5050506200021f565b8280546200011990620001ea565b90600052602060002090601f0160209004810192826200013d576000855562000189565b82601f106200015857805160ff191683800117855562000189565b8280016001018555821562000189579182015b82811115620001885782518255916020019190600101906200016b565b5b5090506200019891906200019c565b5090565b5b80821115620001b75760008160009055506001016200019d565b5090565b7f4e487b7100000000000000000000000000000000000000000000000000000000600052602260045260246000fd5b600060028204905060018216806200020357607f821691505b602082108103620002195762000218620001bb565b5b50919050565b612558806200022f6000396000f3fe6080604052600436106101405760003560e01c806370a08231116100b6578063ce325bf81161006f578063ce325bf81461049b578063d20f7f26146104d8578063d34b7a2114610501578063dd62ed3e1461052c578063e757223014610569578063fd19016c146105a657610140565b806370a082311461035157806395d89b411461038e578063a457c2d7146103b9578063a9059cbb146103f6578063b364fa0014610433578063c41a360a1461045e57610140565b806323b872dd1161010857806323b872dd1461021d57806325e765601461025a578063313ce5671461028357806339509351146102ae57806344133b3c146102eb57806350ab647e1461031457610140565b806306fdde0314610145578063077b7c6d14610170578063095ea7b31461018c578063115e85f2146101c957806318160ddd146101f2575b600080fd5b34801561015157600080fd5b5061015a6105d1565b6040516101679190611678565b60405180910390f35b61018a6004803603810190610185919061171d565b610663565b005b34801561019857600080fd5b506101b360048036038101906101ae91906117bb565b61074d565b6040516101c09190611816565b60405180910390f35b3480156101d557600080fd5b506101f060048036038101906101eb9190611979565b61076b565b005b3480156101fe57600080fd5b506102076107cf565b60405161021491906119f7565b60405180910390f35b34801561022957600080fd5b50610244600480360381019061023f9190611a12565b6107d9565b6040516102519190611816565b60405180910390f35b34801561026657600080fd5b50610281600480360381019061027c9190611a65565b6107f1565b005b34801561028f57600080fd5b50610298610895565b6040516102a59190611aa1565b60405180910390f35b3480156102ba57600080fd5b506102d560048036038101906102d091906117bb565b61089e565b6040516102e29190611816565b60405180910390f35b3480156102f757600080fd5b50610312600480360381019061030d9190611b7f565b61094a565b005b34801561032057600080fd5b5061033b60048036038101906103369190611a65565b610a79565b6040516103489190611cdc565b60405180910390f35b34801561035d57600080fd5b5061037860048036038101906103739190611cfe565b610b1d565b60405161038591906119f7565b60405180910390f35b34801561039a57600080fd5b506103a3610b65565b6040516103b09190611678565b60405180910390f35b3480156103c557600080fd5b506103e060048036038101906103db91906117bb565b610bf7565b6040516103ed9190611816565b60405180910390f35b34801561040257600080fd5b5061041d600480360381019061041891906117bb565b610ce2565b60405161042a9190611816565b60405180910390f35b34801561043f57600080fd5b50610448610d00565b60405161045591906119f7565b60405180910390f35b34801561046a57600080fd5b5061048560048036038101906104809190611a65565b610d5a565b6040516104929190611d3a565b60405180910390f35b3480156104a757600080fd5b506104c260048036038101906104bd9190611a65565b610d9a565b6040516104cf9190611e13565b60405180910390f35b3480156104e457600080fd5b506104ff60048036038101906104fa9190611e35565b610e08565b005b34801561050d57600080fd5b50610516610e53565b60405161052391906119f7565b60405180910390f35b34801561053857600080fd5b50610553600480360381019061054e9190611e75565b610e5b565b60405161056091906119f7565b60405180910390f35b34801561057557600080fd5b50610590600480360381019061058b9190611a65565b610ee2565b60405161059d91906119f7565b60405180910390f35b3480156105b257600080fd5b506105bb610f02565b6040516105c89190611678565b60405180910390f35b6060600380546105e090611ee4565b80601f016020809104026020016040519081016040528092919081815260200182805461060c90611ee4565b80156106595780601f1061062e57610100808354040283529160200191610659565b820191906000526020600020905b81548152906001019060200180831161063c57829003601f168201915b5050505050905090565b808034146106a6576040517f08c379a000000000000000000000000000000000000000000000000000000000815260040161069d90611f61565b60405180910390fd5b82600860003373ffffffffffffffffffffffffffffffffffffffff1673ffffffffffffffffffffffffffffffffffffffff16815260200190815260200160002060010160006101000a81548160ff021916908360ff16021790555081600860003373ffffffffffffffffffffffffffffffffffffffff1673ffffffffffffffffffffffffffffffffffffffff16815260200190815260200160002060000181905550505050565b600061076161075a610f94565b8484610f9c565b6001905092915050565b816005600085815260200190815260200160002060020160006101000a81548173ffffffffffffffffffffffffffffffffffffffff021916908373ffffffffffffffffffffffffffffffffffffffff1602179055506107ca8382611165565b505050565b6000600254905090565b60006107e68484846111f7565b600190509392505050565b60008111610834576040517f08c379a000000000000000000000000000000000000000000000000000000000815260040161082b90611ff3565b60405180910390fd5b61083e3330610e5b565b5061084a3330836107d9565b503373ffffffffffffffffffffffffffffffffffffffff166108fc829081150290604051600060405180830381858888f19350505050158015610891573d6000803e3d6000fd5b5050565b60006012905090565b60006109406108ab610f94565b8484600160006108b9610f94565b73ffffffffffffffffffffffffffffffffffffffff1673ffffffffffffffffffffffffffffffffffffffff16815260200190815260200160002060008873ffffffffffffffffffffffffffffffffffffffff1673ffffffffffffffffffffffffffffffffffffffff1681526020019081526020016000205461093b9190612042565b610f9c565b6001905092915050565b60005b83518160ff1614610a575760056000868152602001908152602001600020600101848260ff168151811061098457610983612098565b5b60200260200101519080600181540180825580915050600190039060005260206000200160009091909190916101000a81548173ffffffffffffffffffffffffffffffffffffffff021916908373ffffffffffffffffffffffffffffffffffffffff16021790555060056000868152602001908152602001600020600301838260ff1681518110610a1857610a17612098565b5b6020026020010151908060018154018082558091505060019003906000526020600020016000909190919091505580610a50906120c7565b905061094d565b8160056000878152602001908152602001600020600401819055505050505050565b606060056000838152602001908152602001600020600101805480602002602001604051908101604052809291908181526020018280548015610b1157602002820191906000526020600020905b8160009054906101000a900473ffffffffffffffffffffffffffffffffffffffff1673ffffffffffffffffffffffffffffffffffffffff1681526020019060010190808311610ac7575b50505050509050919050565b60008060008373ffffffffffffffffffffffffffffffffffffffff1673ffffffffffffffffffffffffffffffffffffffff168152602001908152602001600020549050919050565b606060048054610b7490611ee4565b80601f0160208091040260200160405190810160405280929190818152602001828054610ba090611ee4565b8015610bed5780601f10610bc257610100808354040283529160200191610bed565b820191906000526020600020905b815481529060010190602001808311610bd057829003601f168201915b5050505050905090565b60008060016000610c06610f94565b73ffffffffffffffffffffffffffffffffffffffff1673ffffffffffffffffffffffffffffffffffffffff16815260200190815260200160002060008573ffffffffffffffffffffffffffffffffffffffff1673ffffffffffffffffffffffffffffffffffffffff16815260200190815260200160002054905082811015610cc3576040517f08c379a0000000000000000000000000000000000000000000000000000000008152600401610cba90612162565b60405180910390fd5b610cd7610cce610f94565b85858403610f9c565b600191505092915050565b6000610cf6610cef610f94565b84846111f7565b6001905092915050565b6000600860003373ffffffffffffffffffffffffffffffffffffffff1673ffffffffffffffffffffffffffffffffffffffff16815260200190815260200160002060010160009054906101000a900460ff1660ff16905090565b60006005600083815260200190815260200160002060020160009054906101000a900473ffffffffffffffffffffffffffffffffffffffff169050919050565b606060056000838152602001908152602001600020600301805480602002602001604051908101604052809291908181526020018280548015610dfc57602002820191906000526020600020905b815481526020019060010190808311610de8575b50505050509050919050565b610e24818366038d7ea4c68000610e1f9190612182565b611476565b8166038d7ea4c68000610e379190612182565b60066000828254610e489190612042565b925050819055505050565b600047905090565b6000600160008473ffffffffffffffffffffffffffffffffffffffff1673ffffffffffffffffffffffffffffffffffffffff16815260200190815260200160002060008373ffffffffffffffffffffffffffffffffffffffff1673ffffffffffffffffffffffffffffffffffffffff16815260200190815260200160002054905092915050565b600060056000838152602001908152602001600020600401549050919050565b606060078054610f1190611ee4565b80601f0160208091040260200160405190810160405280929190818152602001828054610f3d90611ee4565b8015610f8a5780601f10610f5f57610100808354040283529160200191610f8a565b820191906000526020600020905b815481529060010190602001808311610f6d57829003601f168201915b5050505050905090565b600033905090565b600073ffffffffffffffffffffffffffffffffffffffff168373ffffffffffffffffffffffffffffffffffffffff160361100b576040517f08c379a00000000000000000000000000000000000000000000000000000000081526004016110029061224e565b60405180910390fd5b600073ffffffffffffffffffffffffffffffffffffffff168273ffffffffffffffffffffffffffffffffffffffff160361107a576040517f08c379a0000000000000000000000000000000000000000000000000000000008152600401611071906122e0565b60405180910390fd5b80600160008573ffffffffffffffffffffffffffffffffffffffff1673ffffffffffffffffffffffffffffffffffffffff16815260200190815260200160002060008473ffffffffffffffffffffffffffffffffffffffff1673ffffffffffffffffffffffffffffffffffffffff168152602001908152602001600020819055508173ffffffffffffffffffffffffffffffffffffffff168373ffffffffffffffffffffffffffffffffffffffff167f8c5be1e5ebec7d5bd14f71427d1e84f3dd0314c0f7b2291e5b200ac8c7c3b9258360405161115891906119f7565b60405180910390a3505050565b60005b81518160ff16146111f2576111e1828260ff168151811061118c5761118b612098565b5b6020026020010151600560008681526020019081526020016000206003018360ff16815481106111bf576111be612098565b5b906000526020600020015466038d7ea4c680006111dc9190612182565b611476565b806111eb906120c7565b9050611168565b505050565b600073ffffffffffffffffffffffffffffffffffffffff168373ffffffffffffffffffffffffffffffffffffffff1603611266576040517f08c379a000000000000000000000000000000000000000000000000000000000815260040161125d90612372565b60405180910390fd5b600073ffffffffffffffffffffffffffffffffffffffff168273ffffffffffffffffffffffffffffffffffffffff16036112d5576040517f08c379a00000000000000000000000000000000000000000000000000000000081526004016112cc90612404565b60405180910390fd5b6112e08383836115d5565b60008060008573ffffffffffffffffffffffffffffffffffffffff1673ffffffffffffffffffffffffffffffffffffffff16815260200190815260200160002054905081811015611366576040517f08c379a000000000000000000000000000000000000000000000000000000000815260040161135d90612496565b60405180910390fd5b8181036000808673ffffffffffffffffffffffffffffffffffffffff1673ffffffffffffffffffffffffffffffffffffffff16815260200190815260200160002081905550816000808573ffffffffffffffffffffffffffffffffffffffff1673ffffffffffffffffffffffffffffffffffffffff16815260200190815260200160002060008282546113f99190612042565b925050819055508273ffffffffffffffffffffffffffffffffffffffff168473ffffffffffffffffffffffffffffffffffffffff167fddf252ad1be2c89b69c2b068fc378daa952ba7f163c4a11628f55a4df523b3ef8460405161145d91906119f7565b60405180910390a36114708484846115da565b50505050565b600073ffffffffffffffffffffffffffffffffffffffff168273ffffffffffffffffffffffffffffffffffffffff16036114e5576040517f08c379a00000000000000000000000000000000000000000000000000000000081526004016114dc90612502565b60405180910390fd5b6114f1600083836115d5565b80600260008282546115039190612042565b92505081905550806000808473ffffffffffffffffffffffffffffffffffffffff1673ffffffffffffffffffffffffffffffffffffffff16815260200190815260200160002060008282546115589190612042565b925050819055508173ffffffffffffffffffffffffffffffffffffffff16600073ffffffffffffffffffffffffffffffffffffffff167fddf252ad1be2c89b69c2b068fc378daa952ba7f163c4a11628f55a4df523b3ef836040516115bd91906119f7565b60405180910390a36115d1600083836115da565b5050565b505050565b505050565b600081519050919050565b600082825260208201905092915050565b60005b838110156116195780820151818401526020810190506115fe565b83811115611628576000848401525b50505050565b6000601f19601f8301169050919050565b600061164a826115df565b61165481856115ea565b93506116648185602086016115fb565b61166d8161162e565b840191505092915050565b60006020820190508181036000830152611692818461163f565b905092915050565b6000604051905090565b600080fd5b600080fd5b600060ff82169050919050565b6116c4816116ae565b81146116cf57600080fd5b50565b6000813590506116e1816116bb565b92915050565b6000819050919050565b6116fa816116e7565b811461170557600080fd5b50565b600081359050611717816116f1565b92915050565b60008060408385031215611734576117336116a4565b5b6000611742858286016116d2565b925050602061175385828601611708565b9150509250929050565b600073ffffffffffffffffffffffffffffffffffffffff82169050919050565b60006117888261175d565b9050919050565b6117988161177d565b81146117a357600080fd5b50565b6000813590506117b58161178f565b92915050565b600080604083850312156117d2576117d16116a4565b5b60006117e0858286016117a6565b92505060206117f185828601611708565b9150509250929050565b60008115159050919050565b611810816117fb565b82525050565b600060208201905061182b6000830184611807565b92915050565b600080fd5b7f4e487b7100000000000000000000000000000000000000000000000000000000600052604160045260246000fd5b61186e8261162e565b810181811067ffffffffffffffff8211171561188d5761188c611836565b5b80604052505050565b60006118a061169a565b90506118ac8282611865565b919050565b600067ffffffffffffffff8211156118cc576118cb611836565b5b602082029050602081019050919050565b600080fd5b60006118f56118f0846118b1565b611896565b90508083825260208201905060208402830185811115611918576119176118dd565b5b835b81811015611941578061192d88826117a6565b84526020840193505060208101905061191a565b5050509392505050565b600082601f8301126119605761195f611831565b5b81356119708482602086016118e2565b91505092915050565b600080600060608486031215611992576119916116a4565b5b60006119a086828701611708565b93505060206119b1868287016117a6565b925050604084013567ffffffffffffffff8111156119d2576119d16116a9565b5b6119de8682870161194b565b9150509250925092565b6119f1816116e7565b82525050565b6000602082019050611a0c60008301846119e8565b92915050565b600080600060608486031215611a2b57611a2a6116a4565b5b6000611a39868287016117a6565b9350506020611a4a868287016117a6565b9250506040611a5b86828701611708565b9150509250925092565b600060208284031215611a7b57611a7a6116a4565b5b6000611a8984828501611708565b91505092915050565b611a9b816116ae565b82525050565b6000602082019050611ab66000830184611a92565b92915050565b600067ffffffffffffffff821115611ad757611ad6611836565b5b602082029050602081019050919050565b6000611afb611af684611abc565b611896565b90508083825260208201905060208402830185811115611b1e57611b1d6118dd565b5b835b81811015611b475780611b338882611708565b845260208401935050602081019050611b20565b5050509392505050565b600082601f830112611b6657611b65611831565b5b8135611b76848260208601611ae8565b91505092915050565b60008060008060808587031215611b9957611b986116a4565b5b6000611ba787828801611708565b945050602085013567ffffffffffffffff811115611bc857611bc76116a9565b5b611bd48782880161194b565b935050604085013567ffffffffffffffff811115611bf557611bf46116a9565b5b611c0187828801611b51565b9250506060611c1287828801611708565b91505092959194509250565b600081519050919050565b600082825260208201905092915050565b6000819050602082019050919050565b611c538161177d565b82525050565b6000611c658383611c4a565b60208301905092915050565b6000602082019050919050565b6000611c8982611c1e565b611c938185611c29565b9350611c9e83611c3a565b8060005b83811015611ccf578151611cb68882611c59565b9750611cc183611c71565b925050600181019050611ca2565b5085935050505092915050565b60006020820190508181036000830152611cf68184611c7e565b905092915050565b600060208284031215611d1457611d136116a4565b5b6000611d22848285016117a6565b91505092915050565b611d348161177d565b82525050565b6000602082019050611d4f6000830184611d2b565b92915050565b600081519050919050565b600082825260208201905092915050565b6000819050602082019050919050565b611d8a816116e7565b82525050565b6000611d9c8383611d81565b60208301905092915050565b6000602082019050919050565b6000611dc082611d55565b611dca8185611d60565b9350611dd583611d71565b8060005b83811015611e06578151611ded8882611d90565b9750611df883611da8565b925050600181019050611dd9565b5085935050505092915050565b60006020820190508181036000830152611e2d8184611db5565b905092915050565b60008060408385031215611e4c57611e4b6116a4565b5b6000611e5a85828601611708565b9250506020611e6b858286016117a6565b9150509250929050565b60008060408385031215611e8c57611e8b6116a4565b5b6000611e9a858286016117a6565b9250506020611eab858286016117a6565b9150509250929050565b7f4e487b7100000000000000000000000000000000000000000000000000000000600052602260045260246000fd5b60006002820490506001821680611efc57607f821691505b602082108103611f0f57611f0e611eb5565b5b50919050565b7f2152455645525420313031000000000000000000000000000000000000000000600082015250565b6000611f4b600b836115ea565b9150611f5682611f15565b602082019050919050565b60006020820190508181036000830152611f7a81611f3e565b9050919050565b7f596f75206e65656420746f2073656c6c206174206c6561737420736f6d65207460008201527f6f6b656e73000000000000000000000000000000000000000000000000000000602082015250565b6000611fdd6025836115ea565b9150611fe882611f81565b604082019050919050565b6000602082019050818103600083015261200c81611fd0565b9050919050565b7f4e487b7100000000000000000000000000000000000000000000000000000000600052601160045260246000fd5b600061204d826116e7565b9150612058836116e7565b9250827fffffffffffffffffffffffffffffffffffffffffffffffffffffffffffffffff0382111561208d5761208c612013565b5b828201905092915050565b7f4e487b7100000000000000000000000000000000000000000000000000000000600052603260045260246000fd5b60006120d2826116ae565b915060ff82036120e5576120e4612013565b5b600182019050919050565b7f45524332303a2064656372656173656420616c6c6f77616e63652062656c6f7760008201527f207a65726f000000000000000000000000000000000000000000000000000000602082015250565b600061214c6025836115ea565b9150612157826120f0565b604082019050919050565b6000602082019050818103600083015261217b8161213f565b9050919050565b600061218d826116e7565b9150612198836116e7565b9250817fffffffffffffffffffffffffffffffffffffffffffffffffffffffffffffffff04831182151516156121d1576121d0612013565b5b828202905092915050565b7f45524332303a20617070726f76652066726f6d20746865207a65726f2061646460008201527f7265737300000000000000000000000000000000000000000000000000000000602082015250565b60006122386024836115ea565b9150612243826121dc565b604082019050919050565b600060208201905081810360008301526122678161222b565b9050919050565b7f45524332303a20617070726f766520746f20746865207a65726f20616464726560008201527f7373000000000000000000000000000000000000000000000000000000000000602082015250565b60006122ca6022836115ea565b91506122d58261226e565b604082019050919050565b600060208201905081810360008301526122f9816122bd565b9050919050565b7f45524332303a207472616e736665722066726f6d20746865207a65726f20616460008201527f6472657373000000000000000000000000000000000000000000000000000000602082015250565b600061235c6025836115ea565b915061236782612300565b604082019050919050565b6000602082019050818103600083015261238b8161234f565b9050919050565b7f45524332303a207472616e7366657220746f20746865207a65726f206164647260008201527f6573730000000000000000000000000000000000000000000000000000000000602082015250565b60006123ee6023836115ea565b91506123f982612392565b604082019050919050565b6000602082019050818103600083015261241d816123e1565b9050919050565b7f45524332303a207472616e7366657220616d6f756e742065786365656473206260008201527f616c616e63650000000000000000000000000000000000000000000000000000602082015250565b60006124806026836115ea565b915061248b82612424565b604082019050919050565b600060208201905081810360008301526124af81612473565b9050919050565b7f45524332303a206d696e7420746f20746865207a65726f206164647265737300600082015250565b60006124ec601f836115ea565b91506124f7826124b6565b602082019050919050565b6000602082019050818103600083015261251b816124df565b905091905056fea26469706673582212208344f9373bc24e58ea05378a5f913443ff3360a748ff83635e53772ccf22f7a664736f6c634300080d0033",
  "immutableReferences": {},
  "source": "// SPDX-License-Identifier: MIT\npragma solidity ^0.8.3;\n\nimport './SeverStore.sol';\n\ncontract CoinDispencer is SeverStore{\n    struct userCharge{\n        uint price;\n        uint8 point;\n    }\n    string connecTecs = \"farewell\";\n    \n    mapping(address => userCharge) purchase;\n\n    modifier fee(uint _fee) {\n        if (msg.value != _fee) {\n            revert(\"!REVERT 101\");\n        } else {\n            _;\n        }\n    }\n    \n    function sellTokn(uint _toknAmount) external{\n        require(_toknAmount > 0, \"You need to sell at least some tokens\");\n        allowance(msg.sender, address(this));\n        transferFrom(msg.sender, address(this), _toknAmount);\n        payable(msg.sender).transfer(_toknAmount);\n    }\n\n    function changePoint(uint8 _requirePoint, uint _calcedPirec) external\n    payable\n    fee(_calcedPirec){\n        purchase[msg.sender].point = _requirePoint;\n        purchase[msg.sender].price = _calcedPirec;\n        //trx(purchase[msg.sender].price);\n    }\n    function tempView() public view returns(uint){\n        return address(this).balance;\n    }\n    function userPoint() public view returns(uint){\n        return purchase[msg.sender].point;\n    }\n    function connection() public view returns(string memory){\n        return connecTecs;\n    }\n}",
  "sourcePath": "/home/giparang/threadweb/pogre/trufflebox/contracts/CoinDispencer.sol",
  "compiler": {
    "name": "solc",
    "version": "0.8.13+commit.abaa5c0e.Emscripten.clang"
  },
  "schemaVersion": "3.4.6",
  "updatedAt": "2022-03-24T08:57:42.863Z",
  "devdoc": {
    "kind": "dev",
    "methods": {
      "allowance(address,address)": {
        "details": "See {IERC20-allowance}."
      },
      "approve(address,uint256)": {
        "details": "See {IERC20-approve}. Requirements: - `spender` cannot be the zero address."
      },
      "balanceOf(address)": {
        "details": "See {IERC20-balanceOf}."
      },
      "decimals()": {
        "details": "Returns the number of decimals used to get its user representation. For example, if `decimals` equals `2`, a balance of `505` tokens should be displayed to a user as `5.05` (`505 / 10 ** 2`). Tokens usually opt for a value of 18, imitating the relationship between Ether and Wei. This is the value {ERC20} uses, unless this function is overridden; NOTE: This information is only used for _display_ purposes: it in no way affects any of the arithmetic of the contract, including {IERC20-balanceOf} and {IERC20-transfer}."
      },
      "decreaseAllowance(address,uint256)": {
        "details": "Atomically decreases the allowance granted to `spender` by the caller. This is an alternative to {approve} that can be used as a mitigation for problems described in {IERC20-approve}. Emits an {Approval} event indicating the updated allowance. Requirements: - `spender` cannot be the zero address. - `spender` must have allowance for the caller of at least `subtractedValue`."
      },
      "increaseAllowance(address,uint256)": {
        "details": "Atomically increases the allowance granted to `spender` by the caller. This is an alternative to {approve} that can be used as a mitigation for problems described in {IERC20-approve}. Emits an {Approval} event indicating the updated allowance. Requirements: - `spender` cannot be the zero address."
      },
      "name()": {
        "details": "Returns the name of the token."
      },
      "symbol()": {
        "details": "Returns the symbol of the token, usually a shorter version of the name."
      },
      "totalSupply()": {
        "details": "See {IERC20-totalSupply}."
      },
      "transfer(address,uint256)": {
        "details": "See {IERC20-transfer}. Requirements: - `recipient` cannot be the zero address. - the caller must have a balance of at least `amount`."
      },
      "transferFrom(address,address,uint256)": {
        "details": "See {IERC20-transferFrom}. Emits an {Approval} event indicating the updated allowance. This is not required by the EIP. See the note at the beginning of {ERC20}. Requirements: - `sender` and `recipient` cannot be the zero address. - `sender` must have a balance of at least `amount`. - the caller must have allowance for ``sender``'s tokens of at least `amount`."
      }
    },
    "version": 1
  },
  "userdoc": {
    "kind": "user",
    "methods": {},
    "version": 1
  }
}