{
  "contractName": "CoinDispencer",
  "abi": [
    {
      "anonymous": false,
      "inputs": [
        {
          "indexed": true,
          "internalType": "address",
          "name": "owner",
          "type": "address"
        },
        {
          "indexed": true,
          "internalType": "address",
          "name": "spender",
          "type": "address"
        },
        {
          "indexed": false,
          "internalType": "uint256",
          "name": "value",
          "type": "uint256"
        }
      ],
      "name": "Approval",
      "type": "event"
    },
    {
      "anonymous": false,
      "inputs": [
        {
          "indexed": true,
          "internalType": "address",
          "name": "from",
          "type": "address"
        },
        {
          "indexed": true,
          "internalType": "address",
          "name": "to",
          "type": "address"
        },
        {
          "indexed": false,
          "internalType": "uint256",
          "name": "value",
          "type": "uint256"
        }
      ],
      "name": "Transfer",
      "type": "event"
    },
    {
      "inputs": [
        {
          "internalType": "address",
          "name": "owner",
          "type": "address"
        },
        {
          "internalType": "address",
          "name": "spender",
          "type": "address"
        }
      ],
      "name": "allowance",
      "outputs": [
        {
          "internalType": "uint256",
          "name": "",
          "type": "uint256"
        }
      ],
      "stateMutability": "view",
      "type": "function",
      "constant": true
    },
    {
      "inputs": [
        {
          "internalType": "address",
          "name": "spender",
          "type": "address"
        },
        {
          "internalType": "uint256",
          "name": "amount",
          "type": "uint256"
        }
      ],
      "name": "approve",
      "outputs": [
        {
          "internalType": "bool",
          "name": "",
          "type": "bool"
        }
      ],
      "stateMutability": "nonpayable",
      "type": "function"
    },
    {
      "inputs": [
        {
          "internalType": "address",
          "name": "account",
          "type": "address"
        }
      ],
      "name": "balanceOf",
      "outputs": [
        {
          "internalType": "uint256",
          "name": "",
          "type": "uint256"
        }
      ],
      "stateMutability": "view",
      "type": "function",
      "constant": true
    },
    {
      "inputs": [],
      "name": "decimals",
      "outputs": [
        {
          "internalType": "uint8",
          "name": "",
          "type": "uint8"
        }
      ],
      "stateMutability": "view",
      "type": "function",
      "constant": true
    },
    {
      "inputs": [
        {
          "internalType": "address",
          "name": "spender",
          "type": "address"
        },
        {
          "internalType": "uint256",
          "name": "subtractedValue",
          "type": "uint256"
        }
      ],
      "name": "decreaseAllowance",
      "outputs": [
        {
          "internalType": "bool",
          "name": "",
          "type": "bool"
        }
      ],
      "stateMutability": "nonpayable",
      "type": "function"
    },
    {
      "inputs": [
        {
          "internalType": "uint256",
          "name": "_team",
          "type": "uint256"
        }
      ],
      "name": "getOwner",
      "outputs": [
        {
          "internalType": "address",
          "name": "",
          "type": "address"
        }
      ],
      "stateMutability": "view",
      "type": "function",
      "constant": true
    },
    {
      "inputs": [
        {
          "internalType": "uint256",
          "name": "_team",
          "type": "uint256"
        }
      ],
      "name": "getPrice",
      "outputs": [
        {
          "internalType": "uint256",
          "name": "",
          "type": "uint256"
        }
      ],
      "stateMutability": "view",
      "type": "function",
      "constant": true
    },
    {
      "inputs": [
        {
          "internalType": "uint256",
          "name": "_team",
          "type": "uint256"
        }
      ],
      "name": "getPtcp",
      "outputs": [
        {
          "internalType": "address[]",
          "name": "",
          "type": "address[]"
        }
      ],
      "stateMutability": "view",
      "type": "function",
      "constant": true
    },
    {
      "inputs": [
        {
          "internalType": "uint256",
          "name": "_team",
          "type": "uint256"
        }
      ],
      "name": "getStake",
      "outputs": [
        {
          "internalType": "uint256[]",
          "name": "",
          "type": "uint256[]"
        }
      ],
      "stateMutability": "view",
      "type": "function",
      "constant": true
    },
    {
      "inputs": [
        {
          "internalType": "address",
          "name": "spender",
          "type": "address"
        },
        {
          "internalType": "uint256",
          "name": "addedValue",
          "type": "uint256"
        }
      ],
      "name": "increaseAllowance",
      "outputs": [
        {
          "internalType": "bool",
          "name": "",
          "type": "bool"
        }
      ],
      "stateMutability": "nonpayable",
      "type": "function"
    },
    {
      "inputs": [],
      "name": "name",
      "outputs": [
        {
          "internalType": "string",
          "name": "",
          "type": "string"
        }
      ],
      "stateMutability": "view",
      "type": "function",
      "constant": true
    },
    {
      "inputs": [
        {
          "internalType": "uint256",
          "name": "_team",
          "type": "uint256"
        },
        {
          "internalType": "address",
          "name": "_buyer",
          "type": "address"
        },
        {
          "internalType": "address[]",
          "name": "_ptcp",
          "type": "address[]"
        }
      ],
      "name": "purchase",
      "outputs": [],
      "stateMutability": "nonpayable",
      "type": "function"
    },
    {
      "inputs": [
        {
          "internalType": "uint256",
          "name": "_team",
          "type": "uint256"
        },
        {
          "internalType": "address[]",
          "name": "_ptcp",
          "type": "address[]"
        },
        {
          "internalType": "uint256[]",
          "name": "_stake",
          "type": "uint256[]"
        },
        {
          "internalType": "uint256",
          "name": "_price",
          "type": "uint256"
        }
      ],
      "name": "putBlock",
      "outputs": [],
      "stateMutability": "nonpayable",
      "type": "function"
    },
    {
      "inputs": [
        {
          "internalType": "uint256",
          "name": "_value",
          "type": "uint256"
        },
        {
          "internalType": "address",
          "name": "_editor",
          "type": "address"
        }
      ],
      "name": "retrieve",
      "outputs": [],
      "stateMutability": "nonpayable",
      "type": "function"
    },
    {
      "inputs": [],
      "name": "symbol",
      "outputs": [
        {
          "internalType": "string",
          "name": "",
          "type": "string"
        }
      ],
      "stateMutability": "view",
      "type": "function",
      "constant": true
    },
    {
      "inputs": [],
      "name": "totalSupply",
      "outputs": [
        {
          "internalType": "uint256",
          "name": "",
          "type": "uint256"
        }
      ],
      "stateMutability": "view",
      "type": "function",
      "constant": true
    },
    {
      "inputs": [
        {
          "internalType": "address",
          "name": "recipient",
          "type": "address"
        },
        {
          "internalType": "uint256",
          "name": "amount",
          "type": "uint256"
        }
      ],
      "name": "transfer",
      "outputs": [
        {
          "internalType": "bool",
          "name": "",
          "type": "bool"
        }
      ],
      "stateMutability": "nonpayable",
      "type": "function"
    },
    {
      "inputs": [
        {
          "internalType": "address",
          "name": "sender",
          "type": "address"
        },
        {
          "internalType": "address",
          "name": "recipient",
          "type": "address"
        },
        {
          "internalType": "uint256",
          "name": "amount",
          "type": "uint256"
        }
      ],
      "name": "transferFrom",
      "outputs": [
        {
          "internalType": "bool",
          "name": "",
          "type": "bool"
        }
      ],
      "stateMutability": "nonpayable",
      "type": "function"
    },
    {
      "inputs": [
        {
          "internalType": "uint256",
          "name": "_discharge",
          "type": "uint256"
        },
        {
          "internalType": "uint256",
          "name": "_toknAmount",
          "type": "uint256"
        }
      ],
      "name": "sellTokn",
      "outputs": [],
      "stateMutability": "nonpayable",
      "type": "function"
    },
    {
      "inputs": [
        {
          "internalType": "uint256",
          "name": "_requireRED",
          "type": "uint256"
        },
        {
          "internalType": "uint256",
          "name": "_calcedPirec",
          "type": "uint256"
        }
      ],
      "name": "changePoint",
      "outputs": [],
      "stateMutability": "payable",
      "type": "function",
      "payable": true
    },
    {
      "inputs": [],
      "name": "ca_ethBal",
      "outputs": [
        {
          "internalType": "uint256",
          "name": "",
          "type": "uint256"
        }
      ],
      "stateMutability": "view",
      "type": "function",
      "constant": true
    },
    {
      "inputs": [],
      "name": "userPoint",
      "outputs": [
        {
          "internalType": "uint256",
          "name": "",
          "type": "uint256"
        }
      ],
      "stateMutability": "view",
      "type": "function",
      "constant": true
    },
    {
      "inputs": [],
      "name": "connection",
      "outputs": [
        {
          "internalType": "string",
          "name": "",
          "type": "string"
        }
      ],
      "stateMutability": "view",
      "type": "function",
      "constant": true
    }
  ],
  "bytecode": "0x608060405260006006556040518060400160405280601581526020017f636f6e6e656374696f6e2d72696768745f6964656100000000000000000000008152506007908051906020019062000056929190620002a9565b503480156200006457600080fd5b506040518060400160405280600681526020017f54687265616400000000000000000000000000000000000000000000000000008152506040518060400160405280600481526020017f54485265000000000000000000000000000000000000000000000000000000008152508160039080519060200190620000e9929190620002a9565b50806004908051906020019062000102929190620002a9565b505050620001213069021e19e0c9bab24000006200012760201b60201c565b62000504565b600073ffffffffffffffffffffffffffffffffffffffff168273ffffffffffffffffffffffffffffffffffffffff160362000199576040517f08c379a00000000000000000000000000000000000000000000000000000000081526004016200019090620003ba565b60405180910390fd5b620001ad600083836200029f60201b60201c565b8060026000828254620001c1919062000415565b92505081905550806000808473ffffffffffffffffffffffffffffffffffffffff1673ffffffffffffffffffffffffffffffffffffffff168152602001908152602001600020600082825462000218919062000415565b925050819055508173ffffffffffffffffffffffffffffffffffffffff16600073ffffffffffffffffffffffffffffffffffffffff167fddf252ad1be2c89b69c2b068fc378daa952ba7f163c4a11628f55a4df523b3ef836040516200027f919062000483565b60405180910390a36200029b60008383620002a460201b60201c565b5050565b505050565b505050565b828054620002b790620004cf565b90600052602060002090601f016020900481019282620002db576000855562000327565b82601f10620002f657805160ff191683800117855562000327565b8280016001018555821562000327579182015b828111156200032657825182559160200191906001019062000309565b5b5090506200033691906200033a565b5090565b5b80821115620003555760008160009055506001016200033b565b5090565b600082825260208201905092915050565b7f45524332303a206d696e7420746f20746865207a65726f206164647265737300600082015250565b6000620003a2601f8362000359565b9150620003af826200036a565b602082019050919050565b60006020820190508181036000830152620003d58162000393565b9050919050565b6000819050919050565b7f4e487b7100000000000000000000000000000000000000000000000000000000600052601160045260246000fd5b60006200042282620003dc565b91506200042f83620003dc565b9250827fffffffffffffffffffffffffffffffffffffffffffffffffffffffffffffffff03821115620004675762000466620003e6565b5b828201905092915050565b6200047d81620003dc565b82525050565b60006020820190506200049a600083018462000472565b92915050565b7f4e487b7100000000000000000000000000000000000000000000000000000000600052602260045260246000fd5b60006002820490506001821680620004e857607f821691505b602082108103620004fe57620004fd620004a0565b5b50919050565b6124dc80620005146000396000f3fe6080604052600436106101405760003560e01c8063a457c2d7116100b6578063ce325bf81161006f578063ce325bf8146104aa578063d00d443d146104e7578063d20f7f2614610503578063dd62ed3e1461052c578063e757223014610569578063fd19016c146105a657610140565b8063a457c2d714610374578063a9059cbb146103b1578063b364fa00146103ee578063c41a360a14610419578063cc068d3314610456578063cca2d9661461047f57610140565b8063313ce56711610108578063313ce5671461023e578063395093511461026957806344133b3c146102a657806350ab647e146102cf57806370a082311461030c57806395d89b411461034957610140565b806306fdde0314610145578063095ea7b314610170578063115e85f2146101ad57806318160ddd146101d657806323b872dd14610201575b600080fd5b34801561015157600080fd5b5061015a6105d1565b6040516101679190611628565b60405180910390f35b34801561017c57600080fd5b50610197600480360381019061019291906116f2565b610663565b6040516101a4919061174d565b60405180910390f35b3480156101b957600080fd5b506101d460048036038101906101cf91906118b0565b610681565b005b3480156101e257600080fd5b506101eb6106e5565b6040516101f8919061192e565b60405180910390f35b34801561020d57600080fd5b5061022860048036038101906102239190611949565b6106ef565b604051610235919061174d565b60405180910390f35b34801561024a57600080fd5b50610253610707565b60405161026091906119b8565b60405180910390f35b34801561027557600080fd5b50610290600480360381019061028b91906116f2565b610710565b60405161029d919061174d565b60405180910390f35b3480156102b257600080fd5b506102cd60048036038101906102c89190611a96565b6107bc565b005b3480156102db57600080fd5b506102f660048036038101906102f19190611b35565b6108eb565b6040516103039190611c20565b60405180910390f35b34801561031857600080fd5b50610333600480360381019061032e9190611c42565b61098f565b604051610340919061192e565b60405180910390f35b34801561035557600080fd5b5061035e6109d7565b60405161036b9190611628565b60405180910390f35b34801561038057600080fd5b5061039b600480360381019061039691906116f2565b610a69565b6040516103a8919061174d565b60405180910390f35b3480156103bd57600080fd5b506103d860048036038101906103d391906116f2565b610b54565b6040516103e5919061174d565b60405180910390f35b3480156103fa57600080fd5b50610403610b72565b604051610410919061192e565b60405180910390f35b34801561042557600080fd5b50610440600480360381019061043b9190611b35565b610bcc565b60405161044d9190611c7e565b60405180910390f35b34801561046257600080fd5b5061047d60048036038101906104789190611c99565b610c0c565b005b34801561048b57600080fd5b50610494610cdf565b6040516104a1919061192e565b60405180910390f35b3480156104b657600080fd5b506104d160048036038101906104cc9190611b35565b610ce7565b6040516104de9190611d97565b60405180910390f35b61050160048036038101906104fc9190611c99565b610d55565b005b34801561050f57600080fd5b5061052a60048036038101906105259190611db9565b610dc0565b005b34801561053857600080fd5b50610553600480360381019061054e9190611df9565b610e0b565b604051610560919061192e565b60405180910390f35b34801561057557600080fd5b50610590600480360381019061058b9190611b35565b610e92565b60405161059d919061192e565b60405180910390f35b3480156105b257600080fd5b506105bb610eb2565b6040516105c89190611628565b60405180910390f35b6060600380546105e090611e68565b80601f016020809104026020016040519081016040528092919081815260200182805461060c90611e68565b80156106595780601f1061062e57610100808354040283529160200191610659565b820191906000526020600020905b81548152906001019060200180831161063c57829003601f168201915b5050505050905090565b6000610677610670610f44565b8484610f4c565b6001905092915050565b816005600085815260200190815260200160002060020160006101000a81548173ffffffffffffffffffffffffffffffffffffffff021916908373ffffffffffffffffffffffffffffffffffffffff1602179055506106e08382611115565b505050565b6000600254905090565b60006106fc8484846111a7565b600190509392505050565b60006012905090565b60006107b261071d610f44565b84846001600061072b610f44565b73ffffffffffffffffffffffffffffffffffffffff1673ffffffffffffffffffffffffffffffffffffffff16815260200190815260200160002060008873ffffffffffffffffffffffffffffffffffffffff1673ffffffffffffffffffffffffffffffffffffffff168152602001908152602001600020546107ad9190611ec8565b610f4c565b6001905092915050565b60005b83518160ff16146108c95760056000868152602001908152602001600020600101848260ff16815181106107f6576107f5611f1e565b5b60200260200101519080600181540180825580915050600190039060005260206000200160009091909190916101000a81548173ffffffffffffffffffffffffffffffffffffffff021916908373ffffffffffffffffffffffffffffffffffffffff16021790555060056000868152602001908152602001600020600301838260ff168151811061088a57610889611f1e565b5b60200260200101519080600181540180825580915050600190039060005260206000200160009091909190915055806108c290611f4d565b90506107bf565b8160056000878152602001908152602001600020600401819055505050505050565b60606005600083815260200190815260200160002060010180548060200260200160405190810160405280929190818152602001828054801561098357602002820191906000526020600020905b8160009054906101000a900473ffffffffffffffffffffffffffffffffffffffff1673ffffffffffffffffffffffffffffffffffffffff1681526020019060010190808311610939575b50505050509050919050565b60008060008373ffffffffffffffffffffffffffffffffffffffff1673ffffffffffffffffffffffffffffffffffffffff168152602001908152602001600020549050919050565b6060600480546109e690611e68565b80601f0160208091040260200160405190810160405280929190818152602001828054610a1290611e68565b8015610a5f5780601f10610a3457610100808354040283529160200191610a5f565b820191906000526020600020905b815481529060010190602001808311610a4257829003601f168201915b5050505050905090565b60008060016000610a78610f44565b73ffffffffffffffffffffffffffffffffffffffff1673ffffffffffffffffffffffffffffffffffffffff16815260200190815260200160002060008573ffffffffffffffffffffffffffffffffffffffff1673ffffffffffffffffffffffffffffffffffffffff16815260200190815260200160002054905082811015610b35576040517f08c379a0000000000000000000000000000000000000000000000000000000008152600401610b2c90611fe8565b60405180910390fd5b610b49610b40610f44565b85858403610f4c565b600191505092915050565b6000610b68610b61610f44565b84846111a7565b6001905092915050565b6000600860003373ffffffffffffffffffffffffffffffffffffffff1673ffffffffffffffffffffffffffffffffffffffff16815260200190815260200160002060010160009054906101000a900460ff1660ff16905090565b60006005600083815260200190815260200160002060020160009054906101000a900473ffffffffffffffffffffffffffffffffffffffff169050919050565b6000655af3107a400083610c209190612008565b90506000655af3107a400083610c369190612008565b905060008411610c7b576040517f08c379a0000000000000000000000000000000000000000000000000000000008152600401610c72906120d4565b60405180910390fd5b610c853330610e0b565b50610c913330836106ef565b503373ffffffffffffffffffffffffffffffffffffffff166108fc839081150290604051600060405180830381858888f19350505050158015610cd8573d6000803e3d6000fd5b5050505050565b600047905090565b606060056000838152602001908152602001600020600301805480602002602001604051908101604052809291908181526020018280548015610d4957602002820191906000526020600020905b815481526020019060010190808311610d35575b50505050509050919050565b80803414610d98576040517f08c379a0000000000000000000000000000000000000000000000000000000008152600401610d8f90612140565b60405180910390fd5b6000655af3107a400084610dac9190612008565b9050610db93033836106ef565b5050505050565b610ddc818366038d7ea4c68000610dd79190612008565b611426565b8166038d7ea4c68000610def9190612008565b60066000828254610e009190611ec8565b925050819055505050565b6000600160008473ffffffffffffffffffffffffffffffffffffffff1673ffffffffffffffffffffffffffffffffffffffff16815260200190815260200160002060008373ffffffffffffffffffffffffffffffffffffffff1673ffffffffffffffffffffffffffffffffffffffff16815260200190815260200160002054905092915050565b600060056000838152602001908152602001600020600401549050919050565b606060078054610ec190611e68565b80601f0160208091040260200160405190810160405280929190818152602001828054610eed90611e68565b8015610f3a5780601f10610f0f57610100808354040283529160200191610f3a565b820191906000526020600020905b815481529060010190602001808311610f1d57829003601f168201915b5050505050905090565b600033905090565b600073ffffffffffffffffffffffffffffffffffffffff168373ffffffffffffffffffffffffffffffffffffffff1603610fbb576040517f08c379a0000000000000000000000000000000000000000000000000000000008152600401610fb2906121d2565b60405180910390fd5b600073ffffffffffffffffffffffffffffffffffffffff168273ffffffffffffffffffffffffffffffffffffffff160361102a576040517f08c379a000000000000000000000000000000000000000000000000000000000815260040161102190612264565b60405180910390fd5b80600160008573ffffffffffffffffffffffffffffffffffffffff1673ffffffffffffffffffffffffffffffffffffffff16815260200190815260200160002060008473ffffffffffffffffffffffffffffffffffffffff1673ffffffffffffffffffffffffffffffffffffffff168152602001908152602001600020819055508173ffffffffffffffffffffffffffffffffffffffff168373ffffffffffffffffffffffffffffffffffffffff167f8c5be1e5ebec7d5bd14f71427d1e84f3dd0314c0f7b2291e5b200ac8c7c3b92583604051611108919061192e565b60405180910390a3505050565b60005b81518160ff16146111a257611191828260ff168151811061113c5761113b611f1e565b5b6020026020010151600560008681526020019081526020016000206003018360ff168154811061116f5761116e611f1e565b5b906000526020600020015466038d7ea4c6800061118c9190612008565b611426565b8061119b90611f4d565b9050611118565b505050565b600073ffffffffffffffffffffffffffffffffffffffff168373ffffffffffffffffffffffffffffffffffffffff1603611216576040517f08c379a000000000000000000000000000000000000000000000000000000000815260040161120d906122f6565b60405180910390fd5b600073ffffffffffffffffffffffffffffffffffffffff168273ffffffffffffffffffffffffffffffffffffffff1603611285576040517f08c379a000000000000000000000000000000000000000000000000000000000815260040161127c90612388565b60405180910390fd5b611290838383611585565b60008060008573ffffffffffffffffffffffffffffffffffffffff1673ffffffffffffffffffffffffffffffffffffffff16815260200190815260200160002054905081811015611316576040517f08c379a000000000000000000000000000000000000000000000000000000000815260040161130d9061241a565b60405180910390fd5b8181036000808673ffffffffffffffffffffffffffffffffffffffff1673ffffffffffffffffffffffffffffffffffffffff16815260200190815260200160002081905550816000808573ffffffffffffffffffffffffffffffffffffffff1673ffffffffffffffffffffffffffffffffffffffff16815260200190815260200160002060008282546113a99190611ec8565b925050819055508273ffffffffffffffffffffffffffffffffffffffff168473ffffffffffffffffffffffffffffffffffffffff167fddf252ad1be2c89b69c2b068fc378daa952ba7f163c4a11628f55a4df523b3ef8460405161140d919061192e565b60405180910390a361142084848461158a565b50505050565b600073ffffffffffffffffffffffffffffffffffffffff168273ffffffffffffffffffffffffffffffffffffffff1603611495576040517f08c379a000000000000000000000000000000000000000000000000000000000815260040161148c90612486565b60405180910390fd5b6114a160008383611585565b80600260008282546114b39190611ec8565b92505081905550806000808473ffffffffffffffffffffffffffffffffffffffff1673ffffffffffffffffffffffffffffffffffffffff16815260200190815260200160002060008282546115089190611ec8565b925050819055508173ffffffffffffffffffffffffffffffffffffffff16600073ffffffffffffffffffffffffffffffffffffffff167fddf252ad1be2c89b69c2b068fc378daa952ba7f163c4a11628f55a4df523b3ef8360405161156d919061192e565b60405180910390a36115816000838361158a565b5050565b505050565b505050565b600081519050919050565b600082825260208201905092915050565b60005b838110156115c95780820151818401526020810190506115ae565b838111156115d8576000848401525b50505050565b6000601f19601f8301169050919050565b60006115fa8261158f565b611604818561159a565b93506116148185602086016115ab565b61161d816115de565b840191505092915050565b6000602082019050818103600083015261164281846115ef565b905092915050565b6000604051905090565b600080fd5b600080fd5b600073ffffffffffffffffffffffffffffffffffffffff82169050919050565b60006116898261165e565b9050919050565b6116998161167e565b81146116a457600080fd5b50565b6000813590506116b681611690565b92915050565b6000819050919050565b6116cf816116bc565b81146116da57600080fd5b50565b6000813590506116ec816116c6565b92915050565b6000806040838503121561170957611708611654565b5b6000611717858286016116a7565b9250506020611728858286016116dd565b9150509250929050565b60008115159050919050565b61174781611732565b82525050565b6000602082019050611762600083018461173e565b92915050565b600080fd5b7f4e487b7100000000000000000000000000000000000000000000000000000000600052604160045260246000fd5b6117a5826115de565b810181811067ffffffffffffffff821117156117c4576117c361176d565b5b80604052505050565b60006117d761164a565b90506117e3828261179c565b919050565b600067ffffffffffffffff8211156118035761180261176d565b5b602082029050602081019050919050565b600080fd5b600061182c611827846117e8565b6117cd565b9050808382526020820190506020840283018581111561184f5761184e611814565b5b835b81811015611878578061186488826116a7565b845260208401935050602081019050611851565b5050509392505050565b600082601f83011261189757611896611768565b5b81356118a7848260208601611819565b91505092915050565b6000806000606084860312156118c9576118c8611654565b5b60006118d7868287016116dd565b93505060206118e8868287016116a7565b925050604084013567ffffffffffffffff81111561190957611908611659565b5b61191586828701611882565b9150509250925092565b611928816116bc565b82525050565b6000602082019050611943600083018461191f565b92915050565b60008060006060848603121561196257611961611654565b5b6000611970868287016116a7565b9350506020611981868287016116a7565b9250506040611992868287016116dd565b9150509250925092565b600060ff82169050919050565b6119b28161199c565b82525050565b60006020820190506119cd60008301846119a9565b92915050565b600067ffffffffffffffff8211156119ee576119ed61176d565b5b602082029050602081019050919050565b6000611a12611a0d846119d3565b6117cd565b90508083825260208201905060208402830185811115611a3557611a34611814565b5b835b81811015611a5e5780611a4a88826116dd565b845260208401935050602081019050611a37565b5050509392505050565b600082601f830112611a7d57611a7c611768565b5b8135611a8d8482602086016119ff565b91505092915050565b60008060008060808587031215611ab057611aaf611654565b5b6000611abe878288016116dd565b945050602085013567ffffffffffffffff811115611adf57611ade611659565b5b611aeb87828801611882565b935050604085013567ffffffffffffffff811115611b0c57611b0b611659565b5b611b1887828801611a68565b9250506060611b29878288016116dd565b91505092959194509250565b600060208284031215611b4b57611b4a611654565b5b6000611b59848285016116dd565b91505092915050565b600081519050919050565b600082825260208201905092915050565b6000819050602082019050919050565b611b978161167e565b82525050565b6000611ba98383611b8e565b60208301905092915050565b6000602082019050919050565b6000611bcd82611b62565b611bd78185611b6d565b9350611be283611b7e565b8060005b83811015611c13578151611bfa8882611b9d565b9750611c0583611bb5565b925050600181019050611be6565b5085935050505092915050565b60006020820190508181036000830152611c3a8184611bc2565b905092915050565b600060208284031215611c5857611c57611654565b5b6000611c66848285016116a7565b91505092915050565b611c788161167e565b82525050565b6000602082019050611c936000830184611c6f565b92915050565b60008060408385031215611cb057611caf611654565b5b6000611cbe858286016116dd565b9250506020611ccf858286016116dd565b9150509250929050565b600081519050919050565b600082825260208201905092915050565b6000819050602082019050919050565b611d0e816116bc565b82525050565b6000611d208383611d05565b60208301905092915050565b6000602082019050919050565b6000611d4482611cd9565b611d4e8185611ce4565b9350611d5983611cf5565b8060005b83811015611d8a578151611d718882611d14565b9750611d7c83611d2c565b925050600181019050611d5d565b5085935050505092915050565b60006020820190508181036000830152611db18184611d39565b905092915050565b60008060408385031215611dd057611dcf611654565b5b6000611dde858286016116dd565b9250506020611def858286016116a7565b9150509250929050565b60008060408385031215611e1057611e0f611654565b5b6000611e1e858286016116a7565b9250506020611e2f858286016116a7565b9150509250929050565b7f4e487b7100000000000000000000000000000000000000000000000000000000600052602260045260246000fd5b60006002820490506001821680611e8057607f821691505b602082108103611e9357611e92611e39565b5b50919050565b7f4e487b7100000000000000000000000000000000000000000000000000000000600052601160045260246000fd5b6000611ed3826116bc565b9150611ede836116bc565b9250827fffffffffffffffffffffffffffffffffffffffffffffffffffffffffffffffff03821115611f1357611f12611e99565b5b828201905092915050565b7f4e487b7100000000000000000000000000000000000000000000000000000000600052603260045260246000fd5b6000611f588261199c565b915060ff8203611f6b57611f6a611e99565b5b600182019050919050565b7f45524332303a2064656372656173656420616c6c6f77616e63652062656c6f7760008201527f207a65726f000000000000000000000000000000000000000000000000000000602082015250565b6000611fd260258361159a565b9150611fdd82611f76565b604082019050919050565b6000602082019050818103600083015261200181611fc5565b9050919050565b6000612013826116bc565b915061201e836116bc565b9250817fffffffffffffffffffffffffffffffffffffffffffffffffffffffffffffffff048311821515161561205757612056611e99565b5b828202905092915050565b7f596f75206e65656420746f2073656c6c206174206c6561737420736f6d65207460008201527f6f6b656e73000000000000000000000000000000000000000000000000000000602082015250565b60006120be60258361159a565b91506120c982612062565b604082019050919050565b600060208201905081810360008301526120ed816120b1565b9050919050565b7f2152455645525420313031000000000000000000000000000000000000000000600082015250565b600061212a600b8361159a565b9150612135826120f4565b602082019050919050565b600060208201905081810360008301526121598161211d565b9050919050565b7f45524332303a20617070726f76652066726f6d20746865207a65726f2061646460008201527f7265737300000000000000000000000000000000000000000000000000000000602082015250565b60006121bc60248361159a565b91506121c782612160565b604082019050919050565b600060208201905081810360008301526121eb816121af565b9050919050565b7f45524332303a20617070726f766520746f20746865207a65726f20616464726560008201527f7373000000000000000000000000000000000000000000000000000000000000602082015250565b600061224e60228361159a565b9150612259826121f2565b604082019050919050565b6000602082019050818103600083015261227d81612241565b9050919050565b7f45524332303a207472616e736665722066726f6d20746865207a65726f20616460008201527f6472657373000000000000000000000000000000000000000000000000000000602082015250565b60006122e060258361159a565b91506122eb82612284565b604082019050919050565b6000602082019050818103600083015261230f816122d3565b9050919050565b7f45524332303a207472616e7366657220746f20746865207a65726f206164647260008201527f6573730000000000000000000000000000000000000000000000000000000000602082015250565b600061237260238361159a565b915061237d82612316565b604082019050919050565b600060208201905081810360008301526123a181612365565b9050919050565b7f45524332303a207472616e7366657220616d6f756e742065786365656473206260008201527f616c616e63650000000000000000000000000000000000000000000000000000602082015250565b600061240460268361159a565b915061240f826123a8565b604082019050919050565b60006020820190508181036000830152612433816123f7565b9050919050565b7f45524332303a206d696e7420746f20746865207a65726f206164647265737300600082015250565b6000612470601f8361159a565b915061247b8261243a565b602082019050919050565b6000602082019050818103600083015261249f81612463565b905091905056fea264697066735822122030169d6ae3e4bf0ee36bdb540b9aca638f7a4c36325655708cb1f6cd06ecff9a64736f6c634300080d0033",
  "immutableReferences": {},
  "source": "// SPDX-License-Identifier: MIT\npragma solidity ^0.8.3;\n\nimport './SeverStore.sol';\n\ncontract CoinDispencer is SeverStore{\n    struct userCharge{\n        uint price;\n        uint8 point;\n    }\n    string connecTecs = \"connection-right_idea\";\n    \n    mapping(address => userCharge) purchase;\n\n    modifier fee(uint _fee) {\n        if (msg.value != _fee) {\n            revert(\"!REVERT 101\");\n        } else {\n            _;\n        }\n    }\n\n    function sellTokn(uint _discharge, uint _toknAmount) external{\n        uint discharge = _discharge * 10 ** 14;\n        uint toknAmount = _toknAmount * 10 ** 14;\n        require(_discharge > 0, \"You need to sell at least some tokens\");\n        allowance(msg.sender, address(this));\n        transferFrom(msg.sender, address(this), toknAmount);\n        payable(msg.sender).transfer(discharge);\n    }\n    \n    function changePoint(uint256 _requireRED, uint _calcedPirec) external\n    payable\n    fee(_calcedPirec){\n        uint requireRED = _requireRED * 10 ** 14;\n        transferFrom(address(this), msg.sender, requireRED);\n        // purchase[msg.sender].point = _requirePoint;\n        // purchase[msg.sender].price = _calcedPirec;\n    }\n    function ca_ethBal() public view returns(uint){\n        return address(this).balance;\n    }\n    function userPoint() public view returns(uint){\n        return purchase[msg.sender].point;\n    }\n    function connection() public view returns(string memory){\n        return connecTecs;\n    }\n}",
  "sourcePath": "/home/giparang/threadweb/pogre/trufflebox/contracts/CoinDispencer.sol",
  "compiler": {
    "name": "solc",
    "version": "0.8.13+commit.abaa5c0e.Emscripten.clang"
  },
  "schemaVersion": "3.4.6",
  "updatedAt": "2022-04-08T01:46:20.873Z",
  "networkType": "ethereum",
  "devdoc": {
    "kind": "dev",
    "methods": {
      "allowance(address,address)": {
        "details": "See {IERC20-allowance}."
      },
      "approve(address,uint256)": {
        "details": "See {IERC20-approve}. Requirements: - `spender` cannot be the zero address."
      },
      "balanceOf(address)": {
        "details": "See {IERC20-balanceOf}."
      },
      "decimals()": {
        "details": "Returns the number of decimals used to get its user representation. For example, if `decimals` equals `2`, a balance of `505` tokens should be displayed to a user as `5.05` (`505 / 10 ** 2`). Tokens usually opt for a value of 18, imitating the relationship between Ether and Wei. This is the value {ERC20} uses, unless this function is overridden; NOTE: This information is only used for _display_ purposes: it in no way affects any of the arithmetic of the contract, including {IERC20-balanceOf} and {IERC20-transfer}."
      },
      "decreaseAllowance(address,uint256)": {
        "details": "Atomically decreases the allowance granted to `spender` by the caller. This is an alternative to {approve} that can be used as a mitigation for problems described in {IERC20-approve}. Emits an {Approval} event indicating the updated allowance. Requirements: - `spender` cannot be the zero address. - `spender` must have allowance for the caller of at least `subtractedValue`."
      },
      "increaseAllowance(address,uint256)": {
        "details": "Atomically increases the allowance granted to `spender` by the caller. This is an alternative to {approve} that can be used as a mitigation for problems described in {IERC20-approve}. Emits an {Approval} event indicating the updated allowance. Requirements: - `spender` cannot be the zero address."
      },
      "name()": {
        "details": "Returns the name of the token."
      },
      "symbol()": {
        "details": "Returns the symbol of the token, usually a shorter version of the name."
      },
      "totalSupply()": {
        "details": "See {IERC20-totalSupply}."
      },
      "transfer(address,uint256)": {
        "details": "See {IERC20-transfer}. Requirements: - `recipient` cannot be the zero address. - the caller must have a balance of at least `amount`."
      },
      "transferFrom(address,address,uint256)": {
        "details": "See {IERC20-transferFrom}. Emits an {Approval} event indicating the updated allowance. This is not required by the EIP. See the note at the beginning of {ERC20}. Requirements: - `sender` and `recipient` cannot be the zero address. - `sender` must have a balance of at least `amount`. - the caller must have allowance for ``sender``'s tokens of at least `amount`."
      }
    },
    "version": 1
  },
  "userdoc": {
    "kind": "user",
    "methods": {},
    "version": 1
  }
}