{
  "contractName": "CoinDispencer",
  "abi": [
    {
      "anonymous": false,
      "inputs": [
        {
          "indexed": true,
          "internalType": "address",
          "name": "owner",
          "type": "address"
        },
        {
          "indexed": true,
          "internalType": "address",
          "name": "spender",
          "type": "address"
        },
        {
          "indexed": false,
          "internalType": "uint256",
          "name": "value",
          "type": "uint256"
        }
      ],
      "name": "Approval",
      "type": "event"
    },
    {
      "anonymous": false,
      "inputs": [
        {
          "indexed": true,
          "internalType": "address",
          "name": "from",
          "type": "address"
        },
        {
          "indexed": true,
          "internalType": "address",
          "name": "to",
          "type": "address"
        },
        {
          "indexed": false,
          "internalType": "uint256",
          "name": "value",
          "type": "uint256"
        }
      ],
      "name": "Transfer",
      "type": "event"
    },
    {
      "inputs": [
        {
          "internalType": "address",
          "name": "owner",
          "type": "address"
        },
        {
          "internalType": "address",
          "name": "spender",
          "type": "address"
        }
      ],
      "name": "allowance",
      "outputs": [
        {
          "internalType": "uint256",
          "name": "",
          "type": "uint256"
        }
      ],
      "stateMutability": "view",
      "type": "function",
      "constant": true
    },
    {
      "inputs": [
        {
          "internalType": "address",
          "name": "spender",
          "type": "address"
        },
        {
          "internalType": "uint256",
          "name": "amount",
          "type": "uint256"
        }
      ],
      "name": "approve",
      "outputs": [
        {
          "internalType": "bool",
          "name": "",
          "type": "bool"
        }
      ],
      "stateMutability": "nonpayable",
      "type": "function"
    },
    {
      "inputs": [
        {
          "internalType": "address",
          "name": "account",
          "type": "address"
        }
      ],
      "name": "balanceOf",
      "outputs": [
        {
          "internalType": "uint256",
          "name": "",
          "type": "uint256"
        }
      ],
      "stateMutability": "view",
      "type": "function",
      "constant": true
    },
    {
      "inputs": [],
      "name": "decimals",
      "outputs": [
        {
          "internalType": "uint8",
          "name": "",
          "type": "uint8"
        }
      ],
      "stateMutability": "view",
      "type": "function",
      "constant": true
    },
    {
      "inputs": [
        {
          "internalType": "address",
          "name": "spender",
          "type": "address"
        },
        {
          "internalType": "uint256",
          "name": "subtractedValue",
          "type": "uint256"
        }
      ],
      "name": "decreaseAllowance",
      "outputs": [
        {
          "internalType": "bool",
          "name": "",
          "type": "bool"
        }
      ],
      "stateMutability": "nonpayable",
      "type": "function"
    },
    {
      "inputs": [
        {
          "internalType": "uint256",
          "name": "_team",
          "type": "uint256"
        }
      ],
      "name": "getOwner",
      "outputs": [
        {
          "internalType": "address",
          "name": "",
          "type": "address"
        }
      ],
      "stateMutability": "view",
      "type": "function",
      "constant": true
    },
    {
      "inputs": [
        {
          "internalType": "uint256",
          "name": "_team",
          "type": "uint256"
        }
      ],
      "name": "getPrice",
      "outputs": [
        {
          "internalType": "uint256",
          "name": "",
          "type": "uint256"
        }
      ],
      "stateMutability": "view",
      "type": "function",
      "constant": true
    },
    {
      "inputs": [
        {
          "internalType": "uint256",
          "name": "_team",
          "type": "uint256"
        }
      ],
      "name": "getPtcp",
      "outputs": [
        {
          "internalType": "address[]",
          "name": "",
          "type": "address[]"
        }
      ],
      "stateMutability": "view",
      "type": "function",
      "constant": true
    },
    {
      "inputs": [
        {
          "internalType": "uint256",
          "name": "_team",
          "type": "uint256"
        }
      ],
      "name": "getStake",
      "outputs": [
        {
          "internalType": "uint256[]",
          "name": "",
          "type": "uint256[]"
        }
      ],
      "stateMutability": "view",
      "type": "function",
      "constant": true
    },
    {
      "inputs": [
        {
          "internalType": "address",
          "name": "spender",
          "type": "address"
        },
        {
          "internalType": "uint256",
          "name": "addedValue",
          "type": "uint256"
        }
      ],
      "name": "increaseAllowance",
      "outputs": [
        {
          "internalType": "bool",
          "name": "",
          "type": "bool"
        }
      ],
      "stateMutability": "nonpayable",
      "type": "function"
    },
    {
      "inputs": [],
      "name": "name",
      "outputs": [
        {
          "internalType": "string",
          "name": "",
          "type": "string"
        }
      ],
      "stateMutability": "view",
      "type": "function",
      "constant": true
    },
    {
      "inputs": [
        {
          "internalType": "uint256",
          "name": "_team",
          "type": "uint256"
        },
        {
          "internalType": "address",
          "name": "_buyer",
          "type": "address"
        },
        {
          "internalType": "address[]",
          "name": "_ptcp",
          "type": "address[]"
        }
      ],
      "name": "purchase",
      "outputs": [],
      "stateMutability": "nonpayable",
      "type": "function"
    },
    {
      "inputs": [
        {
          "internalType": "uint256",
          "name": "_team",
          "type": "uint256"
        },
        {
          "internalType": "address[]",
          "name": "_ptcp",
          "type": "address[]"
        },
        {
          "internalType": "uint256[]",
          "name": "_stake",
          "type": "uint256[]"
        },
        {
          "internalType": "uint256",
          "name": "_price",
          "type": "uint256"
        }
      ],
      "name": "putBlock",
      "outputs": [],
      "stateMutability": "nonpayable",
      "type": "function"
    },
    {
      "inputs": [
        {
          "internalType": "uint256",
          "name": "_value",
          "type": "uint256"
        },
        {
          "internalType": "address",
          "name": "_editor",
          "type": "address"
        }
      ],
      "name": "retrieve",
      "outputs": [],
      "stateMutability": "nonpayable",
      "type": "function"
    },
    {
      "inputs": [],
      "name": "symbol",
      "outputs": [
        {
          "internalType": "string",
          "name": "",
          "type": "string"
        }
      ],
      "stateMutability": "view",
      "type": "function",
      "constant": true
    },
    {
      "inputs": [],
      "name": "totalSupply",
      "outputs": [
        {
          "internalType": "uint256",
          "name": "",
          "type": "uint256"
        }
      ],
      "stateMutability": "view",
      "type": "function",
      "constant": true
    },
    {
      "inputs": [
        {
          "internalType": "address",
          "name": "recipient",
          "type": "address"
        },
        {
          "internalType": "uint256",
          "name": "amount",
          "type": "uint256"
        }
      ],
      "name": "transfer",
      "outputs": [
        {
          "internalType": "bool",
          "name": "",
          "type": "bool"
        }
      ],
      "stateMutability": "nonpayable",
      "type": "function"
    },
    {
      "inputs": [
        {
          "internalType": "address",
          "name": "sender",
          "type": "address"
        },
        {
          "internalType": "address",
          "name": "recipient",
          "type": "address"
        },
        {
          "internalType": "uint256",
          "name": "amount",
          "type": "uint256"
        }
      ],
      "name": "transferFrom",
      "outputs": [
        {
          "internalType": "bool",
          "name": "",
          "type": "bool"
        }
      ],
      "stateMutability": "nonpayable",
      "type": "function"
    },
    {
      "inputs": [
        {
          "internalType": "uint256",
          "name": "_toknAmount",
          "type": "uint256"
        }
      ],
      "name": "sellTokn",
      "outputs": [],
      "stateMutability": "nonpayable",
      "type": "function"
    },
    {
      "inputs": [
        {
          "internalType": "uint8",
          "name": "_requirePoint",
          "type": "uint8"
        },
        {
          "internalType": "uint256",
          "name": "_calcedPirec",
          "type": "uint256"
        }
      ],
      "name": "changePoint",
      "outputs": [],
      "stateMutability": "payable",
      "type": "function",
      "payable": true
    },
    {
      "inputs": [],
      "name": "ca_ethBal",
      "outputs": [
        {
          "internalType": "uint256",
          "name": "",
          "type": "uint256"
        }
      ],
      "stateMutability": "view",
      "type": "function",
      "constant": true
    },
    {
      "inputs": [],
      "name": "userPoint",
      "outputs": [
        {
          "internalType": "uint256",
          "name": "",
          "type": "uint256"
        }
      ],
      "stateMutability": "view",
      "type": "function",
      "constant": true
    },
    {
      "inputs": [],
      "name": "connection",
      "outputs": [
        {
          "internalType": "string",
          "name": "",
          "type": "string"
        }
      ],
      "stateMutability": "view",
      "type": "function",
      "constant": true
    }
  ],
  "bytecode": "0x608060405260006006556040518060400160405280600881526020017f6661726577656c6c00000000000000000000000000000000000000000000000081525060079080519060200190620000569291906200010b565b503480156200006457600080fd5b506040518060400160405280600681526020017f54687265616400000000000000000000000000000000000000000000000000008152506040518060400160405280600481526020017f54485265000000000000000000000000000000000000000000000000000000008152508160039080519060200190620000e99291906200010b565b508060049080519060200190620001029291906200010b565b5050506200021f565b8280546200011990620001ea565b90600052602060002090601f0160209004810192826200013d576000855562000189565b82601f106200015857805160ff191683800117855562000189565b8280016001018555821562000189579182015b82811115620001885782518255916020019190600101906200016b565b5b5090506200019891906200019c565b5090565b5b80821115620001b75760008160009055506001016200019d565b5090565b7f4e487b7100000000000000000000000000000000000000000000000000000000600052602260045260246000fd5b600060028204905060018216806200020357607f821691505b602082108103620002195762000218620001bb565b5b50919050565b612564806200022f6000396000f3fe6080604052600436106101405760003560e01c806370a08231116100b6578063cca2d9661161006f578063cca2d9661461049b578063ce325bf8146104c6578063d20f7f2614610503578063dd62ed3e1461052c578063e757223014610569578063fd19016c146105a657610140565b806370a082311461035157806395d89b411461038e578063a457c2d7146103b9578063a9059cbb146103f6578063b364fa0014610433578063c41a360a1461045e57610140565b806323b872dd1161010857806323b872dd1461021d57806325e765601461025a578063313ce5671461028357806339509351146102ae57806344133b3c146102eb57806350ab647e1461031457610140565b806306fdde0314610145578063077b7c6d14610170578063095ea7b31461018c578063115e85f2146101c957806318160ddd146101f2575b600080fd5b34801561015157600080fd5b5061015a6105d1565b6040516101679190611684565b60405180910390f35b61018a60048036038101906101859190611729565b610663565b005b34801561019857600080fd5b506101b360048036038101906101ae91906117c7565b61074d565b6040516101c09190611822565b60405180910390f35b3480156101d557600080fd5b506101f060048036038101906101eb9190611985565b61076b565b005b3480156101fe57600080fd5b506102076107cf565b6040516102149190611a03565b60405180910390f35b34801561022957600080fd5b50610244600480360381019061023f9190611a1e565b6107d9565b6040516102519190611822565b60405180910390f35b34801561026657600080fd5b50610281600480360381019061027c9190611a71565b6107f1565b005b34801561028f57600080fd5b506102986108a1565b6040516102a59190611aad565b60405180910390f35b3480156102ba57600080fd5b506102d560048036038101906102d091906117c7565b6108aa565b6040516102e29190611822565b60405180910390f35b3480156102f757600080fd5b50610312600480360381019061030d9190611b8b565b610956565b005b34801561032057600080fd5b5061033b60048036038101906103369190611a71565b610a85565b6040516103489190611ce8565b60405180910390f35b34801561035d57600080fd5b5061037860048036038101906103739190611d0a565b610b29565b6040516103859190611a03565b60405180910390f35b34801561039a57600080fd5b506103a3610b71565b6040516103b09190611684565b60405180910390f35b3480156103c557600080fd5b506103e060048036038101906103db91906117c7565b610c03565b6040516103ed9190611822565b60405180910390f35b34801561040257600080fd5b5061041d600480360381019061041891906117c7565b610cee565b60405161042a9190611822565b60405180910390f35b34801561043f57600080fd5b50610448610d0c565b6040516104559190611a03565b60405180910390f35b34801561046a57600080fd5b5061048560048036038101906104809190611a71565b610d66565b6040516104929190611d46565b60405180910390f35b3480156104a757600080fd5b506104b0610da6565b6040516104bd9190611a03565b60405180910390f35b3480156104d257600080fd5b506104ed60048036038101906104e89190611a71565b610dae565b6040516104fa9190611e1f565b60405180910390f35b34801561050f57600080fd5b5061052a60048036038101906105259190611e41565b610e1c565b005b34801561053857600080fd5b50610553600480360381019061054e9190611e81565b610e67565b6040516105609190611a03565b60405180910390f35b34801561057557600080fd5b50610590600480360381019061058b9190611a71565b610eee565b60405161059d9190611a03565b60405180910390f35b3480156105b257600080fd5b506105bb610f0e565b6040516105c89190611684565b60405180910390f35b6060600380546105e090611ef0565b80601f016020809104026020016040519081016040528092919081815260200182805461060c90611ef0565b80156106595780601f1061062e57610100808354040283529160200191610659565b820191906000526020600020905b81548152906001019060200180831161063c57829003601f168201915b5050505050905090565b808034146106a6576040517f08c379a000000000000000000000000000000000000000000000000000000000815260040161069d90611f6d565b60405180910390fd5b82600860003373ffffffffffffffffffffffffffffffffffffffff1673ffffffffffffffffffffffffffffffffffffffff16815260200190815260200160002060010160006101000a81548160ff021916908360ff16021790555081600860003373ffffffffffffffffffffffffffffffffffffffff1673ffffffffffffffffffffffffffffffffffffffff16815260200190815260200160002060000181905550505050565b600061076161075a610fa0565b8484610fa8565b6001905092915050565b816005600085815260200190815260200160002060020160006101000a81548173ffffffffffffffffffffffffffffffffffffffff021916908373ffffffffffffffffffffffffffffffffffffffff1602179055506107ca8382611171565b505050565b6000600254905090565b60006107e6848484611203565b600190509392505050565b60008111610834576040517f08c379a000000000000000000000000000000000000000000000000000000000815260040161082b90611fff565b60405180910390fd5b61083e3330610e67565b5061084a3330836107d9565b503373ffffffffffffffffffffffffffffffffffffffff166108fc606483610872919061204e565b9081150290604051600060405180830381858888f1935050505015801561089d573d6000803e3d6000fd5b5050565b60006012905090565b600061094c6108b7610fa0565b8484600160006108c5610fa0565b73ffffffffffffffffffffffffffffffffffffffff1673ffffffffffffffffffffffffffffffffffffffff16815260200190815260200160002060008873ffffffffffffffffffffffffffffffffffffffff1673ffffffffffffffffffffffffffffffffffffffff1681526020019081526020016000205461094791906120a8565b610fa8565b6001905092915050565b60005b83518160ff1614610a635760056000868152602001908152602001600020600101848260ff16815181106109905761098f6120fe565b5b60200260200101519080600181540180825580915050600190039060005260206000200160009091909190916101000a81548173ffffffffffffffffffffffffffffffffffffffff021916908373ffffffffffffffffffffffffffffffffffffffff16021790555060056000868152602001908152602001600020600301838260ff1681518110610a2457610a236120fe565b5b6020026020010151908060018154018082558091505060019003906000526020600020016000909190919091505580610a5c9061212d565b9050610959565b8160056000878152602001908152602001600020600401819055505050505050565b606060056000838152602001908152602001600020600101805480602002602001604051908101604052809291908181526020018280548015610b1d57602002820191906000526020600020905b8160009054906101000a900473ffffffffffffffffffffffffffffffffffffffff1673ffffffffffffffffffffffffffffffffffffffff1681526020019060010190808311610ad3575b50505050509050919050565b60008060008373ffffffffffffffffffffffffffffffffffffffff1673ffffffffffffffffffffffffffffffffffffffff168152602001908152602001600020549050919050565b606060048054610b8090611ef0565b80601f0160208091040260200160405190810160405280929190818152602001828054610bac90611ef0565b8015610bf95780601f10610bce57610100808354040283529160200191610bf9565b820191906000526020600020905b815481529060010190602001808311610bdc57829003601f168201915b5050505050905090565b60008060016000610c12610fa0565b73ffffffffffffffffffffffffffffffffffffffff1673ffffffffffffffffffffffffffffffffffffffff16815260200190815260200160002060008573ffffffffffffffffffffffffffffffffffffffff1673ffffffffffffffffffffffffffffffffffffffff16815260200190815260200160002054905082811015610ccf576040517f08c379a0000000000000000000000000000000000000000000000000000000008152600401610cc6906121c8565b60405180910390fd5b610ce3610cda610fa0565b85858403610fa8565b600191505092915050565b6000610d02610cfb610fa0565b8484611203565b6001905092915050565b6000600860003373ffffffffffffffffffffffffffffffffffffffff1673ffffffffffffffffffffffffffffffffffffffff16815260200190815260200160002060010160009054906101000a900460ff1660ff16905090565b60006005600083815260200190815260200160002060020160009054906101000a900473ffffffffffffffffffffffffffffffffffffffff169050919050565b600047905090565b606060056000838152602001908152602001600020600301805480602002602001604051908101604052809291908181526020018280548015610e1057602002820191906000526020600020905b815481526020019060010190808311610dfc575b50505050509050919050565b610e38818366038d7ea4c68000610e33919061204e565b611482565b8166038d7ea4c68000610e4b919061204e565b60066000828254610e5c91906120a8565b925050819055505050565b6000600160008473ffffffffffffffffffffffffffffffffffffffff1673ffffffffffffffffffffffffffffffffffffffff16815260200190815260200160002060008373ffffffffffffffffffffffffffffffffffffffff1673ffffffffffffffffffffffffffffffffffffffff16815260200190815260200160002054905092915050565b600060056000838152602001908152602001600020600401549050919050565b606060078054610f1d90611ef0565b80601f0160208091040260200160405190810160405280929190818152602001828054610f4990611ef0565b8015610f965780601f10610f6b57610100808354040283529160200191610f96565b820191906000526020600020905b815481529060010190602001808311610f7957829003601f168201915b5050505050905090565b600033905090565b600073ffffffffffffffffffffffffffffffffffffffff168373ffffffffffffffffffffffffffffffffffffffff1603611017576040517f08c379a000000000000000000000000000000000000000000000000000000000815260040161100e9061225a565b60405180910390fd5b600073ffffffffffffffffffffffffffffffffffffffff168273ffffffffffffffffffffffffffffffffffffffff1603611086576040517f08c379a000000000000000000000000000000000000000000000000000000000815260040161107d906122ec565b60405180910390fd5b80600160008573ffffffffffffffffffffffffffffffffffffffff1673ffffffffffffffffffffffffffffffffffffffff16815260200190815260200160002060008473ffffffffffffffffffffffffffffffffffffffff1673ffffffffffffffffffffffffffffffffffffffff168152602001908152602001600020819055508173ffffffffffffffffffffffffffffffffffffffff168373ffffffffffffffffffffffffffffffffffffffff167f8c5be1e5ebec7d5bd14f71427d1e84f3dd0314c0f7b2291e5b200ac8c7c3b925836040516111649190611a03565b60405180910390a3505050565b60005b81518160ff16146111fe576111ed828260ff1681518110611198576111976120fe565b5b6020026020010151600560008681526020019081526020016000206003018360ff16815481106111cb576111ca6120fe565b5b906000526020600020015466038d7ea4c680006111e8919061204e565b611482565b806111f79061212d565b9050611174565b505050565b600073ffffffffffffffffffffffffffffffffffffffff168373ffffffffffffffffffffffffffffffffffffffff1603611272576040517f08c379a00000000000000000000000000000000000000000000000000000000081526004016112699061237e565b60405180910390fd5b600073ffffffffffffffffffffffffffffffffffffffff168273ffffffffffffffffffffffffffffffffffffffff16036112e1576040517f08c379a00000000000000000000000000000000000000000000000000000000081526004016112d890612410565b60405180910390fd5b6112ec8383836115e1565b60008060008573ffffffffffffffffffffffffffffffffffffffff1673ffffffffffffffffffffffffffffffffffffffff16815260200190815260200160002054905081811015611372576040517f08c379a0000000000000000000000000000000000000000000000000000000008152600401611369906124a2565b60405180910390fd5b8181036000808673ffffffffffffffffffffffffffffffffffffffff1673ffffffffffffffffffffffffffffffffffffffff16815260200190815260200160002081905550816000808573ffffffffffffffffffffffffffffffffffffffff1673ffffffffffffffffffffffffffffffffffffffff168152602001908152602001600020600082825461140591906120a8565b925050819055508273ffffffffffffffffffffffffffffffffffffffff168473ffffffffffffffffffffffffffffffffffffffff167fddf252ad1be2c89b69c2b068fc378daa952ba7f163c4a11628f55a4df523b3ef846040516114699190611a03565b60405180910390a361147c8484846115e6565b50505050565b600073ffffffffffffffffffffffffffffffffffffffff168273ffffffffffffffffffffffffffffffffffffffff16036114f1576040517f08c379a00000000000000000000000000000000000000000000000000000000081526004016114e89061250e565b60405180910390fd5b6114fd600083836115e1565b806002600082825461150f91906120a8565b92505081905550806000808473ffffffffffffffffffffffffffffffffffffffff1673ffffffffffffffffffffffffffffffffffffffff168152602001908152602001600020600082825461156491906120a8565b925050819055508173ffffffffffffffffffffffffffffffffffffffff16600073ffffffffffffffffffffffffffffffffffffffff167fddf252ad1be2c89b69c2b068fc378daa952ba7f163c4a11628f55a4df523b3ef836040516115c99190611a03565b60405180910390a36115dd600083836115e6565b5050565b505050565b505050565b600081519050919050565b600082825260208201905092915050565b60005b8381101561162557808201518184015260208101905061160a565b83811115611634576000848401525b50505050565b6000601f19601f8301169050919050565b6000611656826115eb565b61166081856115f6565b9350611670818560208601611607565b6116798161163a565b840191505092915050565b6000602082019050818103600083015261169e818461164b565b905092915050565b6000604051905090565b600080fd5b600080fd5b600060ff82169050919050565b6116d0816116ba565b81146116db57600080fd5b50565b6000813590506116ed816116c7565b92915050565b6000819050919050565b611706816116f3565b811461171157600080fd5b50565b600081359050611723816116fd565b92915050565b600080604083850312156117405761173f6116b0565b5b600061174e858286016116de565b925050602061175f85828601611714565b9150509250929050565b600073ffffffffffffffffffffffffffffffffffffffff82169050919050565b600061179482611769565b9050919050565b6117a481611789565b81146117af57600080fd5b50565b6000813590506117c18161179b565b92915050565b600080604083850312156117de576117dd6116b0565b5b60006117ec858286016117b2565b92505060206117fd85828601611714565b9150509250929050565b60008115159050919050565b61181c81611807565b82525050565b60006020820190506118376000830184611813565b92915050565b600080fd5b7f4e487b7100000000000000000000000000000000000000000000000000000000600052604160045260246000fd5b61187a8261163a565b810181811067ffffffffffffffff8211171561189957611898611842565b5b80604052505050565b60006118ac6116a6565b90506118b88282611871565b919050565b600067ffffffffffffffff8211156118d8576118d7611842565b5b602082029050602081019050919050565b600080fd5b60006119016118fc846118bd565b6118a2565b90508083825260208201905060208402830185811115611924576119236118e9565b5b835b8181101561194d578061193988826117b2565b845260208401935050602081019050611926565b5050509392505050565b600082601f83011261196c5761196b61183d565b5b813561197c8482602086016118ee565b91505092915050565b60008060006060848603121561199e5761199d6116b0565b5b60006119ac86828701611714565b93505060206119bd868287016117b2565b925050604084013567ffffffffffffffff8111156119de576119dd6116b5565b5b6119ea86828701611957565b9150509250925092565b6119fd816116f3565b82525050565b6000602082019050611a1860008301846119f4565b92915050565b600080600060608486031215611a3757611a366116b0565b5b6000611a45868287016117b2565b9350506020611a56868287016117b2565b9250506040611a6786828701611714565b9150509250925092565b600060208284031215611a8757611a866116b0565b5b6000611a9584828501611714565b91505092915050565b611aa7816116ba565b82525050565b6000602082019050611ac26000830184611a9e565b92915050565b600067ffffffffffffffff821115611ae357611ae2611842565b5b602082029050602081019050919050565b6000611b07611b0284611ac8565b6118a2565b90508083825260208201905060208402830185811115611b2a57611b296118e9565b5b835b81811015611b535780611b3f8882611714565b845260208401935050602081019050611b2c565b5050509392505050565b600082601f830112611b7257611b7161183d565b5b8135611b82848260208601611af4565b91505092915050565b60008060008060808587031215611ba557611ba46116b0565b5b6000611bb387828801611714565b945050602085013567ffffffffffffffff811115611bd457611bd36116b5565b5b611be087828801611957565b935050604085013567ffffffffffffffff811115611c0157611c006116b5565b5b611c0d87828801611b5d565b9250506060611c1e87828801611714565b91505092959194509250565b600081519050919050565b600082825260208201905092915050565b6000819050602082019050919050565b611c5f81611789565b82525050565b6000611c718383611c56565b60208301905092915050565b6000602082019050919050565b6000611c9582611c2a565b611c9f8185611c35565b9350611caa83611c46565b8060005b83811015611cdb578151611cc28882611c65565b9750611ccd83611c7d565b925050600181019050611cae565b5085935050505092915050565b60006020820190508181036000830152611d028184611c8a565b905092915050565b600060208284031215611d2057611d1f6116b0565b5b6000611d2e848285016117b2565b91505092915050565b611d4081611789565b82525050565b6000602082019050611d5b6000830184611d37565b92915050565b600081519050919050565b600082825260208201905092915050565b6000819050602082019050919050565b611d96816116f3565b82525050565b6000611da88383611d8d565b60208301905092915050565b6000602082019050919050565b6000611dcc82611d61565b611dd68185611d6c565b9350611de183611d7d565b8060005b83811015611e12578151611df98882611d9c565b9750611e0483611db4565b925050600181019050611de5565b5085935050505092915050565b60006020820190508181036000830152611e398184611dc1565b905092915050565b60008060408385031215611e5857611e576116b0565b5b6000611e6685828601611714565b9250506020611e77858286016117b2565b9150509250929050565b60008060408385031215611e9857611e976116b0565b5b6000611ea6858286016117b2565b9250506020611eb7858286016117b2565b9150509250929050565b7f4e487b7100000000000000000000000000000000000000000000000000000000600052602260045260246000fd5b60006002820490506001821680611f0857607f821691505b602082108103611f1b57611f1a611ec1565b5b50919050565b7f2152455645525420313031000000000000000000000000000000000000000000600082015250565b6000611f57600b836115f6565b9150611f6282611f21565b602082019050919050565b60006020820190508181036000830152611f8681611f4a565b9050919050565b7f596f75206e65656420746f2073656c6c206174206c6561737420736f6d65207460008201527f6f6b656e73000000000000000000000000000000000000000000000000000000602082015250565b6000611fe96025836115f6565b9150611ff482611f8d565b604082019050919050565b6000602082019050818103600083015261201881611fdc565b9050919050565b7f4e487b7100000000000000000000000000000000000000000000000000000000600052601160045260246000fd5b6000612059826116f3565b9150612064836116f3565b9250817fffffffffffffffffffffffffffffffffffffffffffffffffffffffffffffffff048311821515161561209d5761209c61201f565b5b828202905092915050565b60006120b3826116f3565b91506120be836116f3565b9250827fffffffffffffffffffffffffffffffffffffffffffffffffffffffffffffffff038211156120f3576120f261201f565b5b828201905092915050565b7f4e487b7100000000000000000000000000000000000000000000000000000000600052603260045260246000fd5b6000612138826116ba565b915060ff820361214b5761214a61201f565b5b600182019050919050565b7f45524332303a2064656372656173656420616c6c6f77616e63652062656c6f7760008201527f207a65726f000000000000000000000000000000000000000000000000000000602082015250565b60006121b26025836115f6565b91506121bd82612156565b604082019050919050565b600060208201905081810360008301526121e1816121a5565b9050919050565b7f45524332303a20617070726f76652066726f6d20746865207a65726f2061646460008201527f7265737300000000000000000000000000000000000000000000000000000000602082015250565b60006122446024836115f6565b915061224f826121e8565b604082019050919050565b6000602082019050818103600083015261227381612237565b9050919050565b7f45524332303a20617070726f766520746f20746865207a65726f20616464726560008201527f7373000000000000000000000000000000000000000000000000000000000000602082015250565b60006122d66022836115f6565b91506122e18261227a565b604082019050919050565b60006020820190508181036000830152612305816122c9565b9050919050565b7f45524332303a207472616e736665722066726f6d20746865207a65726f20616460008201527f6472657373000000000000000000000000000000000000000000000000000000602082015250565b60006123686025836115f6565b91506123738261230c565b604082019050919050565b600060208201905081810360008301526123978161235b565b9050919050565b7f45524332303a207472616e7366657220746f20746865207a65726f206164647260008201527f6573730000000000000000000000000000000000000000000000000000000000602082015250565b60006123fa6023836115f6565b91506124058261239e565b604082019050919050565b60006020820190508181036000830152612429816123ed565b9050919050565b7f45524332303a207472616e7366657220616d6f756e742065786365656473206260008201527f616c616e63650000000000000000000000000000000000000000000000000000602082015250565b600061248c6026836115f6565b915061249782612430565b604082019050919050565b600060208201905081810360008301526124bb8161247f565b9050919050565b7f45524332303a206d696e7420746f20746865207a65726f206164647265737300600082015250565b60006124f8601f836115f6565b9150612503826124c2565b602082019050919050565b60006020820190508181036000830152612527816124eb565b905091905056fea2646970667358221220b1f5797b469fd8b87dbc4f207e3564757d08265700e7fcbc0d55fea3b47a89e764736f6c634300080d0033",
  "immutableReferences": {},
  "source": "// SPDX-License-Identifier: MIT\npragma solidity ^0.8.3;\n\nimport './SeverStore.sol';\n\ncontract CoinDispencer is SeverStore{\n    struct userCharge{\n        uint price;\n        uint8 point;\n    }\n    string connecTecs = \"farewell\";\n    \n    mapping(address => userCharge) purchase;\n\n    modifier fee(uint _fee) {\n        if (msg.value != _fee) {\n            revert(\"!REVERT 101\");\n        } else {\n            _;\n        }\n    }\n\n    function sellTokn(uint _toknAmount) external{\n        require(_toknAmount > 0, \"You need to sell at least some tokens\");\n        allowance(msg.sender, address(this));\n        transferFrom(msg.sender, address(this), _toknAmount);\n        payable(msg.sender).transfer(_toknAmount*100);\n    }\n\n    function changePoint(uint8 _requirePoint, uint _calcedPirec) external\n    payable\n    fee(_calcedPirec){\n        purchase[msg.sender].point = _requirePoint;\n        purchase[msg.sender].price = _calcedPirec;\n        //trx(purchase[msg.sender].price);\n    }\n    function ca_ethBal() public view returns(uint){\n        return address(this).balance;\n    }\n    function userPoint() public view returns(uint){\n        return purchase[msg.sender].point;\n    }\n    function connection() public view returns(string memory){\n        return connecTecs;\n    }\n}",
  "sourcePath": "/home/giparang/threadweb/pogre/trufflebox/contracts/CoinDispencer.sol",
  "compiler": {
    "name": "solc",
    "version": "0.8.13+commit.abaa5c0e.Emscripten.clang"
  },
  "schemaVersion": "3.4.6",
  "updatedAt": "2022-03-29T06:30:18.004Z",
  "networkType": "ethereum",
  "devdoc": {
    "kind": "dev",
    "methods": {
      "allowance(address,address)": {
        "details": "See {IERC20-allowance}."
      },
      "approve(address,uint256)": {
        "details": "See {IERC20-approve}. Requirements: - `spender` cannot be the zero address."
      },
      "balanceOf(address)": {
        "details": "See {IERC20-balanceOf}."
      },
      "decimals()": {
        "details": "Returns the number of decimals used to get its user representation. For example, if `decimals` equals `2`, a balance of `505` tokens should be displayed to a user as `5.05` (`505 / 10 ** 2`). Tokens usually opt for a value of 18, imitating the relationship between Ether and Wei. This is the value {ERC20} uses, unless this function is overridden; NOTE: This information is only used for _display_ purposes: it in no way affects any of the arithmetic of the contract, including {IERC20-balanceOf} and {IERC20-transfer}."
      },
      "decreaseAllowance(address,uint256)": {
        "details": "Atomically decreases the allowance granted to `spender` by the caller. This is an alternative to {approve} that can be used as a mitigation for problems described in {IERC20-approve}. Emits an {Approval} event indicating the updated allowance. Requirements: - `spender` cannot be the zero address. - `spender` must have allowance for the caller of at least `subtractedValue`."
      },
      "increaseAllowance(address,uint256)": {
        "details": "Atomically increases the allowance granted to `spender` by the caller. This is an alternative to {approve} that can be used as a mitigation for problems described in {IERC20-approve}. Emits an {Approval} event indicating the updated allowance. Requirements: - `spender` cannot be the zero address."
      },
      "name()": {
        "details": "Returns the name of the token."
      },
      "symbol()": {
        "details": "Returns the symbol of the token, usually a shorter version of the name."
      },
      "totalSupply()": {
        "details": "See {IERC20-totalSupply}."
      },
      "transfer(address,uint256)": {
        "details": "See {IERC20-transfer}. Requirements: - `recipient` cannot be the zero address. - the caller must have a balance of at least `amount`."
      },
      "transferFrom(address,address,uint256)": {
        "details": "See {IERC20-transferFrom}. Emits an {Approval} event indicating the updated allowance. This is not required by the EIP. See the note at the beginning of {ERC20}. Requirements: - `sender` and `recipient` cannot be the zero address. - `sender` must have a balance of at least `amount`. - the caller must have allowance for ``sender``'s tokens of at least `amount`."
      }
    },
    "version": 1
  },
  "userdoc": {
    "kind": "user",
    "methods": {},
    "version": 1
  }
}