{
  "contractName": "CoinDispencer",
  "abi": [
    {
      "anonymous": false,
      "inputs": [
        {
          "indexed": true,
          "internalType": "address",
          "name": "owner",
          "type": "address"
        },
        {
          "indexed": true,
          "internalType": "address",
          "name": "spender",
          "type": "address"
        },
        {
          "indexed": false,
          "internalType": "uint256",
          "name": "value",
          "type": "uint256"
        }
      ],
      "name": "Approval",
      "type": "event"
    },
    {
      "anonymous": false,
      "inputs": [
        {
          "indexed": true,
          "internalType": "address",
          "name": "from",
          "type": "address"
        },
        {
          "indexed": true,
          "internalType": "address",
          "name": "to",
          "type": "address"
        },
        {
          "indexed": false,
          "internalType": "uint256",
          "name": "value",
          "type": "uint256"
        }
      ],
      "name": "Transfer",
      "type": "event"
    },
    {
      "inputs": [
        {
          "internalType": "address",
          "name": "owner",
          "type": "address"
        },
        {
          "internalType": "address",
          "name": "spender",
          "type": "address"
        }
      ],
      "name": "allowance",
      "outputs": [
        {
          "internalType": "uint256",
          "name": "",
          "type": "uint256"
        }
      ],
      "stateMutability": "view",
      "type": "function",
      "constant": true
    },
    {
      "inputs": [
        {
          "internalType": "address",
          "name": "spender",
          "type": "address"
        },
        {
          "internalType": "uint256",
          "name": "amount",
          "type": "uint256"
        }
      ],
      "name": "approve",
      "outputs": [
        {
          "internalType": "bool",
          "name": "",
          "type": "bool"
        }
      ],
      "stateMutability": "nonpayable",
      "type": "function"
    },
    {
      "inputs": [
        {
          "internalType": "address",
          "name": "account",
          "type": "address"
        }
      ],
      "name": "balanceOf",
      "outputs": [
        {
          "internalType": "uint256",
          "name": "",
          "type": "uint256"
        }
      ],
      "stateMutability": "view",
      "type": "function",
      "constant": true
    },
    {
      "inputs": [],
      "name": "decimals",
      "outputs": [
        {
          "internalType": "uint8",
          "name": "",
          "type": "uint8"
        }
      ],
      "stateMutability": "view",
      "type": "function",
      "constant": true
    },
    {
      "inputs": [
        {
          "internalType": "address",
          "name": "spender",
          "type": "address"
        },
        {
          "internalType": "uint256",
          "name": "subtractedValue",
          "type": "uint256"
        }
      ],
      "name": "decreaseAllowance",
      "outputs": [
        {
          "internalType": "bool",
          "name": "",
          "type": "bool"
        }
      ],
      "stateMutability": "nonpayable",
      "type": "function"
    },
    {
      "inputs": [
        {
          "internalType": "uint256",
          "name": "_team",
          "type": "uint256"
        }
      ],
      "name": "getOwner",
      "outputs": [
        {
          "internalType": "address",
          "name": "",
          "type": "address"
        }
      ],
      "stateMutability": "view",
      "type": "function",
      "constant": true
    },
    {
      "inputs": [
        {
          "internalType": "uint256",
          "name": "_team",
          "type": "uint256"
        }
      ],
      "name": "getPrice",
      "outputs": [
        {
          "internalType": "uint256",
          "name": "",
          "type": "uint256"
        }
      ],
      "stateMutability": "view",
      "type": "function",
      "constant": true
    },
    {
      "inputs": [
        {
          "internalType": "uint256",
          "name": "_team",
          "type": "uint256"
        }
      ],
      "name": "getPtcp",
      "outputs": [
        {
          "internalType": "address[]",
          "name": "",
          "type": "address[]"
        }
      ],
      "stateMutability": "view",
      "type": "function",
      "constant": true
    },
    {
      "inputs": [
        {
          "internalType": "uint256",
          "name": "_team",
          "type": "uint256"
        }
      ],
      "name": "getStake",
      "outputs": [
        {
          "internalType": "uint256[]",
          "name": "",
          "type": "uint256[]"
        }
      ],
      "stateMutability": "view",
      "type": "function",
      "constant": true
    },
    {
      "inputs": [
        {
          "internalType": "address",
          "name": "spender",
          "type": "address"
        },
        {
          "internalType": "uint256",
          "name": "addedValue",
          "type": "uint256"
        }
      ],
      "name": "increaseAllowance",
      "outputs": [
        {
          "internalType": "bool",
          "name": "",
          "type": "bool"
        }
      ],
      "stateMutability": "nonpayable",
      "type": "function"
    },
    {
      "inputs": [],
      "name": "name",
      "outputs": [
        {
          "internalType": "string",
          "name": "",
          "type": "string"
        }
      ],
      "stateMutability": "view",
      "type": "function",
      "constant": true
    },
    {
      "inputs": [
        {
          "internalType": "uint256",
          "name": "_team",
          "type": "uint256"
        },
        {
          "internalType": "address",
          "name": "_buyer",
          "type": "address"
        },
        {
          "internalType": "address[]",
          "name": "_ptcp",
          "type": "address[]"
        }
      ],
      "name": "purchase",
      "outputs": [],
      "stateMutability": "nonpayable",
      "type": "function"
    },
    {
      "inputs": [
        {
          "internalType": "uint256",
          "name": "_team",
          "type": "uint256"
        },
        {
          "internalType": "address[]",
          "name": "_ptcp",
          "type": "address[]"
        },
        {
          "internalType": "uint256[]",
          "name": "_stake",
          "type": "uint256[]"
        },
        {
          "internalType": "uint256",
          "name": "_price",
          "type": "uint256"
        }
      ],
      "name": "putBlock",
      "outputs": [],
      "stateMutability": "nonpayable",
      "type": "function"
    },
    {
      "inputs": [
        {
          "internalType": "uint256",
          "name": "_value",
          "type": "uint256"
        },
        {
          "internalType": "address",
          "name": "_editor",
          "type": "address"
        }
      ],
      "name": "retrieve",
      "outputs": [],
      "stateMutability": "nonpayable",
      "type": "function"
    },
    {
      "inputs": [],
      "name": "symbol",
      "outputs": [
        {
          "internalType": "string",
          "name": "",
          "type": "string"
        }
      ],
      "stateMutability": "view",
      "type": "function",
      "constant": true
    },
    {
      "inputs": [],
      "name": "totalSupply",
      "outputs": [
        {
          "internalType": "uint256",
          "name": "",
          "type": "uint256"
        }
      ],
      "stateMutability": "view",
      "type": "function",
      "constant": true
    },
    {
      "inputs": [
        {
          "internalType": "address",
          "name": "recipient",
          "type": "address"
        },
        {
          "internalType": "uint256",
          "name": "amount",
          "type": "uint256"
        }
      ],
      "name": "transfer",
      "outputs": [
        {
          "internalType": "bool",
          "name": "",
          "type": "bool"
        }
      ],
      "stateMutability": "nonpayable",
      "type": "function"
    },
    {
      "inputs": [
        {
          "internalType": "address",
          "name": "sender",
          "type": "address"
        },
        {
          "internalType": "address",
          "name": "recipient",
          "type": "address"
        },
        {
          "internalType": "uint256",
          "name": "amount",
          "type": "uint256"
        }
      ],
      "name": "transferFrom",
      "outputs": [
        {
          "internalType": "bool",
          "name": "",
          "type": "bool"
        }
      ],
      "stateMutability": "nonpayable",
      "type": "function"
    },
    {
      "inputs": [
        {
          "internalType": "uint256",
          "name": "_toknAmount",
          "type": "uint256"
        }
      ],
      "name": "sellTokn",
      "outputs": [],
      "stateMutability": "nonpayable",
      "type": "function"
    },
    {
      "inputs": [
        {
          "internalType": "uint256",
          "name": "_requireRED",
          "type": "uint256"
        },
        {
          "internalType": "uint256",
          "name": "_calcedPirec",
          "type": "uint256"
        }
      ],
      "name": "changePoint",
      "outputs": [],
      "stateMutability": "payable",
      "type": "function",
      "payable": true
    },
    {
      "inputs": [],
      "name": "ca_ethBal",
      "outputs": [
        {
          "internalType": "uint256",
          "name": "",
          "type": "uint256"
        }
      ],
      "stateMutability": "view",
      "type": "function",
      "constant": true
    },
    {
      "inputs": [],
      "name": "userPoint",
      "outputs": [
        {
          "internalType": "uint256",
          "name": "",
          "type": "uint256"
        }
      ],
      "stateMutability": "view",
      "type": "function",
      "constant": true
    },
    {
      "inputs": [],
      "name": "connection",
      "outputs": [
        {
          "internalType": "string",
          "name": "",
          "type": "string"
        }
      ],
      "stateMutability": "view",
      "type": "function",
      "constant": true
    }
  ],
  "bytecode": "0x608060405260006006556040518060400160405280601581526020017f636f6e6e656374696f6e2d72696768745f6964656100000000000000000000008152506007908051906020019062000056929190620002a9565b503480156200006457600080fd5b506040518060400160405280600681526020017f54687265616400000000000000000000000000000000000000000000000000008152506040518060400160405280600481526020017f54485265000000000000000000000000000000000000000000000000000000008152508160039080519060200190620000e9929190620002a9565b50806004908051906020019062000102929190620002a9565b505050620001213069021e19e0c9bab24000006200012760201b60201c565b62000504565b600073ffffffffffffffffffffffffffffffffffffffff168273ffffffffffffffffffffffffffffffffffffffff160362000199576040517f08c379a00000000000000000000000000000000000000000000000000000000081526004016200019090620003ba565b60405180910390fd5b620001ad600083836200029f60201b60201c565b8060026000828254620001c1919062000415565b92505081905550806000808473ffffffffffffffffffffffffffffffffffffffff1673ffffffffffffffffffffffffffffffffffffffff168152602001908152602001600020600082825462000218919062000415565b925050819055508173ffffffffffffffffffffffffffffffffffffffff16600073ffffffffffffffffffffffffffffffffffffffff167fddf252ad1be2c89b69c2b068fc378daa952ba7f163c4a11628f55a4df523b3ef836040516200027f919062000483565b60405180910390a36200029b60008383620002a460201b60201c565b5050565b505050565b505050565b828054620002b790620004cf565b90600052602060002090601f016020900481019282620002db576000855562000327565b82601f10620002f657805160ff191683800117855562000327565b8280016001018555821562000327579182015b828111156200032657825182559160200191906001019062000309565b5b5090506200033691906200033a565b5090565b5b80821115620003555760008160009055506001016200033b565b5090565b600082825260208201905092915050565b7f45524332303a206d696e7420746f20746865207a65726f206164647265737300600082015250565b6000620003a2601f8362000359565b9150620003af826200036a565b602082019050919050565b60006020820190508181036000830152620003d58162000393565b9050919050565b6000819050919050565b7f4e487b7100000000000000000000000000000000000000000000000000000000600052601160045260246000fd5b60006200042282620003dc565b91506200042f83620003dc565b9250827fffffffffffffffffffffffffffffffffffffffffffffffffffffffffffffffff03821115620004675762000466620003e6565b5b828201905092915050565b6200047d81620003dc565b82525050565b60006020820190506200049a600083018462000472565b92915050565b7f4e487b7100000000000000000000000000000000000000000000000000000000600052602260045260246000fd5b60006002820490506001821680620004e857607f821691505b602082108103620004fe57620004fd620004a0565b5b50919050565b6124b980620005146000396000f3fe6080604052600436106101405760003560e01c806395d89b41116100b6578063ce325bf81161006f578063ce325bf8146104aa578063d00d443d146104e7578063d20f7f2614610503578063dd62ed3e1461052c578063e757223014610569578063fd19016c146105a657610140565b806395d89b4114610372578063a457c2d71461039d578063a9059cbb146103da578063b364fa0014610417578063c41a360a14610442578063cca2d9661461047f57610140565b806325e765601161010857806325e765601461023e578063313ce56714610267578063395093511461029257806344133b3c146102cf57806350ab647e146102f857806370a082311461033557610140565b806306fdde0314610145578063095ea7b314610170578063115e85f2146101ad57806318160ddd146101d657806323b872dd14610201575b600080fd5b34801561015157600080fd5b5061015a6105d1565b6040516101679190611605565b60405180910390f35b34801561017c57600080fd5b50610197600480360381019061019291906116cf565b610663565b6040516101a4919061172a565b60405180910390f35b3480156101b957600080fd5b506101d460048036038101906101cf919061188d565b610681565b005b3480156101e257600080fd5b506101eb6106e5565b6040516101f8919061190b565b60405180910390f35b34801561020d57600080fd5b5061022860048036038101906102239190611926565b6106ef565b604051610235919061172a565b60405180910390f35b34801561024a57600080fd5b5061026560048036038101906102609190611979565b610707565b005b34801561027357600080fd5b5061027c6107b7565b60405161028991906119c2565b60405180910390f35b34801561029e57600080fd5b506102b960048036038101906102b491906116cf565b6107c0565b6040516102c6919061172a565b60405180910390f35b3480156102db57600080fd5b506102f660048036038101906102f19190611aa0565b61086c565b005b34801561030457600080fd5b5061031f600480360381019061031a9190611979565b61099b565b60405161032c9190611bfd565b60405180910390f35b34801561034157600080fd5b5061035c60048036038101906103579190611c1f565b610a3f565b604051610369919061190b565b60405180910390f35b34801561037e57600080fd5b50610387610a87565b6040516103949190611605565b60405180910390f35b3480156103a957600080fd5b506103c460048036038101906103bf91906116cf565b610b19565b6040516103d1919061172a565b60405180910390f35b3480156103e657600080fd5b5061040160048036038101906103fc91906116cf565b610c04565b60405161040e919061172a565b60405180910390f35b34801561042357600080fd5b5061042c610c22565b604051610439919061190b565b60405180910390f35b34801561044e57600080fd5b5061046960048036038101906104649190611979565b610c7c565b6040516104769190611c5b565b60405180910390f35b34801561048b57600080fd5b50610494610cbc565b6040516104a1919061190b565b60405180910390f35b3480156104b657600080fd5b506104d160048036038101906104cc9190611979565b610cc4565b6040516104de9190611d34565b60405180910390f35b61050160048036038101906104fc9190611d56565b610d32565b005b34801561050f57600080fd5b5061052a60048036038101906105259190611d96565b610d9d565b005b34801561053857600080fd5b50610553600480360381019061054e9190611dd6565b610de8565b604051610560919061190b565b60405180910390f35b34801561057557600080fd5b50610590600480360381019061058b9190611979565b610e6f565b60405161059d919061190b565b60405180910390f35b3480156105b257600080fd5b506105bb610e8f565b6040516105c89190611605565b60405180910390f35b6060600380546105e090611e45565b80601f016020809104026020016040519081016040528092919081815260200182805461060c90611e45565b80156106595780601f1061062e57610100808354040283529160200191610659565b820191906000526020600020905b81548152906001019060200180831161063c57829003601f168201915b5050505050905090565b6000610677610670610f21565b8484610f29565b6001905092915050565b816005600085815260200190815260200160002060020160006101000a81548173ffffffffffffffffffffffffffffffffffffffff021916908373ffffffffffffffffffffffffffffffffffffffff1602179055506106e083826110f2565b505050565b6000600254905090565b60006106fc848484611184565b600190509392505050565b6000811161074a576040517f08c379a000000000000000000000000000000000000000000000000000000000815260040161074190611ee8565b60405180910390fd5b6107543330610de8565b506107603330836106ef565b503373ffffffffffffffffffffffffffffffffffffffff166108fc6064836107889190611f37565b9081150290604051600060405180830381858888f193505050501580156107b3573d6000803e3d6000fd5b5050565b60006012905090565b60006108626107cd610f21565b8484600160006107db610f21565b73ffffffffffffffffffffffffffffffffffffffff1673ffffffffffffffffffffffffffffffffffffffff16815260200190815260200160002060008873ffffffffffffffffffffffffffffffffffffffff1673ffffffffffffffffffffffffffffffffffffffff1681526020019081526020016000205461085d9190611f91565b610f29565b6001905092915050565b60005b83518160ff16146109795760056000868152602001908152602001600020600101848260ff16815181106108a6576108a5611fe7565b5b60200260200101519080600181540180825580915050600190039060005260206000200160009091909190916101000a81548173ffffffffffffffffffffffffffffffffffffffff021916908373ffffffffffffffffffffffffffffffffffffffff16021790555060056000868152602001908152602001600020600301838260ff168151811061093a57610939611fe7565b5b602002602001015190806001815401808255809150506001900390600052602060002001600090919091909150558061097290612016565b905061086f565b8160056000878152602001908152602001600020600401819055505050505050565b606060056000838152602001908152602001600020600101805480602002602001604051908101604052809291908181526020018280548015610a3357602002820191906000526020600020905b8160009054906101000a900473ffffffffffffffffffffffffffffffffffffffff1673ffffffffffffffffffffffffffffffffffffffff16815260200190600101908083116109e9575b50505050509050919050565b60008060008373ffffffffffffffffffffffffffffffffffffffff1673ffffffffffffffffffffffffffffffffffffffff168152602001908152602001600020549050919050565b606060048054610a9690611e45565b80601f0160208091040260200160405190810160405280929190818152602001828054610ac290611e45565b8015610b0f5780601f10610ae457610100808354040283529160200191610b0f565b820191906000526020600020905b815481529060010190602001808311610af257829003601f168201915b5050505050905090565b60008060016000610b28610f21565b73ffffffffffffffffffffffffffffffffffffffff1673ffffffffffffffffffffffffffffffffffffffff16815260200190815260200160002060008573ffffffffffffffffffffffffffffffffffffffff1673ffffffffffffffffffffffffffffffffffffffff16815260200190815260200160002054905082811015610be5576040517f08c379a0000000000000000000000000000000000000000000000000000000008152600401610bdc906120b1565b60405180910390fd5b610bf9610bf0610f21565b85858403610f29565b600191505092915050565b6000610c18610c11610f21565b8484611184565b6001905092915050565b6000600860003373ffffffffffffffffffffffffffffffffffffffff1673ffffffffffffffffffffffffffffffffffffffff16815260200190815260200160002060010160009054906101000a900460ff1660ff16905090565b60006005600083815260200190815260200160002060020160009054906101000a900473ffffffffffffffffffffffffffffffffffffffff169050919050565b600047905090565b606060056000838152602001908152602001600020600301805480602002602001604051908101604052809291908181526020018280548015610d2657602002820191906000526020600020905b815481526020019060010190808311610d12575b50505050509050919050565b80803414610d75576040517f08c379a0000000000000000000000000000000000000000000000000000000008152600401610d6c9061211d565b60405180910390fd5b6000655af3107a400084610d899190611f37565b9050610d963033836106ef565b5050505050565b610db9818366038d7ea4c68000610db49190611f37565b611403565b8166038d7ea4c68000610dcc9190611f37565b60066000828254610ddd9190611f91565b925050819055505050565b6000600160008473ffffffffffffffffffffffffffffffffffffffff1673ffffffffffffffffffffffffffffffffffffffff16815260200190815260200160002060008373ffffffffffffffffffffffffffffffffffffffff1673ffffffffffffffffffffffffffffffffffffffff16815260200190815260200160002054905092915050565b600060056000838152602001908152602001600020600401549050919050565b606060078054610e9e90611e45565b80601f0160208091040260200160405190810160405280929190818152602001828054610eca90611e45565b8015610f175780601f10610eec57610100808354040283529160200191610f17565b820191906000526020600020905b815481529060010190602001808311610efa57829003601f168201915b5050505050905090565b600033905090565b600073ffffffffffffffffffffffffffffffffffffffff168373ffffffffffffffffffffffffffffffffffffffff1603610f98576040517f08c379a0000000000000000000000000000000000000000000000000000000008152600401610f8f906121af565b60405180910390fd5b600073ffffffffffffffffffffffffffffffffffffffff168273ffffffffffffffffffffffffffffffffffffffff1603611007576040517f08c379a0000000000000000000000000000000000000000000000000000000008152600401610ffe90612241565b60405180910390fd5b80600160008573ffffffffffffffffffffffffffffffffffffffff1673ffffffffffffffffffffffffffffffffffffffff16815260200190815260200160002060008473ffffffffffffffffffffffffffffffffffffffff1673ffffffffffffffffffffffffffffffffffffffff168152602001908152602001600020819055508173ffffffffffffffffffffffffffffffffffffffff168373ffffffffffffffffffffffffffffffffffffffff167f8c5be1e5ebec7d5bd14f71427d1e84f3dd0314c0f7b2291e5b200ac8c7c3b925836040516110e5919061190b565b60405180910390a3505050565b60005b81518160ff161461117f5761116e828260ff168151811061111957611118611fe7565b5b6020026020010151600560008681526020019081526020016000206003018360ff168154811061114c5761114b611fe7565b5b906000526020600020015466038d7ea4c680006111699190611f37565b611403565b8061117890612016565b90506110f5565b505050565b600073ffffffffffffffffffffffffffffffffffffffff168373ffffffffffffffffffffffffffffffffffffffff16036111f3576040517f08c379a00000000000000000000000000000000000000000000000000000000081526004016111ea906122d3565b60405180910390fd5b600073ffffffffffffffffffffffffffffffffffffffff168273ffffffffffffffffffffffffffffffffffffffff1603611262576040517f08c379a000000000000000000000000000000000000000000000000000000000815260040161125990612365565b60405180910390fd5b61126d838383611562565b60008060008573ffffffffffffffffffffffffffffffffffffffff1673ffffffffffffffffffffffffffffffffffffffff168152602001908152602001600020549050818110156112f3576040517f08c379a00000000000000000000000000000000000000000000000000000000081526004016112ea906123f7565b60405180910390fd5b8181036000808673ffffffffffffffffffffffffffffffffffffffff1673ffffffffffffffffffffffffffffffffffffffff16815260200190815260200160002081905550816000808573ffffffffffffffffffffffffffffffffffffffff1673ffffffffffffffffffffffffffffffffffffffff16815260200190815260200160002060008282546113869190611f91565b925050819055508273ffffffffffffffffffffffffffffffffffffffff168473ffffffffffffffffffffffffffffffffffffffff167fddf252ad1be2c89b69c2b068fc378daa952ba7f163c4a11628f55a4df523b3ef846040516113ea919061190b565b60405180910390a36113fd848484611567565b50505050565b600073ffffffffffffffffffffffffffffffffffffffff168273ffffffffffffffffffffffffffffffffffffffff1603611472576040517f08c379a000000000000000000000000000000000000000000000000000000000815260040161146990612463565b60405180910390fd5b61147e60008383611562565b80600260008282546114909190611f91565b92505081905550806000808473ffffffffffffffffffffffffffffffffffffffff1673ffffffffffffffffffffffffffffffffffffffff16815260200190815260200160002060008282546114e59190611f91565b925050819055508173ffffffffffffffffffffffffffffffffffffffff16600073ffffffffffffffffffffffffffffffffffffffff167fddf252ad1be2c89b69c2b068fc378daa952ba7f163c4a11628f55a4df523b3ef8360405161154a919061190b565b60405180910390a361155e60008383611567565b5050565b505050565b505050565b600081519050919050565b600082825260208201905092915050565b60005b838110156115a657808201518184015260208101905061158b565b838111156115b5576000848401525b50505050565b6000601f19601f8301169050919050565b60006115d78261156c565b6115e18185611577565b93506115f1818560208601611588565b6115fa816115bb565b840191505092915050565b6000602082019050818103600083015261161f81846115cc565b905092915050565b6000604051905090565b600080fd5b600080fd5b600073ffffffffffffffffffffffffffffffffffffffff82169050919050565b60006116668261163b565b9050919050565b6116768161165b565b811461168157600080fd5b50565b6000813590506116938161166d565b92915050565b6000819050919050565b6116ac81611699565b81146116b757600080fd5b50565b6000813590506116c9816116a3565b92915050565b600080604083850312156116e6576116e5611631565b5b60006116f485828601611684565b9250506020611705858286016116ba565b9150509250929050565b60008115159050919050565b6117248161170f565b82525050565b600060208201905061173f600083018461171b565b92915050565b600080fd5b7f4e487b7100000000000000000000000000000000000000000000000000000000600052604160045260246000fd5b611782826115bb565b810181811067ffffffffffffffff821117156117a1576117a061174a565b5b80604052505050565b60006117b4611627565b90506117c08282611779565b919050565b600067ffffffffffffffff8211156117e0576117df61174a565b5b602082029050602081019050919050565b600080fd5b6000611809611804846117c5565b6117aa565b9050808382526020820190506020840283018581111561182c5761182b6117f1565b5b835b8181101561185557806118418882611684565b84526020840193505060208101905061182e565b5050509392505050565b600082601f83011261187457611873611745565b5b81356118848482602086016117f6565b91505092915050565b6000806000606084860312156118a6576118a5611631565b5b60006118b4868287016116ba565b93505060206118c586828701611684565b925050604084013567ffffffffffffffff8111156118e6576118e5611636565b5b6118f28682870161185f565b9150509250925092565b61190581611699565b82525050565b600060208201905061192060008301846118fc565b92915050565b60008060006060848603121561193f5761193e611631565b5b600061194d86828701611684565b935050602061195e86828701611684565b925050604061196f868287016116ba565b9150509250925092565b60006020828403121561198f5761198e611631565b5b600061199d848285016116ba565b91505092915050565b600060ff82169050919050565b6119bc816119a6565b82525050565b60006020820190506119d760008301846119b3565b92915050565b600067ffffffffffffffff8211156119f8576119f761174a565b5b602082029050602081019050919050565b6000611a1c611a17846119dd565b6117aa565b90508083825260208201905060208402830185811115611a3f57611a3e6117f1565b5b835b81811015611a685780611a5488826116ba565b845260208401935050602081019050611a41565b5050509392505050565b600082601f830112611a8757611a86611745565b5b8135611a97848260208601611a09565b91505092915050565b60008060008060808587031215611aba57611ab9611631565b5b6000611ac8878288016116ba565b945050602085013567ffffffffffffffff811115611ae957611ae8611636565b5b611af58782880161185f565b935050604085013567ffffffffffffffff811115611b1657611b15611636565b5b611b2287828801611a72565b9250506060611b33878288016116ba565b91505092959194509250565b600081519050919050565b600082825260208201905092915050565b6000819050602082019050919050565b611b748161165b565b82525050565b6000611b868383611b6b565b60208301905092915050565b6000602082019050919050565b6000611baa82611b3f565b611bb48185611b4a565b9350611bbf83611b5b565b8060005b83811015611bf0578151611bd78882611b7a565b9750611be283611b92565b925050600181019050611bc3565b5085935050505092915050565b60006020820190508181036000830152611c178184611b9f565b905092915050565b600060208284031215611c3557611c34611631565b5b6000611c4384828501611684565b91505092915050565b611c558161165b565b82525050565b6000602082019050611c706000830184611c4c565b92915050565b600081519050919050565b600082825260208201905092915050565b6000819050602082019050919050565b611cab81611699565b82525050565b6000611cbd8383611ca2565b60208301905092915050565b6000602082019050919050565b6000611ce182611c76565b611ceb8185611c81565b9350611cf683611c92565b8060005b83811015611d27578151611d0e8882611cb1565b9750611d1983611cc9565b925050600181019050611cfa565b5085935050505092915050565b60006020820190508181036000830152611d4e8184611cd6565b905092915050565b60008060408385031215611d6d57611d6c611631565b5b6000611d7b858286016116ba565b9250506020611d8c858286016116ba565b9150509250929050565b60008060408385031215611dad57611dac611631565b5b6000611dbb858286016116ba565b9250506020611dcc85828601611684565b9150509250929050565b60008060408385031215611ded57611dec611631565b5b6000611dfb85828601611684565b9250506020611e0c85828601611684565b9150509250929050565b7f4e487b7100000000000000000000000000000000000000000000000000000000600052602260045260246000fd5b60006002820490506001821680611e5d57607f821691505b602082108103611e7057611e6f611e16565b5b50919050565b7f596f75206e65656420746f2073656c6c206174206c6561737420736f6d65207460008201527f6f6b656e73000000000000000000000000000000000000000000000000000000602082015250565b6000611ed2602583611577565b9150611edd82611e76565b604082019050919050565b60006020820190508181036000830152611f0181611ec5565b9050919050565b7f4e487b7100000000000000000000000000000000000000000000000000000000600052601160045260246000fd5b6000611f4282611699565b9150611f4d83611699565b9250817fffffffffffffffffffffffffffffffffffffffffffffffffffffffffffffffff0483118215151615611f8657611f85611f08565b5b828202905092915050565b6000611f9c82611699565b9150611fa783611699565b9250827fffffffffffffffffffffffffffffffffffffffffffffffffffffffffffffffff03821115611fdc57611fdb611f08565b5b828201905092915050565b7f4e487b7100000000000000000000000000000000000000000000000000000000600052603260045260246000fd5b6000612021826119a6565b915060ff820361203457612033611f08565b5b600182019050919050565b7f45524332303a2064656372656173656420616c6c6f77616e63652062656c6f7760008201527f207a65726f000000000000000000000000000000000000000000000000000000602082015250565b600061209b602583611577565b91506120a68261203f565b604082019050919050565b600060208201905081810360008301526120ca8161208e565b9050919050565b7f2152455645525420313031000000000000000000000000000000000000000000600082015250565b6000612107600b83611577565b9150612112826120d1565b602082019050919050565b60006020820190508181036000830152612136816120fa565b9050919050565b7f45524332303a20617070726f76652066726f6d20746865207a65726f2061646460008201527f7265737300000000000000000000000000000000000000000000000000000000602082015250565b6000612199602483611577565b91506121a48261213d565b604082019050919050565b600060208201905081810360008301526121c88161218c565b9050919050565b7f45524332303a20617070726f766520746f20746865207a65726f20616464726560008201527f7373000000000000000000000000000000000000000000000000000000000000602082015250565b600061222b602283611577565b9150612236826121cf565b604082019050919050565b6000602082019050818103600083015261225a8161221e565b9050919050565b7f45524332303a207472616e736665722066726f6d20746865207a65726f20616460008201527f6472657373000000000000000000000000000000000000000000000000000000602082015250565b60006122bd602583611577565b91506122c882612261565b604082019050919050565b600060208201905081810360008301526122ec816122b0565b9050919050565b7f45524332303a207472616e7366657220746f20746865207a65726f206164647260008201527f6573730000000000000000000000000000000000000000000000000000000000602082015250565b600061234f602383611577565b915061235a826122f3565b604082019050919050565b6000602082019050818103600083015261237e81612342565b9050919050565b7f45524332303a207472616e7366657220616d6f756e742065786365656473206260008201527f616c616e63650000000000000000000000000000000000000000000000000000602082015250565b60006123e1602683611577565b91506123ec82612385565b604082019050919050565b60006020820190508181036000830152612410816123d4565b9050919050565b7f45524332303a206d696e7420746f20746865207a65726f206164647265737300600082015250565b600061244d601f83611577565b915061245882612417565b602082019050919050565b6000602082019050818103600083015261247c81612440565b905091905056fea264697066735822122097c2393d91e9e5ddb8cdb57753764b90ac547dc7ed07be6a0dcd4390b2cbd73664736f6c634300080d0033",
  "immutableReferences": {},
  "source": "// SPDX-License-Identifier: MIT\npragma solidity ^0.8.3;\n\nimport './SeverStore.sol';\n\ncontract CoinDispencer is SeverStore{\n    struct userCharge{\n        uint price;\n        uint8 point;\n    }\n    string connecTecs = \"connection-right_idea\";\n    \n    mapping(address => userCharge) purchase;\n\n    modifier fee(uint _fee) {\n        if (msg.value != _fee) {\n            revert(\"!REVERT 101\");\n        } else {\n            _;\n        }\n    }\n\n    function sellTokn(uint _toknAmount) external{\n        require(_toknAmount > 0, \"You need to sell at least some tokens\");\n        allowance(msg.sender, address(this));\n        transferFrom(msg.sender, address(this), _toknAmount);\n        payable(msg.sender).transfer(_toknAmount*100);\n    }\n    \n    function changePoint(uint256 _requireRED, uint _calcedPirec) external\n    payable\n    fee(_calcedPirec){\n        uint requireRED = _requireRED * 10 ** 14;\n        transferFrom(address(this), msg.sender, requireRED);\n        // purchase[msg.sender].point = _requirePoint;\n        // purchase[msg.sender].price = _calcedPirec;\n    }\n    function ca_ethBal() public view returns(uint){\n        return address(this).balance;\n    }\n    function userPoint() public view returns(uint){\n        return purchase[msg.sender].point;\n    }\n    function connection() public view returns(string memory){\n        return connecTecs;\n    }\n}",
  "sourcePath": "/home/giparang/threadweb/pogre/trufflebox/contracts/CoinDispencer.sol",
  "compiler": {
    "name": "solc",
    "version": "0.8.13+commit.abaa5c0e.Emscripten.clang"
  },
  "schemaVersion": "3.4.6",
  "updatedAt": "2022-04-07T01:44:46.177Z",
  "networkType": "ethereum",
  "devdoc": {
    "kind": "dev",
    "methods": {
      "allowance(address,address)": {
        "details": "See {IERC20-allowance}."
      },
      "approve(address,uint256)": {
        "details": "See {IERC20-approve}. Requirements: - `spender` cannot be the zero address."
      },
      "balanceOf(address)": {
        "details": "See {IERC20-balanceOf}."
      },
      "decimals()": {
        "details": "Returns the number of decimals used to get its user representation. For example, if `decimals` equals `2`, a balance of `505` tokens should be displayed to a user as `5.05` (`505 / 10 ** 2`). Tokens usually opt for a value of 18, imitating the relationship between Ether and Wei. This is the value {ERC20} uses, unless this function is overridden; NOTE: This information is only used for _display_ purposes: it in no way affects any of the arithmetic of the contract, including {IERC20-balanceOf} and {IERC20-transfer}."
      },
      "decreaseAllowance(address,uint256)": {
        "details": "Atomically decreases the allowance granted to `spender` by the caller. This is an alternative to {approve} that can be used as a mitigation for problems described in {IERC20-approve}. Emits an {Approval} event indicating the updated allowance. Requirements: - `spender` cannot be the zero address. - `spender` must have allowance for the caller of at least `subtractedValue`."
      },
      "increaseAllowance(address,uint256)": {
        "details": "Atomically increases the allowance granted to `spender` by the caller. This is an alternative to {approve} that can be used as a mitigation for problems described in {IERC20-approve}. Emits an {Approval} event indicating the updated allowance. Requirements: - `spender` cannot be the zero address."
      },
      "name()": {
        "details": "Returns the name of the token."
      },
      "symbol()": {
        "details": "Returns the symbol of the token, usually a shorter version of the name."
      },
      "totalSupply()": {
        "details": "See {IERC20-totalSupply}."
      },
      "transfer(address,uint256)": {
        "details": "See {IERC20-transfer}. Requirements: - `recipient` cannot be the zero address. - the caller must have a balance of at least `amount`."
      },
      "transferFrom(address,address,uint256)": {
        "details": "See {IERC20-transferFrom}. Emits an {Approval} event indicating the updated allowance. This is not required by the EIP. See the note at the beginning of {ERC20}. Requirements: - `sender` and `recipient` cannot be the zero address. - `sender` must have a balance of at least `amount`. - the caller must have allowance for ``sender``'s tokens of at least `amount`."
      }
    },
    "version": 1
  },
  "userdoc": {
    "kind": "user",
    "methods": {},
    "version": 1
  }
}