{
  "contractName": "SeverStore",
  "abi": [
    {
      "inputs": [],
      "stateMutability": "nonpayable",
      "type": "constructor"
    },
    {
      "anonymous": false,
      "inputs": [
        {
          "indexed": true,
          "internalType": "address",
          "name": "owner",
          "type": "address"
        },
        {
          "indexed": true,
          "internalType": "address",
          "name": "spender",
          "type": "address"
        },
        {
          "indexed": false,
          "internalType": "uint256",
          "name": "value",
          "type": "uint256"
        }
      ],
      "name": "Approval",
      "type": "event"
    },
    {
      "anonymous": false,
      "inputs": [
        {
          "indexed": true,
          "internalType": "address",
          "name": "from",
          "type": "address"
        },
        {
          "indexed": true,
          "internalType": "address",
          "name": "to",
          "type": "address"
        },
        {
          "indexed": false,
          "internalType": "uint256",
          "name": "value",
          "type": "uint256"
        }
      ],
      "name": "Transfer",
      "type": "event"
    },
    {
      "inputs": [
        {
          "internalType": "address",
          "name": "owner",
          "type": "address"
        },
        {
          "internalType": "address",
          "name": "spender",
          "type": "address"
        }
      ],
      "name": "allowance",
      "outputs": [
        {
          "internalType": "uint256",
          "name": "",
          "type": "uint256"
        }
      ],
      "stateMutability": "view",
      "type": "function"
    },
    {
      "inputs": [
        {
          "internalType": "address",
          "name": "spender",
          "type": "address"
        },
        {
          "internalType": "uint256",
          "name": "amount",
          "type": "uint256"
        }
      ],
      "name": "approve",
      "outputs": [
        {
          "internalType": "bool",
          "name": "",
          "type": "bool"
        }
      ],
      "stateMutability": "nonpayable",
      "type": "function"
    },
    {
      "inputs": [
        {
          "internalType": "address",
          "name": "account",
          "type": "address"
        }
      ],
      "name": "balanceOf",
      "outputs": [
        {
          "internalType": "uint256",
          "name": "",
          "type": "uint256"
        }
      ],
      "stateMutability": "view",
      "type": "function"
    },
    {
      "inputs": [],
      "name": "decimals",
      "outputs": [
        {
          "internalType": "uint8",
          "name": "",
          "type": "uint8"
        }
      ],
      "stateMutability": "view",
      "type": "function"
    },
    {
      "inputs": [
        {
          "internalType": "address",
          "name": "spender",
          "type": "address"
        },
        {
          "internalType": "uint256",
          "name": "subtractedValue",
          "type": "uint256"
        }
      ],
      "name": "decreaseAllowance",
      "outputs": [
        {
          "internalType": "bool",
          "name": "",
          "type": "bool"
        }
      ],
      "stateMutability": "nonpayable",
      "type": "function"
    },
    {
      "inputs": [
        {
          "internalType": "address",
          "name": "spender",
          "type": "address"
        },
        {
          "internalType": "uint256",
          "name": "addedValue",
          "type": "uint256"
        }
      ],
      "name": "increaseAllowance",
      "outputs": [
        {
          "internalType": "bool",
          "name": "",
          "type": "bool"
        }
      ],
      "stateMutability": "nonpayable",
      "type": "function"
    },
    {
      "inputs": [],
      "name": "name",
      "outputs": [
        {
          "internalType": "string",
          "name": "",
          "type": "string"
        }
      ],
      "stateMutability": "view",
      "type": "function"
    },
    {
      "inputs": [],
      "name": "symbol",
      "outputs": [
        {
          "internalType": "string",
          "name": "",
          "type": "string"
        }
      ],
      "stateMutability": "view",
      "type": "function"
    },
    {
      "inputs": [],
      "name": "totalSupply",
      "outputs": [
        {
          "internalType": "uint256",
          "name": "",
          "type": "uint256"
        }
      ],
      "stateMutability": "view",
      "type": "function"
    },
    {
      "inputs": [
        {
          "internalType": "address",
          "name": "recipient",
          "type": "address"
        },
        {
          "internalType": "uint256",
          "name": "amount",
          "type": "uint256"
        }
      ],
      "name": "transfer",
      "outputs": [
        {
          "internalType": "bool",
          "name": "",
          "type": "bool"
        }
      ],
      "stateMutability": "nonpayable",
      "type": "function"
    },
    {
      "inputs": [
        {
          "internalType": "address",
          "name": "sender",
          "type": "address"
        },
        {
          "internalType": "address",
          "name": "recipient",
          "type": "address"
        },
        {
          "internalType": "uint256",
          "name": "amount",
          "type": "uint256"
        }
      ],
      "name": "transferFrom",
      "outputs": [
        {
          "internalType": "bool",
          "name": "",
          "type": "bool"
        }
      ],
      "stateMutability": "nonpayable",
      "type": "function"
    },
    {
      "inputs": [
        {
          "internalType": "uint256",
          "name": "_team",
          "type": "uint256"
        },
        {
          "internalType": "address[]",
          "name": "_ptcp",
          "type": "address[]"
        },
        {
          "internalType": "uint256[]",
          "name": "_stake",
          "type": "uint256[]"
        },
        {
          "internalType": "uint256",
          "name": "_price",
          "type": "uint256"
        }
      ],
      "name": "putBlockAndPurchase",
      "outputs": [],
      "stateMutability": "nonpayable",
      "type": "function"
    },
    {
      "inputs": [
        {
          "internalType": "uint256",
          "name": "_team",
          "type": "uint256"
        }
      ],
      "name": "getPtcp",
      "outputs": [
        {
          "internalType": "address[]",
          "name": "",
          "type": "address[]"
        }
      ],
      "stateMutability": "view",
      "type": "function"
    },
    {
      "inputs": [
        {
          "internalType": "uint256",
          "name": "_team",
          "type": "uint256"
        }
      ],
      "name": "getStake",
      "outputs": [
        {
          "internalType": "uint256[]",
          "name": "",
          "type": "uint256[]"
        }
      ],
      "stateMutability": "view",
      "type": "function"
    },
    {
      "inputs": [
        {
          "internalType": "uint256",
          "name": "_team",
          "type": "uint256"
        }
      ],
      "name": "getOwner",
      "outputs": [
        {
          "internalType": "address",
          "name": "",
          "type": "address"
        }
      ],
      "stateMutability": "view",
      "type": "function"
    },
    {
      "inputs": [
        {
          "internalType": "uint256",
          "name": "_team",
          "type": "uint256"
        }
      ],
      "name": "getPrice",
      "outputs": [
        {
          "internalType": "uint256",
          "name": "",
          "type": "uint256"
        }
      ],
      "stateMutability": "view",
      "type": "function"
    },
    {
      "inputs": [],
      "name": "getTradingCounter",
      "outputs": [
        {
          "internalType": "uint256",
          "name": "",
          "type": "uint256"
        }
      ],
      "stateMutability": "view",
      "type": "function"
    }
  ],
  "bytecode": "0x608060405260006006553480156200001657600080fd5b506040518060400160405280600681526020017f54687265616400000000000000000000000000000000000000000000000000008152506040518060400160405280600481526020017f544852650000000000000000000000000000000000000000000000000000000081525081600390805190602001906200009b9291906200025b565b508060049080519060200190620000b49291906200025b565b505050620000d33069021e19e0c9bab2400000620000d960201b60201c565b620004b6565b600073ffffffffffffffffffffffffffffffffffffffff168273ffffffffffffffffffffffffffffffffffffffff16036200014b576040517f08c379a000000000000000000000000000000000000000000000000000000000815260040162000142906200036c565b60405180910390fd5b6200015f600083836200025160201b60201c565b8060026000828254620001739190620003c7565b92505081905550806000808473ffffffffffffffffffffffffffffffffffffffff1673ffffffffffffffffffffffffffffffffffffffff1681526020019081526020016000206000828254620001ca9190620003c7565b925050819055508173ffffffffffffffffffffffffffffffffffffffff16600073ffffffffffffffffffffffffffffffffffffffff167fddf252ad1be2c89b69c2b068fc378daa952ba7f163c4a11628f55a4df523b3ef8360405162000231919062000435565b60405180910390a36200024d600083836200025660201b60201c565b5050565b505050565b505050565b828054620002699062000481565b90600052602060002090601f0160209004810192826200028d5760008555620002d9565b82601f10620002a857805160ff1916838001178555620002d9565b82800160010185558215620002d9579182015b82811115620002d8578251825591602001919060010190620002bb565b5b509050620002e89190620002ec565b5090565b5b8082111562000307576000816000905550600101620002ed565b5090565b600082825260208201905092915050565b7f45524332303a206d696e7420746f20746865207a65726f206164647265737300600082015250565b600062000354601f836200030b565b915062000361826200031c565b602082019050919050565b60006020820190508181036000830152620003878162000345565b9050919050565b6000819050919050565b7f4e487b7100000000000000000000000000000000000000000000000000000000600052601160045260246000fd5b6000620003d4826200038e565b9150620003e1836200038e565b9250827fffffffffffffffffffffffffffffffffffffffffffffffffffffffffffffffff0382111562000419576200041862000398565b5b828201905092915050565b6200042f816200038e565b82525050565b60006020820190506200044c600083018462000424565b92915050565b7f4e487b7100000000000000000000000000000000000000000000000000000000600052602260045260246000fd5b600060028204905060018216806200049a57607f821691505b602082108103620004b057620004af62000452565b5b50919050565b611d4280620004c66000396000f3fe608060405234801561001057600080fd5b506004361061010b5760003560e01c806370a08231116100a2578063bdca422911610071578063bdca4229146102f6578063c41a360a14610312578063ce325bf814610342578063dd62ed3e14610372578063e7572230146103a25761010b565b806370a082311461024857806395d89b4114610278578063a457c2d714610296578063a9059cbb146102c65761010b565b8063313ce567116100de578063313ce567146101ac57806339509351146101ca57806350ab647e146101fa57806366acce1a1461022a5761010b565b806306fdde0314610110578063095ea7b31461012e57806318160ddd1461015e57806323b872dd1461017c575b600080fd5b6101186103d2565b604051610125919061109f565b60405180910390f35b61014860048036038101906101439190611169565b610464565b60405161015591906111c4565b60405180910390f35b610166610482565b60405161017391906111ee565b60405180910390f35b61019660048036038101906101919190611209565b61048c565b6040516101a391906111c4565b60405180910390f35b6101b46104a4565b6040516101c19190611278565b60405180910390f35b6101e460048036038101906101df9190611169565b6104ad565b6040516101f191906111c4565b60405180910390f35b610214600480360381019061020f9190611293565b610559565b604051610221919061137e565b60405180910390f35b6102326105fd565b60405161023f91906111ee565b60405180910390f35b610262600480360381019061025d91906113a0565b610607565b60405161026f91906111ee565b60405180910390f35b61028061064f565b60405161028d919061109f565b60405180910390f35b6102b060048036038101906102ab9190611169565b6106e1565b6040516102bd91906111c4565b60405180910390f35b6102e060048036038101906102db9190611169565b6107cc565b6040516102ed91906111c4565b60405180910390f35b610310600480360381019061030b91906115d8565b6107ea565b005b61032c60048036038101906103279190611293565b6109ad565b6040516103399190611686565b60405180910390f35b61035c60048036038101906103579190611293565b6109ed565b604051610369919061175f565b60405180910390f35b61038c60048036038101906103879190611781565b610a5b565b60405161039991906111ee565b60405180910390f35b6103bc60048036038101906103b79190611293565b610ae2565b6040516103c991906111ee565b60405180910390f35b6060600380546103e1906117f0565b80601f016020809104026020016040519081016040528092919081815260200182805461040d906117f0565b801561045a5780601f1061042f5761010080835404028352916020019161045a565b820191906000526020600020905b81548152906001019060200180831161043d57829003601f168201915b5050505050905090565b6000610478610471610b02565b8484610b0a565b6001905092915050565b6000600254905090565b6000610499848484610cd3565b600190509392505050565b60006012905090565b600061054f6104ba610b02565b8484600160006104c8610b02565b73ffffffffffffffffffffffffffffffffffffffff1673ffffffffffffffffffffffffffffffffffffffff16815260200190815260200160002060008873ffffffffffffffffffffffffffffffffffffffff1673ffffffffffffffffffffffffffffffffffffffff1681526020019081526020016000205461054a9190611850565b610b0a565b6001905092915050565b6060600560008381526020019081526020016000206001018054806020026020016040519081016040528092919081815260200182805480156105f157602002820191906000526020600020905b8160009054906101000a900473ffffffffffffffffffffffffffffffffffffffff1673ffffffffffffffffffffffffffffffffffffffff16815260200190600101908083116105a7575b50505050509050919050565b6000600654905090565b60008060008373ffffffffffffffffffffffffffffffffffffffff1673ffffffffffffffffffffffffffffffffffffffff168152602001908152602001600020549050919050565b60606004805461065e906117f0565b80601f016020809104026020016040519081016040528092919081815260200182805461068a906117f0565b80156106d75780601f106106ac576101008083540402835291602001916106d7565b820191906000526020600020905b8154815290600101906020018083116106ba57829003601f168201915b5050505050905090565b600080600160006106f0610b02565b73ffffffffffffffffffffffffffffffffffffffff1673ffffffffffffffffffffffffffffffffffffffff16815260200190815260200160002060008573ffffffffffffffffffffffffffffffffffffffff1673ffffffffffffffffffffffffffffffffffffffff168152602001908152602001600020549050828110156107ad576040517f08c379a00000000000000000000000000000000000000000000000000000000081526004016107a490611918565b60405180910390fd5b6107c16107b8610b02565b85858403610b0a565b600191505092915050565b60006107e06107d9610b02565b8484610cd3565b6001905092915050565b60005b83518160ff16146108f75760056000868152602001908152602001600020600101848260ff168151811061082457610823611938565b5b60200260200101519080600181540180825580915050600190039060005260206000200160009091909190916101000a81548173ffffffffffffffffffffffffffffffffffffffff021916908373ffffffffffffffffffffffffffffffffffffffff16021790555060056000868152602001908152602001600020600301838260ff16815181106108b8576108b7611938565b5b60200260200101519080600181540180825580915050600190039060005260206000200160009091909190915055806108f090611967565b90506107ed565b670de0b6b3a76400008261090b9190611990565b60056000878152602001908152602001600020600401819055506109463330600560008981526020019081526020016000206004015461048c565b506109518585610f52565b336005600087815260200190815260200160002060020160006101000a81548173ffffffffffffffffffffffffffffffffffffffff021916908373ffffffffffffffffffffffffffffffffffffffff1602179055505050505050565b60006005600083815260200190815260200160002060020160009054906101000a900473ffffffffffffffffffffffffffffffffffffffff169050919050565b606060056000838152602001908152602001600020600301805480602002602001604051908101604052809291908181526020018280548015610a4f57602002820191906000526020600020905b815481526020019060010190808311610a3b575b50505050509050919050565b6000600160008473ffffffffffffffffffffffffffffffffffffffff1673ffffffffffffffffffffffffffffffffffffffff16815260200190815260200160002060008373ffffffffffffffffffffffffffffffffffffffff1673ffffffffffffffffffffffffffffffffffffffff16815260200190815260200160002054905092915050565b600060056000838152602001908152602001600020600401549050919050565b600033905090565b600073ffffffffffffffffffffffffffffffffffffffff168373ffffffffffffffffffffffffffffffffffffffff1603610b79576040517f08c379a0000000000000000000000000000000000000000000000000000000008152600401610b7090611a5c565b60405180910390fd5b600073ffffffffffffffffffffffffffffffffffffffff168273ffffffffffffffffffffffffffffffffffffffff1603610be8576040517f08c379a0000000000000000000000000000000000000000000000000000000008152600401610bdf90611aee565b60405180910390fd5b80600160008573ffffffffffffffffffffffffffffffffffffffff1673ffffffffffffffffffffffffffffffffffffffff16815260200190815260200160002060008473ffffffffffffffffffffffffffffffffffffffff1673ffffffffffffffffffffffffffffffffffffffff168152602001908152602001600020819055508173ffffffffffffffffffffffffffffffffffffffff168373ffffffffffffffffffffffffffffffffffffffff167f8c5be1e5ebec7d5bd14f71427d1e84f3dd0314c0f7b2291e5b200ac8c7c3b92583604051610cc691906111ee565b60405180910390a3505050565b600073ffffffffffffffffffffffffffffffffffffffff168373ffffffffffffffffffffffffffffffffffffffff1603610d42576040517f08c379a0000000000000000000000000000000000000000000000000000000008152600401610d3990611b80565b60405180910390fd5b600073ffffffffffffffffffffffffffffffffffffffff168273ffffffffffffffffffffffffffffffffffffffff1603610db1576040517f08c379a0000000000000000000000000000000000000000000000000000000008152600401610da890611c12565b60405180910390fd5b610dbc838383610ffc565b60008060008573ffffffffffffffffffffffffffffffffffffffff1673ffffffffffffffffffffffffffffffffffffffff16815260200190815260200160002054905081811015610e42576040517f08c379a0000000000000000000000000000000000000000000000000000000008152600401610e3990611ca4565b60405180910390fd5b8181036000808673ffffffffffffffffffffffffffffffffffffffff1673ffffffffffffffffffffffffffffffffffffffff16815260200190815260200160002081905550816000808573ffffffffffffffffffffffffffffffffffffffff1673ffffffffffffffffffffffffffffffffffffffff1681526020019081526020016000206000828254610ed59190611850565b925050819055508273ffffffffffffffffffffffffffffffffffffffff168473ffffffffffffffffffffffffffffffffffffffff167fddf252ad1be2c89b69c2b068fc378daa952ba7f163c4a11628f55a4df523b3ef84604051610f3991906111ee565b60405180910390a3610f4c848484611001565b50505050565b60005b81518160ff1614610fe157610fcf30838360ff1681518110610f7a57610f79611938565b5b6020026020010151600560008781526020019081526020016000206003018460ff1681548110610fad57610fac611938565b5b906000526020600020015466038d7ea4c68000610fca9190611990565b61048c565b5080610fda90611967565b9050610f55565b600660008154610ff090611cc4565b91905081905550505050565b505050565b505050565b600081519050919050565b600082825260208201905092915050565b60005b83811015611040578082015181840152602081019050611025565b8381111561104f576000848401525b50505050565b6000601f19601f8301169050919050565b600061107182611006565b61107b8185611011565b935061108b818560208601611022565b61109481611055565b840191505092915050565b600060208201905081810360008301526110b98184611066565b905092915050565b6000604051905090565b600080fd5b600080fd5b600073ffffffffffffffffffffffffffffffffffffffff82169050919050565b6000611100826110d5565b9050919050565b611110816110f5565b811461111b57600080fd5b50565b60008135905061112d81611107565b92915050565b6000819050919050565b61114681611133565b811461115157600080fd5b50565b6000813590506111638161113d565b92915050565b600080604083850312156111805761117f6110cb565b5b600061118e8582860161111e565b925050602061119f85828601611154565b9150509250929050565b60008115159050919050565b6111be816111a9565b82525050565b60006020820190506111d960008301846111b5565b92915050565b6111e881611133565b82525050565b600060208201905061120360008301846111df565b92915050565b600080600060608486031215611222576112216110cb565b5b60006112308682870161111e565b93505060206112418682870161111e565b925050604061125286828701611154565b9150509250925092565b600060ff82169050919050565b6112728161125c565b82525050565b600060208201905061128d6000830184611269565b92915050565b6000602082840312156112a9576112a86110cb565b5b60006112b784828501611154565b91505092915050565b600081519050919050565b600082825260208201905092915050565b6000819050602082019050919050565b6112f5816110f5565b82525050565b600061130783836112ec565b60208301905092915050565b6000602082019050919050565b600061132b826112c0565b61133581856112cb565b9350611340836112dc565b8060005b8381101561137157815161135888826112fb565b975061136383611313565b925050600181019050611344565b5085935050505092915050565b600060208201905081810360008301526113988184611320565b905092915050565b6000602082840312156113b6576113b56110cb565b5b60006113c48482850161111e565b91505092915050565b600080fd5b7f4e487b7100000000000000000000000000000000000000000000000000000000600052604160045260246000fd5b61140a82611055565b810181811067ffffffffffffffff82111715611429576114286113d2565b5b80604052505050565b600061143c6110c1565b90506114488282611401565b919050565b600067ffffffffffffffff821115611468576114676113d2565b5b602082029050602081019050919050565b600080fd5b600061149161148c8461144d565b611432565b905080838252602082019050602084028301858111156114b4576114b3611479565b5b835b818110156114dd57806114c9888261111e565b8452602084019350506020810190506114b6565b5050509392505050565b600082601f8301126114fc576114fb6113cd565b5b813561150c84826020860161147e565b91505092915050565b600067ffffffffffffffff8211156115305761152f6113d2565b5b602082029050602081019050919050565b600061155461154f84611515565b611432565b9050808382526020820190506020840283018581111561157757611576611479565b5b835b818110156115a0578061158c8882611154565b845260208401935050602081019050611579565b5050509392505050565b600082601f8301126115bf576115be6113cd565b5b81356115cf848260208601611541565b91505092915050565b600080600080608085870312156115f2576115f16110cb565b5b600061160087828801611154565b945050602085013567ffffffffffffffff811115611621576116206110d0565b5b61162d878288016114e7565b935050604085013567ffffffffffffffff81111561164e5761164d6110d0565b5b61165a878288016115aa565b925050606061166b87828801611154565b91505092959194509250565b611680816110f5565b82525050565b600060208201905061169b6000830184611677565b92915050565b600081519050919050565b600082825260208201905092915050565b6000819050602082019050919050565b6116d681611133565b82525050565b60006116e883836116cd565b60208301905092915050565b6000602082019050919050565b600061170c826116a1565b61171681856116ac565b9350611721836116bd565b8060005b8381101561175257815161173988826116dc565b9750611744836116f4565b925050600181019050611725565b5085935050505092915050565b600060208201905081810360008301526117798184611701565b905092915050565b60008060408385031215611798576117976110cb565b5b60006117a68582860161111e565b92505060206117b78582860161111e565b9150509250929050565b7f4e487b7100000000000000000000000000000000000000000000000000000000600052602260045260246000fd5b6000600282049050600182168061180857607f821691505b60208210810361181b5761181a6117c1565b5b50919050565b7f4e487b7100000000000000000000000000000000000000000000000000000000600052601160045260246000fd5b600061185b82611133565b915061186683611133565b9250827fffffffffffffffffffffffffffffffffffffffffffffffffffffffffffffffff0382111561189b5761189a611821565b5b828201905092915050565b7f45524332303a2064656372656173656420616c6c6f77616e63652062656c6f7760008201527f207a65726f000000000000000000000000000000000000000000000000000000602082015250565b6000611902602583611011565b915061190d826118a6565b604082019050919050565b60006020820190508181036000830152611931816118f5565b9050919050565b7f4e487b7100000000000000000000000000000000000000000000000000000000600052603260045260246000fd5b60006119728261125c565b915060ff820361198557611984611821565b5b600182019050919050565b600061199b82611133565b91506119a683611133565b9250817fffffffffffffffffffffffffffffffffffffffffffffffffffffffffffffffff04831182151516156119df576119de611821565b5b828202905092915050565b7f45524332303a20617070726f76652066726f6d20746865207a65726f2061646460008201527f7265737300000000000000000000000000000000000000000000000000000000602082015250565b6000611a46602483611011565b9150611a51826119ea565b604082019050919050565b60006020820190508181036000830152611a7581611a39565b9050919050565b7f45524332303a20617070726f766520746f20746865207a65726f20616464726560008201527f7373000000000000000000000000000000000000000000000000000000000000602082015250565b6000611ad8602283611011565b9150611ae382611a7c565b604082019050919050565b60006020820190508181036000830152611b0781611acb565b9050919050565b7f45524332303a207472616e736665722066726f6d20746865207a65726f20616460008201527f6472657373000000000000000000000000000000000000000000000000000000602082015250565b6000611b6a602583611011565b9150611b7582611b0e565b604082019050919050565b60006020820190508181036000830152611b9981611b5d565b9050919050565b7f45524332303a207472616e7366657220746f20746865207a65726f206164647260008201527f6573730000000000000000000000000000000000000000000000000000000000602082015250565b6000611bfc602383611011565b9150611c0782611ba0565b604082019050919050565b60006020820190508181036000830152611c2b81611bef565b9050919050565b7f45524332303a207472616e7366657220616d6f756e742065786365656473206260008201527f616c616e63650000000000000000000000000000000000000000000000000000602082015250565b6000611c8e602683611011565b9150611c9982611c32565b604082019050919050565b60006020820190508181036000830152611cbd81611c81565b9050919050565b6000611ccf82611133565b91507fffffffffffffffffffffffffffffffffffffffffffffffffffffffffffffffff8203611d0157611d00611821565b5b60018201905091905056fea2646970667358221220103f2d9da50fc30f71db7746623c4fd3b444e811cf560d7402becc42566967d264736f6c634300080d0033",
  "immutableReferences": {},
  "source": "pragma solidity ^0.8.3;\n\nimport '../client/node_modules/openzeppelin-solidity/contracts/token/ERC20/ERC20.sol';\n\ncontract SeverStore is ERC20{\n\n    constructor() ERC20(\"Thread\", \"THRe\") {\n        _mint(address(this), 10000*10**18);\n    }\n    struct playTeam {\n        string title;\n        address[] name;\n        address owner;\n        uint[] stake;\n        uint price;\n    }\n    mapping(uint => playTeam) history;\n    uint countTrading = 0;\n\n    function putBlockAndPurchase(\n        uint _team, \n        address[] memory _ptcp, \n        uint[] memory _stake, \n        uint _price)\n    external\n    {\n        uint8 iterA = 0;\n        while(iterA != _ptcp.length)\n        {\n            history[_team].name.push(_ptcp[iterA]);\n            history[_team].stake.push(_stake[iterA]);\n            ++iterA;\n        }\n        history[_team].price = _price * 10**18;\n        transferFrom(msg.sender, address(this), history[_team].price);\n        ideaTrade(_team, _ptcp);\n        history[_team].owner = msg.sender;\n    }\n    function ideaTrade(uint _team, address[] memory _ptcp)\n    internal\n    {//_stake = at 0.001\n        uint8 iterA = 0;\n        while(iterA != _ptcp.length)\n        {\n            transferFrom(\n                address(this),\n                _ptcp[iterA],\n                1*10**15*history[_team].stake[iterA]);\n            ++iterA;\n        }\n        ++countTrading;\n    }\n    function getPtcp(uint _team) public view returns(address[] memory){\n        return history[_team].name;\n    }\n    function getStake(uint _team) public view returns(uint[] memory){\n        return history[_team].stake;\n    }\n    function getOwner(uint _team) public view returns(address){\n        return history[_team].owner;\n    }\n    function getPrice(uint _team) public view returns(uint){\n        return history[_team].price;\n    }\n    function getTradingCounter() public view returns(uint){\n        return countTrading;\n    }\n}\n\n//[\"0x5B38Da6a701c568545dCfcB03FcB875f56beddC4\", \"0xAb8483F64d9C6d1EcF9b849Ae677dD3315835cb2\"]\n//[\"hasha\", \"hashb\"]",
  "sourcePath": "/home/giparang/threadweb/pogre/trufflebox/contracts/SeverStore.sol",
  "compiler": {
    "name": "solc",
    "version": "0.8.13+commit.abaa5c0e.Emscripten.clang"
  },
  "schemaVersion": "3.4.6",
  "updatedAt": "2022-04-10T08:18:19.982Z",
  "devdoc": {
    "kind": "dev",
    "methods": {
      "allowance(address,address)": {
        "details": "See {IERC20-allowance}."
      },
      "approve(address,uint256)": {
        "details": "See {IERC20-approve}. Requirements: - `spender` cannot be the zero address."
      },
      "balanceOf(address)": {
        "details": "See {IERC20-balanceOf}."
      },
      "decimals()": {
        "details": "Returns the number of decimals used to get its user representation. For example, if `decimals` equals `2`, a balance of `505` tokens should be displayed to a user as `5.05` (`505 / 10 ** 2`). Tokens usually opt for a value of 18, imitating the relationship between Ether and Wei. This is the value {ERC20} uses, unless this function is overridden; NOTE: This information is only used for _display_ purposes: it in no way affects any of the arithmetic of the contract, including {IERC20-balanceOf} and {IERC20-transfer}."
      },
      "decreaseAllowance(address,uint256)": {
        "details": "Atomically decreases the allowance granted to `spender` by the caller. This is an alternative to {approve} that can be used as a mitigation for problems described in {IERC20-approve}. Emits an {Approval} event indicating the updated allowance. Requirements: - `spender` cannot be the zero address. - `spender` must have allowance for the caller of at least `subtractedValue`."
      },
      "increaseAllowance(address,uint256)": {
        "details": "Atomically increases the allowance granted to `spender` by the caller. This is an alternative to {approve} that can be used as a mitigation for problems described in {IERC20-approve}. Emits an {Approval} event indicating the updated allowance. Requirements: - `spender` cannot be the zero address."
      },
      "name()": {
        "details": "Returns the name of the token."
      },
      "symbol()": {
        "details": "Returns the symbol of the token, usually a shorter version of the name."
      },
      "totalSupply()": {
        "details": "See {IERC20-totalSupply}."
      },
      "transfer(address,uint256)": {
        "details": "See {IERC20-transfer}. Requirements: - `recipient` cannot be the zero address. - the caller must have a balance of at least `amount`."
      },
      "transferFrom(address,address,uint256)": {
        "details": "See {IERC20-transferFrom}. Emits an {Approval} event indicating the updated allowance. This is not required by the EIP. See the note at the beginning of {ERC20}. Requirements: - `sender` and `recipient` cannot be the zero address. - `sender` must have a balance of at least `amount`. - the caller must have allowance for ``sender``'s tokens of at least `amount`."
      }
    },
    "version": 1
  },
  "userdoc": {
    "kind": "user",
    "methods": {},
    "version": 1
  }
}