{
  "contractName": "SeverStore",
  "abi": [
    {
      "inputs": [],
      "stateMutability": "nonpayable",
      "type": "constructor"
    },
    {
      "anonymous": false,
      "inputs": [
        {
          "indexed": true,
          "internalType": "address",
          "name": "owner",
          "type": "address"
        },
        {
          "indexed": true,
          "internalType": "address",
          "name": "spender",
          "type": "address"
        },
        {
          "indexed": false,
          "internalType": "uint256",
          "name": "value",
          "type": "uint256"
        }
      ],
      "name": "Approval",
      "type": "event"
    },
    {
      "anonymous": false,
      "inputs": [
        {
          "indexed": true,
          "internalType": "address",
          "name": "from",
          "type": "address"
        },
        {
          "indexed": true,
          "internalType": "address",
          "name": "to",
          "type": "address"
        },
        {
          "indexed": false,
          "internalType": "uint256",
          "name": "value",
          "type": "uint256"
        }
      ],
      "name": "Transfer",
      "type": "event"
    },
    {
      "inputs": [
        {
          "internalType": "address",
          "name": "owner",
          "type": "address"
        },
        {
          "internalType": "address",
          "name": "spender",
          "type": "address"
        }
      ],
      "name": "allowance",
      "outputs": [
        {
          "internalType": "uint256",
          "name": "",
          "type": "uint256"
        }
      ],
      "stateMutability": "view",
      "type": "function"
    },
    {
      "inputs": [
        {
          "internalType": "address",
          "name": "spender",
          "type": "address"
        },
        {
          "internalType": "uint256",
          "name": "amount",
          "type": "uint256"
        }
      ],
      "name": "approve",
      "outputs": [
        {
          "internalType": "bool",
          "name": "",
          "type": "bool"
        }
      ],
      "stateMutability": "nonpayable",
      "type": "function"
    },
    {
      "inputs": [
        {
          "internalType": "address",
          "name": "account",
          "type": "address"
        }
      ],
      "name": "balanceOf",
      "outputs": [
        {
          "internalType": "uint256",
          "name": "",
          "type": "uint256"
        }
      ],
      "stateMutability": "view",
      "type": "function"
    },
    {
      "inputs": [],
      "name": "decimals",
      "outputs": [
        {
          "internalType": "uint8",
          "name": "",
          "type": "uint8"
        }
      ],
      "stateMutability": "view",
      "type": "function"
    },
    {
      "inputs": [
        {
          "internalType": "address",
          "name": "spender",
          "type": "address"
        },
        {
          "internalType": "uint256",
          "name": "subtractedValue",
          "type": "uint256"
        }
      ],
      "name": "decreaseAllowance",
      "outputs": [
        {
          "internalType": "bool",
          "name": "",
          "type": "bool"
        }
      ],
      "stateMutability": "nonpayable",
      "type": "function"
    },
    {
      "inputs": [
        {
          "internalType": "address",
          "name": "spender",
          "type": "address"
        },
        {
          "internalType": "uint256",
          "name": "addedValue",
          "type": "uint256"
        }
      ],
      "name": "increaseAllowance",
      "outputs": [
        {
          "internalType": "bool",
          "name": "",
          "type": "bool"
        }
      ],
      "stateMutability": "nonpayable",
      "type": "function"
    },
    {
      "inputs": [],
      "name": "name",
      "outputs": [
        {
          "internalType": "string",
          "name": "",
          "type": "string"
        }
      ],
      "stateMutability": "view",
      "type": "function"
    },
    {
      "inputs": [],
      "name": "symbol",
      "outputs": [
        {
          "internalType": "string",
          "name": "",
          "type": "string"
        }
      ],
      "stateMutability": "view",
      "type": "function"
    },
    {
      "inputs": [],
      "name": "totalSupply",
      "outputs": [
        {
          "internalType": "uint256",
          "name": "",
          "type": "uint256"
        }
      ],
      "stateMutability": "view",
      "type": "function"
    },
    {
      "inputs": [
        {
          "internalType": "address",
          "name": "recipient",
          "type": "address"
        },
        {
          "internalType": "uint256",
          "name": "amount",
          "type": "uint256"
        }
      ],
      "name": "transfer",
      "outputs": [
        {
          "internalType": "bool",
          "name": "",
          "type": "bool"
        }
      ],
      "stateMutability": "nonpayable",
      "type": "function"
    },
    {
      "inputs": [
        {
          "internalType": "address",
          "name": "sender",
          "type": "address"
        },
        {
          "internalType": "address",
          "name": "recipient",
          "type": "address"
        },
        {
          "internalType": "uint256",
          "name": "amount",
          "type": "uint256"
        }
      ],
      "name": "transferFrom",
      "outputs": [
        {
          "internalType": "bool",
          "name": "",
          "type": "bool"
        }
      ],
      "stateMutability": "nonpayable",
      "type": "function"
    },
    {
      "inputs": [
        {
          "internalType": "uint256",
          "name": "_team",
          "type": "uint256"
        },
        {
          "internalType": "address[]",
          "name": "_ptcp",
          "type": "address[]"
        },
        {
          "internalType": "uint256[]",
          "name": "_stake",
          "type": "uint256[]"
        },
        {
          "internalType": "uint256",
          "name": "_price",
          "type": "uint256"
        }
      ],
      "name": "putBlock",
      "outputs": [],
      "stateMutability": "nonpayable",
      "type": "function"
    },
    {
      "inputs": [
        {
          "internalType": "uint256",
          "name": "_value",
          "type": "uint256"
        },
        {
          "internalType": "address",
          "name": "_editor",
          "type": "address"
        }
      ],
      "name": "retrieve",
      "outputs": [],
      "stateMutability": "nonpayable",
      "type": "function"
    },
    {
      "inputs": [
        {
          "internalType": "uint256",
          "name": "_team",
          "type": "uint256"
        },
        {
          "internalType": "address",
          "name": "_buyer",
          "type": "address"
        },
        {
          "internalType": "address[]",
          "name": "_ptcp",
          "type": "address[]"
        }
      ],
      "name": "purchase",
      "outputs": [],
      "stateMutability": "nonpayable",
      "type": "function"
    },
    {
      "inputs": [
        {
          "internalType": "uint256",
          "name": "_team",
          "type": "uint256"
        }
      ],
      "name": "getPtcp",
      "outputs": [
        {
          "internalType": "address[]",
          "name": "",
          "type": "address[]"
        }
      ],
      "stateMutability": "view",
      "type": "function"
    },
    {
      "inputs": [
        {
          "internalType": "uint256",
          "name": "_team",
          "type": "uint256"
        }
      ],
      "name": "getStake",
      "outputs": [
        {
          "internalType": "uint256[]",
          "name": "",
          "type": "uint256[]"
        }
      ],
      "stateMutability": "view",
      "type": "function"
    },
    {
      "inputs": [
        {
          "internalType": "uint256",
          "name": "_team",
          "type": "uint256"
        }
      ],
      "name": "getOwner",
      "outputs": [
        {
          "internalType": "address",
          "name": "",
          "type": "address"
        }
      ],
      "stateMutability": "view",
      "type": "function"
    },
    {
      "inputs": [
        {
          "internalType": "uint256",
          "name": "_team",
          "type": "uint256"
        }
      ],
      "name": "getPrice",
      "outputs": [
        {
          "internalType": "uint256",
          "name": "",
          "type": "uint256"
        }
      ],
      "stateMutability": "view",
      "type": "function"
    }
  ],
  "bytecode": "0x608060405260006006553480156200001657600080fd5b506040518060400160405280600681526020017f54687265616400000000000000000000000000000000000000000000000000008152506040518060400160405280600481526020017f544852650000000000000000000000000000000000000000000000000000000081525081600390805190602001906200009b929190620000bd565b508060049080519060200190620000b4929190620000bd565b505050620001d1565b828054620000cb906200019c565b90600052602060002090601f016020900481019282620000ef57600085556200013b565b82601f106200010a57805160ff19168380011785556200013b565b828001600101855582156200013b579182015b828111156200013a5782518255916020019190600101906200011d565b5b5090506200014a91906200014e565b5090565b5b80821115620001695760008160009055506001016200014f565b5090565b7f4e487b7100000000000000000000000000000000000000000000000000000000600052602260045260246000fd5b60006002820490506001821680620001b557607f821691505b602082108103620001cb57620001ca6200016d565b5b50919050565b611f9280620001e16000396000f3fe608060405234801561001057600080fd5b50600436106101165760003560e01c806370a08231116100a2578063c41a360a11610071578063c41a360a1461031b578063ce325bf81461034b578063d20f7f261461037b578063dd62ed3e14610397578063e7572230146103c757610116565b806370a082311461026d57806395d89b411461029d578063a457c2d7146102bb578063a9059cbb146102eb57610116565b806323b872dd116100e957806323b872dd146101a3578063313ce567146101d357806339509351146101f157806344133b3c1461022157806350ab647e1461023d57610116565b806306fdde031461011b578063095ea7b314610139578063115e85f21461016957806318160ddd14610185575b600080fd5b6101236103f7565b604051610130919061121c565b60405180910390f35b610153600480360381019061014e91906112e6565b610489565b6040516101609190611341565b60405180910390f35b610183600480360381019061017e91906114a4565b6104a7565b005b61018d61050b565b60405161019a9190611522565b60405180910390f35b6101bd60048036038101906101b8919061153d565b610515565b6040516101ca9190611341565b60405180910390f35b6101db61052d565b6040516101e891906115ac565b60405180910390f35b61020b600480360381019061020691906112e6565b610536565b6040516102189190611341565b60405180910390f35b61023b6004803603810190610236919061168a565b6105e2565b005b61025760048036038101906102529190611729565b610711565b6040516102649190611814565b60405180910390f35b61028760048036038101906102829190611836565b6107b5565b6040516102949190611522565b60405180910390f35b6102a56107fd565b6040516102b2919061121c565b60405180910390f35b6102d560048036038101906102d091906112e6565b61088f565b6040516102e29190611341565b60405180910390f35b610305600480360381019061030091906112e6565b61097a565b6040516103129190611341565b60405180910390f35b61033560048036038101906103309190611729565b610998565b6040516103429190611872565b60405180910390f35b61036560048036038101906103609190611729565b6109d8565b604051610372919061194b565b60405180910390f35b6103956004803603810190610390919061196d565b610a46565b005b6103b160048036038101906103ac91906119ad565b610a91565b6040516103be9190611522565b60405180910390f35b6103e160048036038101906103dc9190611729565b610b18565b6040516103ee9190611522565b60405180910390f35b60606003805461040690611a1c565b80601f016020809104026020016040519081016040528092919081815260200182805461043290611a1c565b801561047f5780601f106104545761010080835404028352916020019161047f565b820191906000526020600020905b81548152906001019060200180831161046257829003601f168201915b5050505050905090565b600061049d610496610b38565b8484610b40565b6001905092915050565b816005600085815260200190815260200160002060020160006101000a81548173ffffffffffffffffffffffffffffffffffffffff021916908373ffffffffffffffffffffffffffffffffffffffff1602179055506105068382610d09565b505050565b6000600254905090565b6000610522848484610d9b565b600190509392505050565b60006012905090565b60006105d8610543610b38565b848460016000610551610b38565b73ffffffffffffffffffffffffffffffffffffffff1673ffffffffffffffffffffffffffffffffffffffff16815260200190815260200160002060008873ffffffffffffffffffffffffffffffffffffffff1673ffffffffffffffffffffffffffffffffffffffff168152602001908152602001600020546105d39190611a7c565b610b40565b6001905092915050565b60005b83518160ff16146106ef5760056000868152602001908152602001600020600101848260ff168151811061061c5761061b611ad2565b5b60200260200101519080600181540180825580915050600190039060005260206000200160009091909190916101000a81548173ffffffffffffffffffffffffffffffffffffffff021916908373ffffffffffffffffffffffffffffffffffffffff16021790555060056000868152602001908152602001600020600301838260ff16815181106106b0576106af611ad2565b5b60200260200101519080600181540180825580915050600190039060005260206000200160009091909190915055806106e890611b01565b90506105e5565b8160056000878152602001908152602001600020600401819055505050505050565b6060600560008381526020019081526020016000206001018054806020026020016040519081016040528092919081815260200182805480156107a957602002820191906000526020600020905b8160009054906101000a900473ffffffffffffffffffffffffffffffffffffffff1673ffffffffffffffffffffffffffffffffffffffff168152602001906001019080831161075f575b50505050509050919050565b60008060008373ffffffffffffffffffffffffffffffffffffffff1673ffffffffffffffffffffffffffffffffffffffff168152602001908152602001600020549050919050565b60606004805461080c90611a1c565b80601f016020809104026020016040519081016040528092919081815260200182805461083890611a1c565b80156108855780601f1061085a57610100808354040283529160200191610885565b820191906000526020600020905b81548152906001019060200180831161086857829003601f168201915b5050505050905090565b6000806001600061089e610b38565b73ffffffffffffffffffffffffffffffffffffffff1673ffffffffffffffffffffffffffffffffffffffff16815260200190815260200160002060008573ffffffffffffffffffffffffffffffffffffffff1673ffffffffffffffffffffffffffffffffffffffff1681526020019081526020016000205490508281101561095b576040517f08c379a000000000000000000000000000000000000000000000000000000000815260040161095290611b9c565b60405180910390fd5b61096f610966610b38565b85858403610b40565b600191505092915050565b600061098e610987610b38565b8484610d9b565b6001905092915050565b60006005600083815260200190815260200160002060020160009054906101000a900473ffffffffffffffffffffffffffffffffffffffff169050919050565b606060056000838152602001908152602001600020600301805480602002602001604051908101604052809291908181526020018280548015610a3a57602002820191906000526020600020905b815481526020019060010190808311610a26575b50505050509050919050565b610a62818366038d7ea4c68000610a5d9190611bbc565b61101a565b8166038d7ea4c68000610a759190611bbc565b60066000828254610a869190611a7c565b925050819055505050565b6000600160008473ffffffffffffffffffffffffffffffffffffffff1673ffffffffffffffffffffffffffffffffffffffff16815260200190815260200160002060008373ffffffffffffffffffffffffffffffffffffffff1673ffffffffffffffffffffffffffffffffffffffff16815260200190815260200160002054905092915050565b600060056000838152602001908152602001600020600401549050919050565b600033905090565b600073ffffffffffffffffffffffffffffffffffffffff168373ffffffffffffffffffffffffffffffffffffffff1603610baf576040517f08c379a0000000000000000000000000000000000000000000000000000000008152600401610ba690611c88565b60405180910390fd5b600073ffffffffffffffffffffffffffffffffffffffff168273ffffffffffffffffffffffffffffffffffffffff1603610c1e576040517f08c379a0000000000000000000000000000000000000000000000000000000008152600401610c1590611d1a565b60405180910390fd5b80600160008573ffffffffffffffffffffffffffffffffffffffff1673ffffffffffffffffffffffffffffffffffffffff16815260200190815260200160002060008473ffffffffffffffffffffffffffffffffffffffff1673ffffffffffffffffffffffffffffffffffffffff168152602001908152602001600020819055508173ffffffffffffffffffffffffffffffffffffffff168373ffffffffffffffffffffffffffffffffffffffff167f8c5be1e5ebec7d5bd14f71427d1e84f3dd0314c0f7b2291e5b200ac8c7c3b92583604051610cfc9190611522565b60405180910390a3505050565b60005b81518160ff1614610d9657610d85828260ff1681518110610d3057610d2f611ad2565b5b6020026020010151600560008681526020019081526020016000206003018360ff1681548110610d6357610d62611ad2565b5b906000526020600020015466038d7ea4c68000610d809190611bbc565b61101a565b80610d8f90611b01565b9050610d0c565b505050565b600073ffffffffffffffffffffffffffffffffffffffff168373ffffffffffffffffffffffffffffffffffffffff1603610e0a576040517f08c379a0000000000000000000000000000000000000000000000000000000008152600401610e0190611dac565b60405180910390fd5b600073ffffffffffffffffffffffffffffffffffffffff168273ffffffffffffffffffffffffffffffffffffffff1603610e79576040517f08c379a0000000000000000000000000000000000000000000000000000000008152600401610e7090611e3e565b60405180910390fd5b610e84838383611179565b60008060008573ffffffffffffffffffffffffffffffffffffffff1673ffffffffffffffffffffffffffffffffffffffff16815260200190815260200160002054905081811015610f0a576040517f08c379a0000000000000000000000000000000000000000000000000000000008152600401610f0190611ed0565b60405180910390fd5b8181036000808673ffffffffffffffffffffffffffffffffffffffff1673ffffffffffffffffffffffffffffffffffffffff16815260200190815260200160002081905550816000808573ffffffffffffffffffffffffffffffffffffffff1673ffffffffffffffffffffffffffffffffffffffff1681526020019081526020016000206000828254610f9d9190611a7c565b925050819055508273ffffffffffffffffffffffffffffffffffffffff168473ffffffffffffffffffffffffffffffffffffffff167fddf252ad1be2c89b69c2b068fc378daa952ba7f163c4a11628f55a4df523b3ef846040516110019190611522565b60405180910390a361101484848461117e565b50505050565b600073ffffffffffffffffffffffffffffffffffffffff168273ffffffffffffffffffffffffffffffffffffffff1603611089576040517f08c379a000000000000000000000000000000000000000000000000000000000815260040161108090611f3c565b60405180910390fd5b61109560008383611179565b80600260008282546110a79190611a7c565b92505081905550806000808473ffffffffffffffffffffffffffffffffffffffff1673ffffffffffffffffffffffffffffffffffffffff16815260200190815260200160002060008282546110fc9190611a7c565b925050819055508173ffffffffffffffffffffffffffffffffffffffff16600073ffffffffffffffffffffffffffffffffffffffff167fddf252ad1be2c89b69c2b068fc378daa952ba7f163c4a11628f55a4df523b3ef836040516111619190611522565b60405180910390a36111756000838361117e565b5050565b505050565b505050565b600081519050919050565b600082825260208201905092915050565b60005b838110156111bd5780820151818401526020810190506111a2565b838111156111cc576000848401525b50505050565b6000601f19601f8301169050919050565b60006111ee82611183565b6111f8818561118e565b935061120881856020860161119f565b611211816111d2565b840191505092915050565b6000602082019050818103600083015261123681846111e3565b905092915050565b6000604051905090565b600080fd5b600080fd5b600073ffffffffffffffffffffffffffffffffffffffff82169050919050565b600061127d82611252565b9050919050565b61128d81611272565b811461129857600080fd5b50565b6000813590506112aa81611284565b92915050565b6000819050919050565b6112c3816112b0565b81146112ce57600080fd5b50565b6000813590506112e0816112ba565b92915050565b600080604083850312156112fd576112fc611248565b5b600061130b8582860161129b565b925050602061131c858286016112d1565b9150509250929050565b60008115159050919050565b61133b81611326565b82525050565b60006020820190506113566000830184611332565b92915050565b600080fd5b7f4e487b7100000000000000000000000000000000000000000000000000000000600052604160045260246000fd5b611399826111d2565b810181811067ffffffffffffffff821117156113b8576113b7611361565b5b80604052505050565b60006113cb61123e565b90506113d78282611390565b919050565b600067ffffffffffffffff8211156113f7576113f6611361565b5b602082029050602081019050919050565b600080fd5b600061142061141b846113dc565b6113c1565b9050808382526020820190506020840283018581111561144357611442611408565b5b835b8181101561146c5780611458888261129b565b845260208401935050602081019050611445565b5050509392505050565b600082601f83011261148b5761148a61135c565b5b813561149b84826020860161140d565b91505092915050565b6000806000606084860312156114bd576114bc611248565b5b60006114cb868287016112d1565b93505060206114dc8682870161129b565b925050604084013567ffffffffffffffff8111156114fd576114fc61124d565b5b61150986828701611476565b9150509250925092565b61151c816112b0565b82525050565b60006020820190506115376000830184611513565b92915050565b60008060006060848603121561155657611555611248565b5b60006115648682870161129b565b93505060206115758682870161129b565b9250506040611586868287016112d1565b9150509250925092565b600060ff82169050919050565b6115a681611590565b82525050565b60006020820190506115c1600083018461159d565b92915050565b600067ffffffffffffffff8211156115e2576115e1611361565b5b602082029050602081019050919050565b6000611606611601846115c7565b6113c1565b9050808382526020820190506020840283018581111561162957611628611408565b5b835b81811015611652578061163e88826112d1565b84526020840193505060208101905061162b565b5050509392505050565b600082601f8301126116715761167061135c565b5b81356116818482602086016115f3565b91505092915050565b600080600080608085870312156116a4576116a3611248565b5b60006116b2878288016112d1565b945050602085013567ffffffffffffffff8111156116d3576116d261124d565b5b6116df87828801611476565b935050604085013567ffffffffffffffff811115611700576116ff61124d565b5b61170c8782880161165c565b925050606061171d878288016112d1565b91505092959194509250565b60006020828403121561173f5761173e611248565b5b600061174d848285016112d1565b91505092915050565b600081519050919050565b600082825260208201905092915050565b6000819050602082019050919050565b61178b81611272565b82525050565b600061179d8383611782565b60208301905092915050565b6000602082019050919050565b60006117c182611756565b6117cb8185611761565b93506117d683611772565b8060005b838110156118075781516117ee8882611791565b97506117f9836117a9565b9250506001810190506117da565b5085935050505092915050565b6000602082019050818103600083015261182e81846117b6565b905092915050565b60006020828403121561184c5761184b611248565b5b600061185a8482850161129b565b91505092915050565b61186c81611272565b82525050565b60006020820190506118876000830184611863565b92915050565b600081519050919050565b600082825260208201905092915050565b6000819050602082019050919050565b6118c2816112b0565b82525050565b60006118d483836118b9565b60208301905092915050565b6000602082019050919050565b60006118f88261188d565b6119028185611898565b935061190d836118a9565b8060005b8381101561193e57815161192588826118c8565b9750611930836118e0565b925050600181019050611911565b5085935050505092915050565b6000602082019050818103600083015261196581846118ed565b905092915050565b6000806040838503121561198457611983611248565b5b6000611992858286016112d1565b92505060206119a38582860161129b565b9150509250929050565b600080604083850312156119c4576119c3611248565b5b60006119d28582860161129b565b92505060206119e38582860161129b565b9150509250929050565b7f4e487b7100000000000000000000000000000000000000000000000000000000600052602260045260246000fd5b60006002820490506001821680611a3457607f821691505b602082108103611a4757611a466119ed565b5b50919050565b7f4e487b7100000000000000000000000000000000000000000000000000000000600052601160045260246000fd5b6000611a87826112b0565b9150611a92836112b0565b9250827fffffffffffffffffffffffffffffffffffffffffffffffffffffffffffffffff03821115611ac757611ac6611a4d565b5b828201905092915050565b7f4e487b7100000000000000000000000000000000000000000000000000000000600052603260045260246000fd5b6000611b0c82611590565b915060ff8203611b1f57611b1e611a4d565b5b600182019050919050565b7f45524332303a2064656372656173656420616c6c6f77616e63652062656c6f7760008201527f207a65726f000000000000000000000000000000000000000000000000000000602082015250565b6000611b8660258361118e565b9150611b9182611b2a565b604082019050919050565b60006020820190508181036000830152611bb581611b79565b9050919050565b6000611bc7826112b0565b9150611bd2836112b0565b9250817fffffffffffffffffffffffffffffffffffffffffffffffffffffffffffffffff0483118215151615611c0b57611c0a611a4d565b5b828202905092915050565b7f45524332303a20617070726f76652066726f6d20746865207a65726f2061646460008201527f7265737300000000000000000000000000000000000000000000000000000000602082015250565b6000611c7260248361118e565b9150611c7d82611c16565b604082019050919050565b60006020820190508181036000830152611ca181611c65565b9050919050565b7f45524332303a20617070726f766520746f20746865207a65726f20616464726560008201527f7373000000000000000000000000000000000000000000000000000000000000602082015250565b6000611d0460228361118e565b9150611d0f82611ca8565b604082019050919050565b60006020820190508181036000830152611d3381611cf7565b9050919050565b7f45524332303a207472616e736665722066726f6d20746865207a65726f20616460008201527f6472657373000000000000000000000000000000000000000000000000000000602082015250565b6000611d9660258361118e565b9150611da182611d3a565b604082019050919050565b60006020820190508181036000830152611dc581611d89565b9050919050565b7f45524332303a207472616e7366657220746f20746865207a65726f206164647260008201527f6573730000000000000000000000000000000000000000000000000000000000602082015250565b6000611e2860238361118e565b9150611e3382611dcc565b604082019050919050565b60006020820190508181036000830152611e5781611e1b565b9050919050565b7f45524332303a207472616e7366657220616d6f756e742065786365656473206260008201527f616c616e63650000000000000000000000000000000000000000000000000000602082015250565b6000611eba60268361118e565b9150611ec582611e5e565b604082019050919050565b60006020820190508181036000830152611ee981611ead565b9050919050565b7f45524332303a206d696e7420746f20746865207a65726f206164647265737300600082015250565b6000611f26601f8361118e565b9150611f3182611ef0565b602082019050919050565b60006020820190508181036000830152611f5581611f19565b905091905056fea2646970667358221220468d749f9e0bfbc8ce8c108cb78f2b899db193bc767e03396582fd62046f1daa64736f6c634300080d0033",
  "immutableReferences": {},
  "source": "pragma solidity ^0.8.3;\n\nimport '../client/node_modules/openzeppelin-solidity/contracts/token/ERC20/ERC20.sol';\n\ncontract SeverStore is ERC20{\n\n    constructor() ERC20(\"Thread\", \"THRe\") {\n        //_mint(msg.sender, 10*10**18);\n    }\n    struct playTeam {\n        string title;\n        address[] name;\n        address owner;\n        uint[] stake;\n        uint price;\n    }\n    mapping(uint => playTeam) history;\n    uint countMint = 0;\n\n    function putBlock(\n        uint _team, \n        address[] memory _ptcp, \n        uint[] memory _stake, \n        uint _price)\n    external\n    {\n        uint8 iterA = 0;\n        while(iterA != _ptcp.length)\n        {\n            history[_team].name.push(_ptcp[iterA]);\n            history[_team].stake.push(_stake[iterA]);\n            ++iterA;\n        }\n        history[_team].price = _price;\n    }\n    function minting(uint _team, address[] memory _ptcp)\n    internal\n    {//_stake = at 0.001\n        uint8 iterA = 0;\n        while(iterA != _ptcp.length)\n        {\n            _mint(_ptcp[iterA], 1*10**15*history[_team].stake[iterA]);\n            ++iterA;\n            //countMint += 1*10**15*history[_team].stake[iterA];\n        }\n    }\n    function retrieve(uint _value, address _editor)\n    external\n    {\n        _mint(_editor, 1*10**15*_value);\n        countMint += 1*10**15*_value;\n    }\n    function purchase(\n        uint _team, \n        address _buyer, \n        address[] memory _ptcp)\n    external\n    {\n        history[_team].owner = _buyer;\n        minting(_team, _ptcp);\n    }\n    function getPtcp(uint _team) public view returns(address[] memory){\n        return history[_team].name;\n    }\n    function getStake(uint _team) public view returns(uint[] memory){\n        return history[_team].stake;\n    }\n    function getOwner(uint _team) public view returns(address){\n        return history[_team].owner;\n    }\n    function getPrice(uint _team) public view returns(uint){\n        return history[_team].price;\n    }\n}\n\n//[\"0x5B38Da6a701c568545dCfcB03FcB875f56beddC4\", \"0xAb8483F64d9C6d1EcF9b849Ae677dD3315835cb2\"]\n//[\"hasha\", \"hashb\"]",
  "sourcePath": "/home/giparang/threadweb/pogre/trufflebox/contracts/SeverStore.sol",
  "compiler": {
    "name": "solc",
    "version": "0.8.13+commit.abaa5c0e.Emscripten.clang"
  },
  "schemaVersion": "3.4.6",
  "updatedAt": "2022-03-28T04:58:26.165Z",
  "devdoc": {
    "kind": "dev",
    "methods": {
      "allowance(address,address)": {
        "details": "See {IERC20-allowance}."
      },
      "approve(address,uint256)": {
        "details": "See {IERC20-approve}. Requirements: - `spender` cannot be the zero address."
      },
      "balanceOf(address)": {
        "details": "See {IERC20-balanceOf}."
      },
      "decimals()": {
        "details": "Returns the number of decimals used to get its user representation. For example, if `decimals` equals `2`, a balance of `505` tokens should be displayed to a user as `5.05` (`505 / 10 ** 2`). Tokens usually opt for a value of 18, imitating the relationship between Ether and Wei. This is the value {ERC20} uses, unless this function is overridden; NOTE: This information is only used for _display_ purposes: it in no way affects any of the arithmetic of the contract, including {IERC20-balanceOf} and {IERC20-transfer}."
      },
      "decreaseAllowance(address,uint256)": {
        "details": "Atomically decreases the allowance granted to `spender` by the caller. This is an alternative to {approve} that can be used as a mitigation for problems described in {IERC20-approve}. Emits an {Approval} event indicating the updated allowance. Requirements: - `spender` cannot be the zero address. - `spender` must have allowance for the caller of at least `subtractedValue`."
      },
      "increaseAllowance(address,uint256)": {
        "details": "Atomically increases the allowance granted to `spender` by the caller. This is an alternative to {approve} that can be used as a mitigation for problems described in {IERC20-approve}. Emits an {Approval} event indicating the updated allowance. Requirements: - `spender` cannot be the zero address."
      },
      "name()": {
        "details": "Returns the name of the token."
      },
      "symbol()": {
        "details": "Returns the symbol of the token, usually a shorter version of the name."
      },
      "totalSupply()": {
        "details": "See {IERC20-totalSupply}."
      },
      "transfer(address,uint256)": {
        "details": "See {IERC20-transfer}. Requirements: - `recipient` cannot be the zero address. - the caller must have a balance of at least `amount`."
      },
      "transferFrom(address,address,uint256)": {
        "details": "See {IERC20-transferFrom}. Emits an {Approval} event indicating the updated allowance. This is not required by the EIP. See the note at the beginning of {ERC20}. Requirements: - `sender` and `recipient` cannot be the zero address. - `sender` must have a balance of at least `amount`. - the caller must have allowance for ``sender``'s tokens of at least `amount`."
      }
    },
    "version": 1
  },
  "userdoc": {
    "kind": "user",
    "methods": {},
    "version": 1
  }
}