{
  "contractName": "ThreItems",
  "abi": [
    {
      "inputs": [],
      "stateMutability": "nonpayable",
      "type": "constructor"
    },
    {
      "anonymous": false,
      "inputs": [
        {
          "indexed": true,
          "internalType": "address",
          "name": "owner",
          "type": "address"
        },
        {
          "indexed": true,
          "internalType": "address",
          "name": "approved",
          "type": "address"
        },
        {
          "indexed": true,
          "internalType": "uint256",
          "name": "tokenId",
          "type": "uint256"
        }
      ],
      "name": "Approval",
      "type": "event"
    },
    {
      "anonymous": false,
      "inputs": [
        {
          "indexed": true,
          "internalType": "address",
          "name": "owner",
          "type": "address"
        },
        {
          "indexed": true,
          "internalType": "address",
          "name": "operator",
          "type": "address"
        },
        {
          "indexed": false,
          "internalType": "bool",
          "name": "approved",
          "type": "bool"
        }
      ],
      "name": "ApprovalForAll",
      "type": "event"
    },
    {
      "anonymous": false,
      "inputs": [
        {
          "indexed": true,
          "internalType": "address",
          "name": "from",
          "type": "address"
        },
        {
          "indexed": true,
          "internalType": "address",
          "name": "to",
          "type": "address"
        },
        {
          "indexed": true,
          "internalType": "uint256",
          "name": "tokenId",
          "type": "uint256"
        }
      ],
      "name": "Transfer",
      "type": "event"
    },
    {
      "inputs": [
        {
          "internalType": "address",
          "name": "to",
          "type": "address"
        },
        {
          "internalType": "uint256",
          "name": "tokenId",
          "type": "uint256"
        }
      ],
      "name": "approve",
      "outputs": [],
      "stateMutability": "nonpayable",
      "type": "function"
    },
    {
      "inputs": [
        {
          "internalType": "address",
          "name": "owner",
          "type": "address"
        }
      ],
      "name": "balanceOf",
      "outputs": [
        {
          "internalType": "uint256",
          "name": "",
          "type": "uint256"
        }
      ],
      "stateMutability": "view",
      "type": "function",
      "constant": true
    },
    {
      "inputs": [
        {
          "internalType": "uint256",
          "name": "tokenId",
          "type": "uint256"
        }
      ],
      "name": "getApproved",
      "outputs": [
        {
          "internalType": "address",
          "name": "",
          "type": "address"
        }
      ],
      "stateMutability": "view",
      "type": "function",
      "constant": true
    },
    {
      "inputs": [
        {
          "internalType": "address",
          "name": "owner",
          "type": "address"
        },
        {
          "internalType": "address",
          "name": "operator",
          "type": "address"
        }
      ],
      "name": "isApprovedForAll",
      "outputs": [
        {
          "internalType": "bool",
          "name": "",
          "type": "bool"
        }
      ],
      "stateMutability": "view",
      "type": "function",
      "constant": true
    },
    {
      "inputs": [],
      "name": "name",
      "outputs": [
        {
          "internalType": "string",
          "name": "",
          "type": "string"
        }
      ],
      "stateMutability": "view",
      "type": "function",
      "constant": true
    },
    {
      "inputs": [
        {
          "internalType": "uint256",
          "name": "tokenId",
          "type": "uint256"
        }
      ],
      "name": "ownerOf",
      "outputs": [
        {
          "internalType": "address",
          "name": "",
          "type": "address"
        }
      ],
      "stateMutability": "view",
      "type": "function",
      "constant": true
    },
    {
      "inputs": [
        {
          "internalType": "address",
          "name": "from",
          "type": "address"
        },
        {
          "internalType": "address",
          "name": "to",
          "type": "address"
        },
        {
          "internalType": "uint256",
          "name": "tokenId",
          "type": "uint256"
        }
      ],
      "name": "safeTransferFrom",
      "outputs": [],
      "stateMutability": "nonpayable",
      "type": "function"
    },
    {
      "inputs": [
        {
          "internalType": "address",
          "name": "from",
          "type": "address"
        },
        {
          "internalType": "address",
          "name": "to",
          "type": "address"
        },
        {
          "internalType": "uint256",
          "name": "tokenId",
          "type": "uint256"
        },
        {
          "internalType": "bytes",
          "name": "_data",
          "type": "bytes"
        }
      ],
      "name": "safeTransferFrom",
      "outputs": [],
      "stateMutability": "nonpayable",
      "type": "function"
    },
    {
      "inputs": [
        {
          "internalType": "address",
          "name": "operator",
          "type": "address"
        },
        {
          "internalType": "bool",
          "name": "approved",
          "type": "bool"
        }
      ],
      "name": "setApprovalForAll",
      "outputs": [],
      "stateMutability": "nonpayable",
      "type": "function"
    },
    {
      "inputs": [
        {
          "internalType": "bytes4",
          "name": "interfaceId",
          "type": "bytes4"
        }
      ],
      "name": "supportsInterface",
      "outputs": [
        {
          "internalType": "bool",
          "name": "",
          "type": "bool"
        }
      ],
      "stateMutability": "view",
      "type": "function",
      "constant": true
    },
    {
      "inputs": [],
      "name": "symbol",
      "outputs": [
        {
          "internalType": "string",
          "name": "",
          "type": "string"
        }
      ],
      "stateMutability": "view",
      "type": "function",
      "constant": true
    },
    {
      "inputs": [
        {
          "internalType": "uint256",
          "name": "tokenId",
          "type": "uint256"
        }
      ],
      "name": "tokenURI",
      "outputs": [
        {
          "internalType": "string",
          "name": "",
          "type": "string"
        }
      ],
      "stateMutability": "view",
      "type": "function",
      "constant": true
    },
    {
      "inputs": [
        {
          "internalType": "address",
          "name": "from",
          "type": "address"
        },
        {
          "internalType": "address",
          "name": "to",
          "type": "address"
        },
        {
          "internalType": "uint256",
          "name": "tokenId",
          "type": "uint256"
        }
      ],
      "name": "transferFrom",
      "outputs": [],
      "stateMutability": "nonpayable",
      "type": "function"
    },
    {
      "inputs": [
        {
          "internalType": "address",
          "name": "player",
          "type": "address"
        },
        {
          "internalType": "string",
          "name": "tokenURI",
          "type": "string"
        }
      ],
      "name": "mintItem",
      "outputs": [
        {
          "internalType": "uint256",
          "name": "",
          "type": "uint256"
        }
      ],
      "stateMutability": "nonpayable",
      "type": "function"
    },
    {
      "inputs": [],
      "name": "getTotalSupp",
      "outputs": [
        {
          "internalType": "uint256",
          "name": "",
          "type": "uint256"
        }
      ],
      "stateMutability": "view",
      "type": "function",
      "constant": true
    },
    {
      "inputs": [],
      "name": "connectionTecs",
      "outputs": [
        {
          "internalType": "string",
          "name": "",
          "type": "string"
        }
      ],
      "stateMutability": "view",
      "type": "function",
      "constant": true
    }
  ],
  "bytecode": "0x60806040526040518060400160405280600981526020017f6661726577656c6c2e0000000000000000000000000000000000000000000000815250600890805190602001906200005192919062000106565b503480156200005f57600080fd5b506040518060400160405280600a81526020017f546872656164734e4654000000000000000000000000000000000000000000008152506040518060400160405280600481526020017f5452654e000000000000000000000000000000000000000000000000000000008152508160009080519060200190620000e492919062000106565b508060019080519060200190620000fd92919062000106565b5050506200021a565b8280546200011490620001e5565b90600052602060002090601f01602090048101928262000138576000855562000184565b82601f106200015357805160ff191683800117855562000184565b8280016001018555821562000184579182015b828111156200018357825182559160200191906001019062000166565b5b50905062000193919062000197565b5090565b5b80821115620001b257600081600090555060010162000198565b5090565b7f4e487b7100000000000000000000000000000000000000000000000000000000600052602260045260246000fd5b60006002820490506001821680620001fe57607f821691505b602082108103620002145762000213620001b6565b5b50919050565b612c80806200022a6000396000f3fe608060405234801561001057600080fd5b50600436106101005760003560e01c806370a0823111610097578063a9bed1db11610066578063a9bed1db146102bf578063b88d4fde146102dd578063c87b56dd146102f9578063e985e9c51461032957610100565b806370a082311461023757806380e869711461026757806395d89b4114610285578063a22cb465146102a357610100565b8063110bcd45116100d3578063110bcd451461019f57806323b872dd146101cf57806342842e0e146101eb5780636352211e1461020757610100565b806301ffc9a71461010557806306fdde0314610135578063081812fc14610153578063095ea7b314610183575b600080fd5b61011f600480360381019061011a91906119e4565b610359565b60405161012c9190611a2c565b60405180910390f35b61013d61043b565b60405161014a9190611ae0565b60405180910390f35b61016d60048036038101906101689190611b38565b6104cd565b60405161017a9190611ba6565b60405180910390f35b61019d60048036038101906101989190611bed565b610552565b005b6101b960048036038101906101b49190611d62565b610669565b6040516101c69190611dcd565b60405180910390f35b6101e960048036038101906101e49190611de8565b6106a1565b005b61020560048036038101906102009190611de8565b610701565b005b610221600480360381019061021c9190611b38565b610721565b60405161022e9190611ba6565b60405180910390f35b610251600480360381019061024c9190611e3b565b6107d2565b60405161025e9190611dcd565b60405180910390f35b61026f610889565b60405161027c9190611ae0565b60405180910390f35b61028d61091b565b60405161029a9190611ae0565b60405180910390f35b6102bd60048036038101906102b89190611e94565b6109ad565b005b6102c76109c3565b6040516102d49190611dcd565b60405180910390f35b6102f760048036038101906102f29190611f75565b6109d4565b005b610313600480360381019061030e9190611b38565b610a36565b6040516103209190611ae0565b60405180910390f35b610343600480360381019061033e9190611ff8565b610b87565b6040516103509190611a2c565b60405180910390f35b60007f80ac58cd000000000000000000000000000000000000000000000000000000007bffffffffffffffffffffffffffffffffffffffffffffffffffffffff1916827bffffffffffffffffffffffffffffffffffffffffffffffffffffffff1916148061042457507f5b5e139f000000000000000000000000000000000000000000000000000000007bffffffffffffffffffffffffffffffffffffffffffffffffffffffff1916827bffffffffffffffffffffffffffffffffffffffffffffffffffffffff1916145b80610434575061043382610c1b565b5b9050919050565b60606000805461044a90612067565b80601f016020809104026020016040519081016040528092919081815260200182805461047690612067565b80156104c35780601f10610498576101008083540402835291602001916104c3565b820191906000526020600020905b8154815290600101906020018083116104a657829003601f168201915b5050505050905090565b60006104d882610c85565b610517576040517f08c379a000000000000000000000000000000000000000000000000000000000815260040161050e9061210a565b60405180910390fd5b6004600083815260200190815260200160002060009054906101000a900473ffffffffffffffffffffffffffffffffffffffff169050919050565b600061055d82610721565b90508073ffffffffffffffffffffffffffffffffffffffff168373ffffffffffffffffffffffffffffffffffffffff16036105cd576040517f08c379a00000000000000000000000000000000000000000000000000000000081526004016105c49061219c565b60405180910390fd5b8073ffffffffffffffffffffffffffffffffffffffff166105ec610cf1565b73ffffffffffffffffffffffffffffffffffffffff16148061061b575061061a81610615610cf1565b610b87565b5b61065a576040517f08c379a00000000000000000000000000000000000000000000000000000000081526004016106519061222e565b60405180910390fd5b6106648383610cf9565b505050565b60006106756007610db2565b60006106816007610dc8565b905061068d8482610dd6565b6106978184610fa3565b8091505092915050565b6106b26106ac610cf1565b82611017565b6106f1576040517f08c379a00000000000000000000000000000000000000000000000000000000081526004016106e8906122c0565b60405180910390fd5b6106fc8383836110f5565b505050565b61071c838383604051806020016040528060008152506109d4565b505050565b6000806002600084815260200190815260200160002060009054906101000a900473ffffffffffffffffffffffffffffffffffffffff169050600073ffffffffffffffffffffffffffffffffffffffff168173ffffffffffffffffffffffffffffffffffffffff16036107c9576040517f08c379a00000000000000000000000000000000000000000000000000000000081526004016107c090612352565b60405180910390fd5b80915050919050565b60008073ffffffffffffffffffffffffffffffffffffffff168273ffffffffffffffffffffffffffffffffffffffff1603610842576040517f08c379a0000000000000000000000000000000000000000000000000000000008152600401610839906123e4565b60405180910390fd5b600360008373ffffffffffffffffffffffffffffffffffffffff1673ffffffffffffffffffffffffffffffffffffffff168152602001908152602001600020549050919050565b60606008805461089890612067565b80601f01602080910402602001604051908101604052809291908181526020018280546108c490612067565b80156109115780601f106108e657610100808354040283529160200191610911565b820191906000526020600020905b8154815290600101906020018083116108f457829003601f168201915b5050505050905090565b60606001805461092a90612067565b80601f016020809104026020016040519081016040528092919081815260200182805461095690612067565b80156109a35780601f10610978576101008083540402835291602001916109a3565b820191906000526020600020905b81548152906001019060200180831161098657829003601f168201915b5050505050905090565b6109bf6109b8610cf1565b8383611350565b5050565b60006109cf6007610dc8565b905090565b6109e56109df610cf1565b83611017565b610a24576040517f08c379a0000000000000000000000000000000000000000000000000000000008152600401610a1b906122c0565b60405180910390fd5b610a30848484846114bc565b50505050565b6060610a4182610c85565b610a80576040517f08c379a0000000000000000000000000000000000000000000000000000000008152600401610a7790612476565b60405180910390fd5b6000600660008481526020019081526020016000208054610aa090612067565b80601f0160208091040260200160405190810160405280929190818152602001828054610acc90612067565b8015610b195780601f10610aee57610100808354040283529160200191610b19565b820191906000526020600020905b815481529060010190602001808311610afc57829003601f168201915b505050505090506000610b2a611518565b90506000815103610b3f578192505050610b82565b600082511115610b74578082604051602001610b5c9291906124d2565b60405160208183030381529060405292505050610b82565b610b7d8461152f565b925050505b919050565b6000600560008473ffffffffffffffffffffffffffffffffffffffff1673ffffffffffffffffffffffffffffffffffffffff16815260200190815260200160002060008373ffffffffffffffffffffffffffffffffffffffff1673ffffffffffffffffffffffffffffffffffffffff16815260200190815260200160002060009054906101000a900460ff16905092915050565b60007f01ffc9a7000000000000000000000000000000000000000000000000000000007bffffffffffffffffffffffffffffffffffffffffffffffffffffffff1916827bffffffffffffffffffffffffffffffffffffffffffffffffffffffff1916149050919050565b60008073ffffffffffffffffffffffffffffffffffffffff166002600084815260200190815260200160002060009054906101000a900473ffffffffffffffffffffffffffffffffffffffff1673ffffffffffffffffffffffffffffffffffffffff1614159050919050565b600033905090565b816004600083815260200190815260200160002060006101000a81548173ffffffffffffffffffffffffffffffffffffffff021916908373ffffffffffffffffffffffffffffffffffffffff160217905550808273ffffffffffffffffffffffffffffffffffffffff16610d6c83610721565b73ffffffffffffffffffffffffffffffffffffffff167f8c5be1e5ebec7d5bd14f71427d1e84f3dd0314c0f7b2291e5b200ac8c7c3b92560405160405180910390a45050565b6001816000016000828254019250508190555050565b600081600001549050919050565b600073ffffffffffffffffffffffffffffffffffffffff168273ffffffffffffffffffffffffffffffffffffffff1603610e45576040517f08c379a0000000000000000000000000000000000000000000000000000000008152600401610e3c90612542565b60405180910390fd5b610e4e81610c85565b15610e8e576040517f08c379a0000000000000000000000000000000000000000000000000000000008152600401610e85906125ae565b60405180910390fd5b610e9a600083836115d6565b6001600360008473ffffffffffffffffffffffffffffffffffffffff1673ffffffffffffffffffffffffffffffffffffffff1681526020019081526020016000206000828254610eea91906125fd565b92505081905550816002600083815260200190815260200160002060006101000a81548173ffffffffffffffffffffffffffffffffffffffff021916908373ffffffffffffffffffffffffffffffffffffffff160217905550808273ffffffffffffffffffffffffffffffffffffffff16600073ffffffffffffffffffffffffffffffffffffffff167fddf252ad1be2c89b69c2b068fc378daa952ba7f163c4a11628f55a4df523b3ef60405160405180910390a45050565b610fac82610c85565b610feb576040517f08c379a0000000000000000000000000000000000000000000000000000000008152600401610fe2906126c5565b60405180910390fd5b806006600084815260200190815260200160002090805190602001906110129291906118d5565b505050565b600061102282610c85565b611061576040517f08c379a000000000000000000000000000000000000000000000000000000000815260040161105890612757565b60405180910390fd5b600061106c83610721565b90508073ffffffffffffffffffffffffffffffffffffffff168473ffffffffffffffffffffffffffffffffffffffff1614806110db57508373ffffffffffffffffffffffffffffffffffffffff166110c3846104cd565b73ffffffffffffffffffffffffffffffffffffffff16145b806110ec57506110eb8185610b87565b5b91505092915050565b8273ffffffffffffffffffffffffffffffffffffffff1661111582610721565b73ffffffffffffffffffffffffffffffffffffffff161461116b576040517f08c379a0000000000000000000000000000000000000000000000000000000008152600401611162906127e9565b60405180910390fd5b600073ffffffffffffffffffffffffffffffffffffffff168273ffffffffffffffffffffffffffffffffffffffff16036111da576040517f08c379a00000000000000000000000000000000000000000000000000000000081526004016111d19061287b565b60405180910390fd5b6111e58383836115d6565b6111f0600082610cf9565b6001600360008573ffffffffffffffffffffffffffffffffffffffff1673ffffffffffffffffffffffffffffffffffffffff1681526020019081526020016000206000828254611240919061289b565b925050819055506001600360008473ffffffffffffffffffffffffffffffffffffffff1673ffffffffffffffffffffffffffffffffffffffff168152602001908152602001600020600082825461129791906125fd565b92505081905550816002600083815260200190815260200160002060006101000a81548173ffffffffffffffffffffffffffffffffffffffff021916908373ffffffffffffffffffffffffffffffffffffffff160217905550808273ffffffffffffffffffffffffffffffffffffffff168473ffffffffffffffffffffffffffffffffffffffff167fddf252ad1be2c89b69c2b068fc378daa952ba7f163c4a11628f55a4df523b3ef60405160405180910390a4505050565b8173ffffffffffffffffffffffffffffffffffffffff168373ffffffffffffffffffffffffffffffffffffffff16036113be576040517f08c379a00000000000000000000000000000000000000000000000000000000081526004016113b59061291b565b60405180910390fd5b80600560008573ffffffffffffffffffffffffffffffffffffffff1673ffffffffffffffffffffffffffffffffffffffff16815260200190815260200160002060008473ffffffffffffffffffffffffffffffffffffffff1673ffffffffffffffffffffffffffffffffffffffff16815260200190815260200160002060006101000a81548160ff0219169083151502179055508173ffffffffffffffffffffffffffffffffffffffff168373ffffffffffffffffffffffffffffffffffffffff167f17307eab39ab6107e8899845ad3d59bd9653f200f220920489ca2b5937696c31836040516114af9190611a2c565b60405180910390a3505050565b6114c78484846110f5565b6114d3848484846115db565b611512576040517f08c379a0000000000000000000000000000000000000000000000000000000008152600401611509906129ad565b60405180910390fd5b50505050565b606060405180602001604052806000815250905090565b606061153a82610c85565b611579576040517f08c379a000000000000000000000000000000000000000000000000000000000815260040161157090612a3f565b60405180910390fd5b6000611583611518565b905060008151116115a357604051806020016040528060008152506115ce565b806115ad84611762565b6040516020016115be9291906124d2565b6040516020818303038152906040525b915050919050565b505050565b60006115fc8473ffffffffffffffffffffffffffffffffffffffff166118c2565b15611755578373ffffffffffffffffffffffffffffffffffffffff1663150b7a02611625610cf1565b8786866040518563ffffffff1660e01b81526004016116479493929190612ab4565b6020604051808303816000875af192505050801561168357506040513d601f19601f820116820180604052508101906116809190612b15565b60015b611705573d80600081146116b3576040519150601f19603f3d011682016040523d82523d6000602084013e6116b8565b606091505b5060008151036116fd576040517f08c379a00000000000000000000000000000000000000000000000000000000081526004016116f4906129ad565b60405180910390fd5b805181602001fd5b63150b7a0260e01b7bffffffffffffffffffffffffffffffffffffffffffffffffffffffff1916817bffffffffffffffffffffffffffffffffffffffffffffffffffffffff19161491505061175a565b600190505b949350505050565b6060600082036117a9576040518060400160405280600181526020017f300000000000000000000000000000000000000000000000000000000000000081525090506118bd565b600082905060005b600082146117db5780806117c490612b42565b915050600a826117d49190612bb9565b91506117b1565b60008167ffffffffffffffff8111156117f7576117f6611c37565b5b6040519080825280601f01601f1916602001820160405280156118295781602001600182028036833780820191505090505b5090505b600085146118b657600182611842919061289b565b9150600a856118519190612bea565b603061185d91906125fd565b60f81b81838151811061187357611872612c1b565b5b60200101907effffffffffffffffffffffffffffffffffffffffffffffffffffffffffffff1916908160001a905350600a856118af9190612bb9565b945061182d565b8093505050505b919050565b600080823b905060008111915050919050565b8280546118e190612067565b90600052602060002090601f016020900481019282611903576000855561194a565b82601f1061191c57805160ff191683800117855561194a565b8280016001018555821561194a579182015b8281111561194957825182559160200191906001019061192e565b5b509050611957919061195b565b5090565b5b8082111561197457600081600090555060010161195c565b5090565b6000604051905090565b600080fd5b600080fd5b60007fffffffff0000000000000000000000000000000000000000000000000000000082169050919050565b6119c18161198c565b81146119cc57600080fd5b50565b6000813590506119de816119b8565b92915050565b6000602082840312156119fa576119f9611982565b5b6000611a08848285016119cf565b91505092915050565b60008115159050919050565b611a2681611a11565b82525050565b6000602082019050611a416000830184611a1d565b92915050565b600081519050919050565b600082825260208201905092915050565b60005b83811015611a81578082015181840152602081019050611a66565b83811115611a90576000848401525b50505050565b6000601f19601f8301169050919050565b6000611ab282611a47565b611abc8185611a52565b9350611acc818560208601611a63565b611ad581611a96565b840191505092915050565b60006020820190508181036000830152611afa8184611aa7565b905092915050565b6000819050919050565b611b1581611b02565b8114611b2057600080fd5b50565b600081359050611b3281611b0c565b92915050565b600060208284031215611b4e57611b4d611982565b5b6000611b5c84828501611b23565b91505092915050565b600073ffffffffffffffffffffffffffffffffffffffff82169050919050565b6000611b9082611b65565b9050919050565b611ba081611b85565b82525050565b6000602082019050611bbb6000830184611b97565b92915050565b611bca81611b85565b8114611bd557600080fd5b50565b600081359050611be781611bc1565b92915050565b60008060408385031215611c0457611c03611982565b5b6000611c1285828601611bd8565b9250506020611c2385828601611b23565b9150509250929050565b600080fd5b600080fd5b7f4e487b7100000000000000000000000000000000000000000000000000000000600052604160045260246000fd5b611c6f82611a96565b810181811067ffffffffffffffff82111715611c8e57611c8d611c37565b5b80604052505050565b6000611ca1611978565b9050611cad8282611c66565b919050565b600067ffffffffffffffff821115611ccd57611ccc611c37565b5b611cd682611a96565b9050602081019050919050565b82818337600083830152505050565b6000611d05611d0084611cb2565b611c97565b905082815260208101848484011115611d2157611d20611c32565b5b611d2c848285611ce3565b509392505050565b600082601f830112611d4957611d48611c2d565b5b8135611d59848260208601611cf2565b91505092915050565b60008060408385031215611d7957611d78611982565b5b6000611d8785828601611bd8565b925050602083013567ffffffffffffffff811115611da857611da7611987565b5b611db485828601611d34565b9150509250929050565b611dc781611b02565b82525050565b6000602082019050611de26000830184611dbe565b92915050565b600080600060608486031215611e0157611e00611982565b5b6000611e0f86828701611bd8565b9350506020611e2086828701611bd8565b9250506040611e3186828701611b23565b9150509250925092565b600060208284031215611e5157611e50611982565b5b6000611e5f84828501611bd8565b91505092915050565b611e7181611a11565b8114611e7c57600080fd5b50565b600081359050611e8e81611e68565b92915050565b60008060408385031215611eab57611eaa611982565b5b6000611eb985828601611bd8565b9250506020611eca85828601611e7f565b9150509250929050565b600067ffffffffffffffff821115611eef57611eee611c37565b5b611ef882611a96565b9050602081019050919050565b6000611f18611f1384611ed4565b611c97565b905082815260208101848484011115611f3457611f33611c32565b5b611f3f848285611ce3565b509392505050565b600082601f830112611f5c57611f5b611c2d565b5b8135611f6c848260208601611f05565b91505092915050565b60008060008060808587031215611f8f57611f8e611982565b5b6000611f9d87828801611bd8565b9450506020611fae87828801611bd8565b9350506040611fbf87828801611b23565b925050606085013567ffffffffffffffff811115611fe057611fdf611987565b5b611fec87828801611f47565b91505092959194509250565b6000806040838503121561200f5761200e611982565b5b600061201d85828601611bd8565b925050602061202e85828601611bd8565b9150509250929050565b7f4e487b7100000000000000000000000000000000000000000000000000000000600052602260045260246000fd5b6000600282049050600182168061207f57607f821691505b60208210810361209257612091612038565b5b50919050565b7f4552433732313a20617070726f76656420717565727920666f72206e6f6e657860008201527f697374656e7420746f6b656e0000000000000000000000000000000000000000602082015250565b60006120f4602c83611a52565b91506120ff82612098565b604082019050919050565b60006020820190508181036000830152612123816120e7565b9050919050565b7f4552433732313a20617070726f76616c20746f2063757272656e74206f776e6560008201527f7200000000000000000000000000000000000000000000000000000000000000602082015250565b6000612186602183611a52565b91506121918261212a565b604082019050919050565b600060208201905081810360008301526121b581612179565b9050919050565b7f4552433732313a20617070726f76652063616c6c6572206973206e6f74206f7760008201527f6e6572206e6f7220617070726f76656420666f7220616c6c0000000000000000602082015250565b6000612218603883611a52565b9150612223826121bc565b604082019050919050565b600060208201905081810360008301526122478161220b565b9050919050565b7f4552433732313a207472616e736665722063616c6c6572206973206e6f74206f60008201527f776e6572206e6f7220617070726f766564000000000000000000000000000000602082015250565b60006122aa603183611a52565b91506122b58261224e565b604082019050919050565b600060208201905081810360008301526122d98161229d565b9050919050565b7f4552433732313a206f776e657220717565727920666f72206e6f6e657869737460008201527f656e7420746f6b656e0000000000000000000000000000000000000000000000602082015250565b600061233c602983611a52565b9150612347826122e0565b604082019050919050565b6000602082019050818103600083015261236b8161232f565b9050919050565b7f4552433732313a2062616c616e636520717565727920666f7220746865207a6560008201527f726f206164647265737300000000000000000000000000000000000000000000602082015250565b60006123ce602a83611a52565b91506123d982612372565b604082019050919050565b600060208201905081810360008301526123fd816123c1565b9050919050565b7f45524337323155524953746f726167653a2055524920717565727920666f722060008201527f6e6f6e6578697374656e7420746f6b656e000000000000000000000000000000602082015250565b6000612460603183611a52565b915061246b82612404565b604082019050919050565b6000602082019050818103600083015261248f81612453565b9050919050565b600081905092915050565b60006124ac82611a47565b6124b68185612496565b93506124c6818560208601611a63565b80840191505092915050565b60006124de82856124a1565b91506124ea82846124a1565b91508190509392505050565b7f4552433732313a206d696e7420746f20746865207a65726f2061646472657373600082015250565b600061252c602083611a52565b9150612537826124f6565b602082019050919050565b6000602082019050818103600083015261255b8161251f565b9050919050565b7f4552433732313a20746f6b656e20616c7265616479206d696e74656400000000600082015250565b6000612598601c83611a52565b91506125a382612562565b602082019050919050565b600060208201905081810360008301526125c78161258b565b9050919050565b7f4e487b7100000000000000000000000000000000000000000000000000000000600052601160045260246000fd5b600061260882611b02565b915061261383611b02565b9250827fffffffffffffffffffffffffffffffffffffffffffffffffffffffffffffffff03821115612648576126476125ce565b5b828201905092915050565b7f45524337323155524953746f726167653a2055524920736574206f66206e6f6e60008201527f6578697374656e7420746f6b656e000000000000000000000000000000000000602082015250565b60006126af602e83611a52565b91506126ba82612653565b604082019050919050565b600060208201905081810360008301526126de816126a2565b9050919050565b7f4552433732313a206f70657261746f7220717565727920666f72206e6f6e657860008201527f697374656e7420746f6b656e0000000000000000000000000000000000000000602082015250565b6000612741602c83611a52565b915061274c826126e5565b604082019050919050565b6000602082019050818103600083015261277081612734565b9050919050565b7f4552433732313a207472616e73666572206f6620746f6b656e2074686174206960008201527f73206e6f74206f776e0000000000000000000000000000000000000000000000602082015250565b60006127d3602983611a52565b91506127de82612777565b604082019050919050565b60006020820190508181036000830152612802816127c6565b9050919050565b7f4552433732313a207472616e7366657220746f20746865207a65726f2061646460008201527f7265737300000000000000000000000000000000000000000000000000000000602082015250565b6000612865602483611a52565b915061287082612809565b604082019050919050565b6000602082019050818103600083015261289481612858565b9050919050565b60006128a682611b02565b91506128b183611b02565b9250828210156128c4576128c36125ce565b5b828203905092915050565b7f4552433732313a20617070726f766520746f2063616c6c657200000000000000600082015250565b6000612905601983611a52565b9150612910826128cf565b602082019050919050565b60006020820190508181036000830152612934816128f8565b9050919050565b7f4552433732313a207472616e7366657220746f206e6f6e20455243373231526560008201527f63656976657220696d706c656d656e7465720000000000000000000000000000602082015250565b6000612997603283611a52565b91506129a28261293b565b604082019050919050565b600060208201905081810360008301526129c68161298a565b9050919050565b7f4552433732314d657461646174613a2055524920717565727920666f72206e6f60008201527f6e6578697374656e7420746f6b656e0000000000000000000000000000000000602082015250565b6000612a29602f83611a52565b9150612a34826129cd565b604082019050919050565b60006020820190508181036000830152612a5881612a1c565b9050919050565b600081519050919050565b600082825260208201905092915050565b6000612a8682612a5f565b612a908185612a6a565b9350612aa0818560208601611a63565b612aa981611a96565b840191505092915050565b6000608082019050612ac96000830187611b97565b612ad66020830186611b97565b612ae36040830185611dbe565b8181036060830152612af58184612a7b565b905095945050505050565b600081519050612b0f816119b8565b92915050565b600060208284031215612b2b57612b2a611982565b5b6000612b3984828501612b00565b91505092915050565b6000612b4d82611b02565b91507fffffffffffffffffffffffffffffffffffffffffffffffffffffffffffffffff8203612b7f57612b7e6125ce565b5b600182019050919050565b7f4e487b7100000000000000000000000000000000000000000000000000000000600052601260045260246000fd5b6000612bc482611b02565b9150612bcf83611b02565b925082612bdf57612bde612b8a565b5b828204905092915050565b6000612bf582611b02565b9150612c0083611b02565b925082612c1057612c0f612b8a565b5b828206905092915050565b7f4e487b7100000000000000000000000000000000000000000000000000000000600052603260045260246000fdfea26469706673582212204edb900c1006a8baba60a8cf2b49d0ac388cb1fc1a84a748aa4a3a61cb18350864736f6c634300080d0033",
  "immutableReferences": {},
  "source": "// SPDX-License-Identifier: MIT\npragma solidity ^0.8.3;\n\nimport \"../client/node_modules/openzeppelin-solidity/contracts/token/ERC721/ERC721.sol\";\nimport \"../client/node_modules/openzeppelin-solidity/contracts/token/ERC721/extensions/ERC721URIStorage.sol\";\nimport \"../client/node_modules/openzeppelin-solidity/contracts/utils/Counters.sol\";\n\ncontract ThreItems is ERC721URIStorage {\n    using Counters for Counters.Counter;\n    Counters.Counter private _tokenIds;\n\n    string connecTecs = \"farewell.\";\n\n    constructor(\n    ) ERC721(\"ThreadsNFT\", \"TReN\") {}\n\n    function mintItem(address player, string memory tokenURI)\n        public\n        returns (uint256)\n    {\n        _tokenIds.increment();\n\n        uint256 newItemId = _tokenIds.current();\n        _mint(player, newItemId);\n        _setTokenURI(newItemId, tokenURI);\n\n        return newItemId;\n    }\n    function getTotalSupp() public view returns(uint){\n        return _tokenIds.current();\n    }\n    function connectionTecs() public view returns(string memory){\n        return connecTecs;\n    }\n}",
  "sourcePath": "/home/giparang/threadweb/pogre/trufflebox/contracts/ThreItems.sol",
  "compiler": {
    "name": "solc",
    "version": "0.8.13+commit.abaa5c0e.Emscripten.clang"
  },
  "schemaVersion": "3.4.6",
  "updatedAt": "2022-03-30T06:21:14.867Z",
  "networkType": "ethereum",
  "devdoc": {
    "kind": "dev",
    "methods": {
      "approve(address,uint256)": {
        "details": "See {IERC721-approve}."
      },
      "balanceOf(address)": {
        "details": "See {IERC721-balanceOf}."
      },
      "getApproved(uint256)": {
        "details": "See {IERC721-getApproved}."
      },
      "isApprovedForAll(address,address)": {
        "details": "See {IERC721-isApprovedForAll}."
      },
      "name()": {
        "details": "See {IERC721Metadata-name}."
      },
      "ownerOf(uint256)": {
        "details": "See {IERC721-ownerOf}."
      },
      "safeTransferFrom(address,address,uint256)": {
        "details": "See {IERC721-safeTransferFrom}."
      },
      "safeTransferFrom(address,address,uint256,bytes)": {
        "details": "See {IERC721-safeTransferFrom}."
      },
      "setApprovalForAll(address,bool)": {
        "details": "See {IERC721-setApprovalForAll}."
      },
      "supportsInterface(bytes4)": {
        "details": "See {IERC165-supportsInterface}."
      },
      "symbol()": {
        "details": "See {IERC721Metadata-symbol}."
      },
      "tokenURI(uint256)": {
        "details": "See {IERC721Metadata-tokenURI}."
      },
      "transferFrom(address,address,uint256)": {
        "details": "See {IERC721-transferFrom}."
      }
    },
    "version": 1
  },
  "userdoc": {
    "kind": "user",
    "methods": {},
    "version": 1
  }
}