{
  "contractName": "ThreItems",
  "abi": [
    {
      "inputs": [],
      "stateMutability": "nonpayable",
      "type": "constructor"
    },
    {
      "anonymous": false,
      "inputs": [
        {
          "indexed": true,
          "internalType": "address",
          "name": "owner",
          "type": "address"
        },
        {
          "indexed": true,
          "internalType": "address",
          "name": "approved",
          "type": "address"
        },
        {
          "indexed": true,
          "internalType": "uint256",
          "name": "tokenId",
          "type": "uint256"
        }
      ],
      "name": "Approval",
      "type": "event"
    },
    {
      "anonymous": false,
      "inputs": [
        {
          "indexed": true,
          "internalType": "address",
          "name": "owner",
          "type": "address"
        },
        {
          "indexed": true,
          "internalType": "address",
          "name": "operator",
          "type": "address"
        },
        {
          "indexed": false,
          "internalType": "bool",
          "name": "approved",
          "type": "bool"
        }
      ],
      "name": "ApprovalForAll",
      "type": "event"
    },
    {
      "anonymous": false,
      "inputs": [
        {
          "indexed": true,
          "internalType": "address",
          "name": "from",
          "type": "address"
        },
        {
          "indexed": true,
          "internalType": "address",
          "name": "to",
          "type": "address"
        },
        {
          "indexed": true,
          "internalType": "uint256",
          "name": "tokenId",
          "type": "uint256"
        }
      ],
      "name": "Transfer",
      "type": "event"
    },
    {
      "inputs": [
        {
          "internalType": "address",
          "name": "to",
          "type": "address"
        },
        {
          "internalType": "uint256",
          "name": "tokenId",
          "type": "uint256"
        }
      ],
      "name": "approve",
      "outputs": [],
      "stateMutability": "nonpayable",
      "type": "function"
    },
    {
      "inputs": [
        {
          "internalType": "address",
          "name": "owner",
          "type": "address"
        }
      ],
      "name": "balanceOf",
      "outputs": [
        {
          "internalType": "uint256",
          "name": "",
          "type": "uint256"
        }
      ],
      "stateMutability": "view",
      "type": "function",
      "constant": true
    },
    {
      "inputs": [
        {
          "internalType": "uint256",
          "name": "tokenId",
          "type": "uint256"
        }
      ],
      "name": "getApproved",
      "outputs": [
        {
          "internalType": "address",
          "name": "",
          "type": "address"
        }
      ],
      "stateMutability": "view",
      "type": "function",
      "constant": true
    },
    {
      "inputs": [
        {
          "internalType": "address",
          "name": "owner",
          "type": "address"
        },
        {
          "internalType": "address",
          "name": "operator",
          "type": "address"
        }
      ],
      "name": "isApprovedForAll",
      "outputs": [
        {
          "internalType": "bool",
          "name": "",
          "type": "bool"
        }
      ],
      "stateMutability": "view",
      "type": "function",
      "constant": true
    },
    {
      "inputs": [],
      "name": "name",
      "outputs": [
        {
          "internalType": "string",
          "name": "",
          "type": "string"
        }
      ],
      "stateMutability": "view",
      "type": "function",
      "constant": true
    },
    {
      "inputs": [
        {
          "internalType": "uint256",
          "name": "tokenId",
          "type": "uint256"
        }
      ],
      "name": "ownerOf",
      "outputs": [
        {
          "internalType": "address",
          "name": "",
          "type": "address"
        }
      ],
      "stateMutability": "view",
      "type": "function",
      "constant": true
    },
    {
      "inputs": [
        {
          "internalType": "address",
          "name": "from",
          "type": "address"
        },
        {
          "internalType": "address",
          "name": "to",
          "type": "address"
        },
        {
          "internalType": "uint256",
          "name": "tokenId",
          "type": "uint256"
        }
      ],
      "name": "safeTransferFrom",
      "outputs": [],
      "stateMutability": "nonpayable",
      "type": "function"
    },
    {
      "inputs": [
        {
          "internalType": "address",
          "name": "from",
          "type": "address"
        },
        {
          "internalType": "address",
          "name": "to",
          "type": "address"
        },
        {
          "internalType": "uint256",
          "name": "tokenId",
          "type": "uint256"
        },
        {
          "internalType": "bytes",
          "name": "_data",
          "type": "bytes"
        }
      ],
      "name": "safeTransferFrom",
      "outputs": [],
      "stateMutability": "nonpayable",
      "type": "function"
    },
    {
      "inputs": [
        {
          "internalType": "address",
          "name": "operator",
          "type": "address"
        },
        {
          "internalType": "bool",
          "name": "approved",
          "type": "bool"
        }
      ],
      "name": "setApprovalForAll",
      "outputs": [],
      "stateMutability": "nonpayable",
      "type": "function"
    },
    {
      "inputs": [
        {
          "internalType": "bytes4",
          "name": "interfaceId",
          "type": "bytes4"
        }
      ],
      "name": "supportsInterface",
      "outputs": [
        {
          "internalType": "bool",
          "name": "",
          "type": "bool"
        }
      ],
      "stateMutability": "view",
      "type": "function",
      "constant": true
    },
    {
      "inputs": [],
      "name": "symbol",
      "outputs": [
        {
          "internalType": "string",
          "name": "",
          "type": "string"
        }
      ],
      "stateMutability": "view",
      "type": "function",
      "constant": true
    },
    {
      "inputs": [
        {
          "internalType": "uint256",
          "name": "tokenId",
          "type": "uint256"
        }
      ],
      "name": "tokenURI",
      "outputs": [
        {
          "internalType": "string",
          "name": "",
          "type": "string"
        }
      ],
      "stateMutability": "view",
      "type": "function",
      "constant": true
    },
    {
      "inputs": [
        {
          "internalType": "address",
          "name": "from",
          "type": "address"
        },
        {
          "internalType": "address",
          "name": "to",
          "type": "address"
        },
        {
          "internalType": "uint256",
          "name": "tokenId",
          "type": "uint256"
        }
      ],
      "name": "transferFrom",
      "outputs": [],
      "stateMutability": "nonpayable",
      "type": "function"
    },
    {
      "inputs": [
        {
          "internalType": "address",
          "name": "player",
          "type": "address"
        },
        {
          "internalType": "string",
          "name": "tokenURI",
          "type": "string"
        }
      ],
      "name": "mintItem",
      "outputs": [
        {
          "internalType": "uint256",
          "name": "",
          "type": "uint256"
        }
      ],
      "stateMutability": "nonpayable",
      "type": "function"
    },
    {
      "inputs": [],
      "name": "connectionTecs",
      "outputs": [
        {
          "internalType": "string",
          "name": "",
          "type": "string"
        }
      ],
      "stateMutability": "view",
      "type": "function",
      "constant": true
    }
  ],
  "bytecode": "0x60806040526040518060400160405280600881526020017f6661726577656c6c000000000000000000000000000000000000000000000000815250600890805190602001906200005192919062000106565b503480156200005f57600080fd5b506040518060400160405280600a81526020017f546872656164734e4654000000000000000000000000000000000000000000008152506040518060400160405280600481526020017f5452654e000000000000000000000000000000000000000000000000000000008152508160009080519060200190620000e492919062000106565b508060019080519060200190620000fd92919062000106565b5050506200021a565b8280546200011490620001e5565b90600052602060002090601f01602090048101928262000138576000855562000184565b82601f106200015357805160ff191683800117855562000184565b8280016001018555821562000184579182015b828111156200018357825182559160200191906001019062000166565b5b50905062000193919062000197565b5090565b5b80821115620001b257600081600090555060010162000198565b5090565b7f4e487b7100000000000000000000000000000000000000000000000000000000600052602260045260246000fd5b60006002820490506001821680620001fe57607f821691505b602082108103620002145762000213620001b6565b5b50919050565b612c46806200022a6000396000f3fe608060405234801561001057600080fd5b50600436106100f55760003560e01c80636352211e11610097578063a22cb46511610066578063a22cb46514610298578063b88d4fde146102b4578063c87b56dd146102d0578063e985e9c514610300576100f5565b80636352211e146101fc57806370a082311461022c57806380e869711461025c57806395d89b411461027a576100f5565b8063095ea7b3116100d3578063095ea7b314610178578063110bcd451461019457806323b872dd146101c457806342842e0e146101e0576100f5565b806301ffc9a7146100fa57806306fdde031461012a578063081812fc14610148575b600080fd5b610114600480360381019061010f91906119aa565b610330565b60405161012191906119f2565b60405180910390f35b610132610412565b60405161013f9190611aa6565b60405180910390f35b610162600480360381019061015d9190611afe565b6104a4565b60405161016f9190611b6c565b60405180910390f35b610192600480360381019061018d9190611bb3565b610529565b005b6101ae60048036038101906101a99190611d28565b610640565b6040516101bb9190611d93565b60405180910390f35b6101de60048036038101906101d99190611dae565b610678565b005b6101fa60048036038101906101f59190611dae565b6106d8565b005b61021660048036038101906102119190611afe565b6106f8565b6040516102239190611b6c565b60405180910390f35b61024660048036038101906102419190611e01565b6107a9565b6040516102539190611d93565b60405180910390f35b610264610860565b6040516102719190611aa6565b60405180910390f35b6102826108f2565b60405161028f9190611aa6565b60405180910390f35b6102b260048036038101906102ad9190611e5a565b610984565b005b6102ce60048036038101906102c99190611f3b565b61099a565b005b6102ea60048036038101906102e59190611afe565b6109fc565b6040516102f79190611aa6565b60405180910390f35b61031a60048036038101906103159190611fbe565b610b4d565b60405161032791906119f2565b60405180910390f35b60007f80ac58cd000000000000000000000000000000000000000000000000000000007bffffffffffffffffffffffffffffffffffffffffffffffffffffffff1916827bffffffffffffffffffffffffffffffffffffffffffffffffffffffff191614806103fb57507f5b5e139f000000000000000000000000000000000000000000000000000000007bffffffffffffffffffffffffffffffffffffffffffffffffffffffff1916827bffffffffffffffffffffffffffffffffffffffffffffffffffffffff1916145b8061040b575061040a82610be1565b5b9050919050565b6060600080546104219061202d565b80601f016020809104026020016040519081016040528092919081815260200182805461044d9061202d565b801561049a5780601f1061046f5761010080835404028352916020019161049a565b820191906000526020600020905b81548152906001019060200180831161047d57829003601f168201915b5050505050905090565b60006104af82610c4b565b6104ee576040517f08c379a00000000000000000000000000000000000000000000000000000000081526004016104e5906120d0565b60405180910390fd5b6004600083815260200190815260200160002060009054906101000a900473ffffffffffffffffffffffffffffffffffffffff169050919050565b6000610534826106f8565b90508073ffffffffffffffffffffffffffffffffffffffff168373ffffffffffffffffffffffffffffffffffffffff16036105a4576040517f08c379a000000000000000000000000000000000000000000000000000000000815260040161059b90612162565b60405180910390fd5b8073ffffffffffffffffffffffffffffffffffffffff166105c3610cb7565b73ffffffffffffffffffffffffffffffffffffffff1614806105f257506105f1816105ec610cb7565b610b4d565b5b610631576040517f08c379a0000000000000000000000000000000000000000000000000000000008152600401610628906121f4565b60405180910390fd5b61063b8383610cbf565b505050565b600061064c6007610d78565b60006106586007610d8e565b90506106648482610d9c565b61066e8184610f69565b8091505092915050565b610689610683610cb7565b82610fdd565b6106c8576040517f08c379a00000000000000000000000000000000000000000000000000000000081526004016106bf90612286565b60405180910390fd5b6106d38383836110bb565b505050565b6106f38383836040518060200160405280600081525061099a565b505050565b6000806002600084815260200190815260200160002060009054906101000a900473ffffffffffffffffffffffffffffffffffffffff169050600073ffffffffffffffffffffffffffffffffffffffff168173ffffffffffffffffffffffffffffffffffffffff16036107a0576040517f08c379a000000000000000000000000000000000000000000000000000000000815260040161079790612318565b60405180910390fd5b80915050919050565b60008073ffffffffffffffffffffffffffffffffffffffff168273ffffffffffffffffffffffffffffffffffffffff1603610819576040517f08c379a0000000000000000000000000000000000000000000000000000000008152600401610810906123aa565b60405180910390fd5b600360008373ffffffffffffffffffffffffffffffffffffffff1673ffffffffffffffffffffffffffffffffffffffff168152602001908152602001600020549050919050565b60606008805461086f9061202d565b80601f016020809104026020016040519081016040528092919081815260200182805461089b9061202d565b80156108e85780601f106108bd576101008083540402835291602001916108e8565b820191906000526020600020905b8154815290600101906020018083116108cb57829003601f168201915b5050505050905090565b6060600180546109019061202d565b80601f016020809104026020016040519081016040528092919081815260200182805461092d9061202d565b801561097a5780601f1061094f5761010080835404028352916020019161097a565b820191906000526020600020905b81548152906001019060200180831161095d57829003601f168201915b5050505050905090565b61099661098f610cb7565b8383611316565b5050565b6109ab6109a5610cb7565b83610fdd565b6109ea576040517f08c379a00000000000000000000000000000000000000000000000000000000081526004016109e190612286565b60405180910390fd5b6109f684848484611482565b50505050565b6060610a0782610c4b565b610a46576040517f08c379a0000000000000000000000000000000000000000000000000000000008152600401610a3d9061243c565b60405180910390fd5b6000600660008481526020019081526020016000208054610a669061202d565b80601f0160208091040260200160405190810160405280929190818152602001828054610a929061202d565b8015610adf5780601f10610ab457610100808354040283529160200191610adf565b820191906000526020600020905b815481529060010190602001808311610ac257829003601f168201915b505050505090506000610af06114de565b90506000815103610b05578192505050610b48565b600082511115610b3a578082604051602001610b22929190612498565b60405160208183030381529060405292505050610b48565b610b43846114f5565b925050505b919050565b6000600560008473ffffffffffffffffffffffffffffffffffffffff1673ffffffffffffffffffffffffffffffffffffffff16815260200190815260200160002060008373ffffffffffffffffffffffffffffffffffffffff1673ffffffffffffffffffffffffffffffffffffffff16815260200190815260200160002060009054906101000a900460ff16905092915050565b60007f01ffc9a7000000000000000000000000000000000000000000000000000000007bffffffffffffffffffffffffffffffffffffffffffffffffffffffff1916827bffffffffffffffffffffffffffffffffffffffffffffffffffffffff1916149050919050565b60008073ffffffffffffffffffffffffffffffffffffffff166002600084815260200190815260200160002060009054906101000a900473ffffffffffffffffffffffffffffffffffffffff1673ffffffffffffffffffffffffffffffffffffffff1614159050919050565b600033905090565b816004600083815260200190815260200160002060006101000a81548173ffffffffffffffffffffffffffffffffffffffff021916908373ffffffffffffffffffffffffffffffffffffffff160217905550808273ffffffffffffffffffffffffffffffffffffffff16610d32836106f8565b73ffffffffffffffffffffffffffffffffffffffff167f8c5be1e5ebec7d5bd14f71427d1e84f3dd0314c0f7b2291e5b200ac8c7c3b92560405160405180910390a45050565b6001816000016000828254019250508190555050565b600081600001549050919050565b600073ffffffffffffffffffffffffffffffffffffffff168273ffffffffffffffffffffffffffffffffffffffff1603610e0b576040517f08c379a0000000000000000000000000000000000000000000000000000000008152600401610e0290612508565b60405180910390fd5b610e1481610c4b565b15610e54576040517f08c379a0000000000000000000000000000000000000000000000000000000008152600401610e4b90612574565b60405180910390fd5b610e606000838361159c565b6001600360008473ffffffffffffffffffffffffffffffffffffffff1673ffffffffffffffffffffffffffffffffffffffff1681526020019081526020016000206000828254610eb091906125c3565b92505081905550816002600083815260200190815260200160002060006101000a81548173ffffffffffffffffffffffffffffffffffffffff021916908373ffffffffffffffffffffffffffffffffffffffff160217905550808273ffffffffffffffffffffffffffffffffffffffff16600073ffffffffffffffffffffffffffffffffffffffff167fddf252ad1be2c89b69c2b068fc378daa952ba7f163c4a11628f55a4df523b3ef60405160405180910390a45050565b610f7282610c4b565b610fb1576040517f08c379a0000000000000000000000000000000000000000000000000000000008152600401610fa89061268b565b60405180910390fd5b80600660008481526020019081526020016000209080519060200190610fd892919061189b565b505050565b6000610fe882610c4b565b611027576040517f08c379a000000000000000000000000000000000000000000000000000000000815260040161101e9061271d565b60405180910390fd5b6000611032836106f8565b90508073ffffffffffffffffffffffffffffffffffffffff168473ffffffffffffffffffffffffffffffffffffffff1614806110a157508373ffffffffffffffffffffffffffffffffffffffff16611089846104a4565b73ffffffffffffffffffffffffffffffffffffffff16145b806110b257506110b18185610b4d565b5b91505092915050565b8273ffffffffffffffffffffffffffffffffffffffff166110db826106f8565b73ffffffffffffffffffffffffffffffffffffffff1614611131576040517f08c379a0000000000000000000000000000000000000000000000000000000008152600401611128906127af565b60405180910390fd5b600073ffffffffffffffffffffffffffffffffffffffff168273ffffffffffffffffffffffffffffffffffffffff16036111a0576040517f08c379a000000000000000000000000000000000000000000000000000000000815260040161119790612841565b60405180910390fd5b6111ab83838361159c565b6111b6600082610cbf565b6001600360008573ffffffffffffffffffffffffffffffffffffffff1673ffffffffffffffffffffffffffffffffffffffff16815260200190815260200160002060008282546112069190612861565b925050819055506001600360008473ffffffffffffffffffffffffffffffffffffffff1673ffffffffffffffffffffffffffffffffffffffff168152602001908152602001600020600082825461125d91906125c3565b92505081905550816002600083815260200190815260200160002060006101000a81548173ffffffffffffffffffffffffffffffffffffffff021916908373ffffffffffffffffffffffffffffffffffffffff160217905550808273ffffffffffffffffffffffffffffffffffffffff168473ffffffffffffffffffffffffffffffffffffffff167fddf252ad1be2c89b69c2b068fc378daa952ba7f163c4a11628f55a4df523b3ef60405160405180910390a4505050565b8173ffffffffffffffffffffffffffffffffffffffff168373ffffffffffffffffffffffffffffffffffffffff1603611384576040517f08c379a000000000000000000000000000000000000000000000000000000000815260040161137b906128e1565b60405180910390fd5b80600560008573ffffffffffffffffffffffffffffffffffffffff1673ffffffffffffffffffffffffffffffffffffffff16815260200190815260200160002060008473ffffffffffffffffffffffffffffffffffffffff1673ffffffffffffffffffffffffffffffffffffffff16815260200190815260200160002060006101000a81548160ff0219169083151502179055508173ffffffffffffffffffffffffffffffffffffffff168373ffffffffffffffffffffffffffffffffffffffff167f17307eab39ab6107e8899845ad3d59bd9653f200f220920489ca2b5937696c318360405161147591906119f2565b60405180910390a3505050565b61148d8484846110bb565b611499848484846115a1565b6114d8576040517f08c379a00000000000000000000000000000000000000000000000000000000081526004016114cf90612973565b60405180910390fd5b50505050565b606060405180602001604052806000815250905090565b606061150082610c4b565b61153f576040517f08c379a000000000000000000000000000000000000000000000000000000000815260040161153690612a05565b60405180910390fd5b60006115496114de565b905060008151116115695760405180602001604052806000815250611594565b8061157384611728565b604051602001611584929190612498565b6040516020818303038152906040525b915050919050565b505050565b60006115c28473ffffffffffffffffffffffffffffffffffffffff16611888565b1561171b578373ffffffffffffffffffffffffffffffffffffffff1663150b7a026115eb610cb7565b8786866040518563ffffffff1660e01b815260040161160d9493929190612a7a565b6020604051808303816000875af192505050801561164957506040513d601f19601f820116820180604052508101906116469190612adb565b60015b6116cb573d8060008114611679576040519150601f19603f3d011682016040523d82523d6000602084013e61167e565b606091505b5060008151036116c3576040517f08c379a00000000000000000000000000000000000000000000000000000000081526004016116ba90612973565b60405180910390fd5b805181602001fd5b63150b7a0260e01b7bffffffffffffffffffffffffffffffffffffffffffffffffffffffff1916817bffffffffffffffffffffffffffffffffffffffffffffffffffffffff191614915050611720565b600190505b949350505050565b60606000820361176f576040518060400160405280600181526020017f30000000000000000000000000000000000000000000000000000000000000008152509050611883565b600082905060005b600082146117a157808061178a90612b08565b915050600a8261179a9190612b7f565b9150611777565b60008167ffffffffffffffff8111156117bd576117bc611bfd565b5b6040519080825280601f01601f1916602001820160405280156117ef5781602001600182028036833780820191505090505b5090505b6000851461187c576001826118089190612861565b9150600a856118179190612bb0565b603061182391906125c3565b60f81b81838151811061183957611838612be1565b5b60200101907effffffffffffffffffffffffffffffffffffffffffffffffffffffffffffff1916908160001a905350600a856118759190612b7f565b94506117f3565b8093505050505b919050565b600080823b905060008111915050919050565b8280546118a79061202d565b90600052602060002090601f0160209004810192826118c95760008555611910565b82601f106118e257805160ff1916838001178555611910565b82800160010185558215611910579182015b8281111561190f5782518255916020019190600101906118f4565b5b50905061191d9190611921565b5090565b5b8082111561193a576000816000905550600101611922565b5090565b6000604051905090565b600080fd5b600080fd5b60007fffffffff0000000000000000000000000000000000000000000000000000000082169050919050565b61198781611952565b811461199257600080fd5b50565b6000813590506119a48161197e565b92915050565b6000602082840312156119c0576119bf611948565b5b60006119ce84828501611995565b91505092915050565b60008115159050919050565b6119ec816119d7565b82525050565b6000602082019050611a0760008301846119e3565b92915050565b600081519050919050565b600082825260208201905092915050565b60005b83811015611a47578082015181840152602081019050611a2c565b83811115611a56576000848401525b50505050565b6000601f19601f8301169050919050565b6000611a7882611a0d565b611a828185611a18565b9350611a92818560208601611a29565b611a9b81611a5c565b840191505092915050565b60006020820190508181036000830152611ac08184611a6d565b905092915050565b6000819050919050565b611adb81611ac8565b8114611ae657600080fd5b50565b600081359050611af881611ad2565b92915050565b600060208284031215611b1457611b13611948565b5b6000611b2284828501611ae9565b91505092915050565b600073ffffffffffffffffffffffffffffffffffffffff82169050919050565b6000611b5682611b2b565b9050919050565b611b6681611b4b565b82525050565b6000602082019050611b816000830184611b5d565b92915050565b611b9081611b4b565b8114611b9b57600080fd5b50565b600081359050611bad81611b87565b92915050565b60008060408385031215611bca57611bc9611948565b5b6000611bd885828601611b9e565b9250506020611be985828601611ae9565b9150509250929050565b600080fd5b600080fd5b7f4e487b7100000000000000000000000000000000000000000000000000000000600052604160045260246000fd5b611c3582611a5c565b810181811067ffffffffffffffff82111715611c5457611c53611bfd565b5b80604052505050565b6000611c6761193e565b9050611c738282611c2c565b919050565b600067ffffffffffffffff821115611c9357611c92611bfd565b5b611c9c82611a5c565b9050602081019050919050565b82818337600083830152505050565b6000611ccb611cc684611c78565b611c5d565b905082815260208101848484011115611ce757611ce6611bf8565b5b611cf2848285611ca9565b509392505050565b600082601f830112611d0f57611d0e611bf3565b5b8135611d1f848260208601611cb8565b91505092915050565b60008060408385031215611d3f57611d3e611948565b5b6000611d4d85828601611b9e565b925050602083013567ffffffffffffffff811115611d6e57611d6d61194d565b5b611d7a85828601611cfa565b9150509250929050565b611d8d81611ac8565b82525050565b6000602082019050611da86000830184611d84565b92915050565b600080600060608486031215611dc757611dc6611948565b5b6000611dd586828701611b9e565b9350506020611de686828701611b9e565b9250506040611df786828701611ae9565b9150509250925092565b600060208284031215611e1757611e16611948565b5b6000611e2584828501611b9e565b91505092915050565b611e37816119d7565b8114611e4257600080fd5b50565b600081359050611e5481611e2e565b92915050565b60008060408385031215611e7157611e70611948565b5b6000611e7f85828601611b9e565b9250506020611e9085828601611e45565b9150509250929050565b600067ffffffffffffffff821115611eb557611eb4611bfd565b5b611ebe82611a5c565b9050602081019050919050565b6000611ede611ed984611e9a565b611c5d565b905082815260208101848484011115611efa57611ef9611bf8565b5b611f05848285611ca9565b509392505050565b600082601f830112611f2257611f21611bf3565b5b8135611f32848260208601611ecb565b91505092915050565b60008060008060808587031215611f5557611f54611948565b5b6000611f6387828801611b9e565b9450506020611f7487828801611b9e565b9350506040611f8587828801611ae9565b925050606085013567ffffffffffffffff811115611fa657611fa561194d565b5b611fb287828801611f0d565b91505092959194509250565b60008060408385031215611fd557611fd4611948565b5b6000611fe385828601611b9e565b9250506020611ff485828601611b9e565b9150509250929050565b7f4e487b7100000000000000000000000000000000000000000000000000000000600052602260045260246000fd5b6000600282049050600182168061204557607f821691505b60208210810361205857612057611ffe565b5b50919050565b7f4552433732313a20617070726f76656420717565727920666f72206e6f6e657860008201527f697374656e7420746f6b656e0000000000000000000000000000000000000000602082015250565b60006120ba602c83611a18565b91506120c58261205e565b604082019050919050565b600060208201905081810360008301526120e9816120ad565b9050919050565b7f4552433732313a20617070726f76616c20746f2063757272656e74206f776e6560008201527f7200000000000000000000000000000000000000000000000000000000000000602082015250565b600061214c602183611a18565b9150612157826120f0565b604082019050919050565b6000602082019050818103600083015261217b8161213f565b9050919050565b7f4552433732313a20617070726f76652063616c6c6572206973206e6f74206f7760008201527f6e6572206e6f7220617070726f76656420666f7220616c6c0000000000000000602082015250565b60006121de603883611a18565b91506121e982612182565b604082019050919050565b6000602082019050818103600083015261220d816121d1565b9050919050565b7f4552433732313a207472616e736665722063616c6c6572206973206e6f74206f60008201527f776e6572206e6f7220617070726f766564000000000000000000000000000000602082015250565b6000612270603183611a18565b915061227b82612214565b604082019050919050565b6000602082019050818103600083015261229f81612263565b9050919050565b7f4552433732313a206f776e657220717565727920666f72206e6f6e657869737460008201527f656e7420746f6b656e0000000000000000000000000000000000000000000000602082015250565b6000612302602983611a18565b915061230d826122a6565b604082019050919050565b60006020820190508181036000830152612331816122f5565b9050919050565b7f4552433732313a2062616c616e636520717565727920666f7220746865207a6560008201527f726f206164647265737300000000000000000000000000000000000000000000602082015250565b6000612394602a83611a18565b915061239f82612338565b604082019050919050565b600060208201905081810360008301526123c381612387565b9050919050565b7f45524337323155524953746f726167653a2055524920717565727920666f722060008201527f6e6f6e6578697374656e7420746f6b656e000000000000000000000000000000602082015250565b6000612426603183611a18565b9150612431826123ca565b604082019050919050565b6000602082019050818103600083015261245581612419565b9050919050565b600081905092915050565b600061247282611a0d565b61247c818561245c565b935061248c818560208601611a29565b80840191505092915050565b60006124a48285612467565b91506124b08284612467565b91508190509392505050565b7f4552433732313a206d696e7420746f20746865207a65726f2061646472657373600082015250565b60006124f2602083611a18565b91506124fd826124bc565b602082019050919050565b60006020820190508181036000830152612521816124e5565b9050919050565b7f4552433732313a20746f6b656e20616c7265616479206d696e74656400000000600082015250565b600061255e601c83611a18565b915061256982612528565b602082019050919050565b6000602082019050818103600083015261258d81612551565b9050919050565b7f4e487b7100000000000000000000000000000000000000000000000000000000600052601160045260246000fd5b60006125ce82611ac8565b91506125d983611ac8565b9250827fffffffffffffffffffffffffffffffffffffffffffffffffffffffffffffffff0382111561260e5761260d612594565b5b828201905092915050565b7f45524337323155524953746f726167653a2055524920736574206f66206e6f6e60008201527f6578697374656e7420746f6b656e000000000000000000000000000000000000602082015250565b6000612675602e83611a18565b915061268082612619565b604082019050919050565b600060208201905081810360008301526126a481612668565b9050919050565b7f4552433732313a206f70657261746f7220717565727920666f72206e6f6e657860008201527f697374656e7420746f6b656e0000000000000000000000000000000000000000602082015250565b6000612707602c83611a18565b9150612712826126ab565b604082019050919050565b60006020820190508181036000830152612736816126fa565b9050919050565b7f4552433732313a207472616e73666572206f6620746f6b656e2074686174206960008201527f73206e6f74206f776e0000000000000000000000000000000000000000000000602082015250565b6000612799602983611a18565b91506127a48261273d565b604082019050919050565b600060208201905081810360008301526127c88161278c565b9050919050565b7f4552433732313a207472616e7366657220746f20746865207a65726f2061646460008201527f7265737300000000000000000000000000000000000000000000000000000000602082015250565b600061282b602483611a18565b9150612836826127cf565b604082019050919050565b6000602082019050818103600083015261285a8161281e565b9050919050565b600061286c82611ac8565b915061287783611ac8565b92508282101561288a57612889612594565b5b828203905092915050565b7f4552433732313a20617070726f766520746f2063616c6c657200000000000000600082015250565b60006128cb601983611a18565b91506128d682612895565b602082019050919050565b600060208201905081810360008301526128fa816128be565b9050919050565b7f4552433732313a207472616e7366657220746f206e6f6e20455243373231526560008201527f63656976657220696d706c656d656e7465720000000000000000000000000000602082015250565b600061295d603283611a18565b915061296882612901565b604082019050919050565b6000602082019050818103600083015261298c81612950565b9050919050565b7f4552433732314d657461646174613a2055524920717565727920666f72206e6f60008201527f6e6578697374656e7420746f6b656e0000000000000000000000000000000000602082015250565b60006129ef602f83611a18565b91506129fa82612993565b604082019050919050565b60006020820190508181036000830152612a1e816129e2565b9050919050565b600081519050919050565b600082825260208201905092915050565b6000612a4c82612a25565b612a568185612a30565b9350612a66818560208601611a29565b612a6f81611a5c565b840191505092915050565b6000608082019050612a8f6000830187611b5d565b612a9c6020830186611b5d565b612aa96040830185611d84565b8181036060830152612abb8184612a41565b905095945050505050565b600081519050612ad58161197e565b92915050565b600060208284031215612af157612af0611948565b5b6000612aff84828501612ac6565b91505092915050565b6000612b1382611ac8565b91507fffffffffffffffffffffffffffffffffffffffffffffffffffffffffffffffff8203612b4557612b44612594565b5b600182019050919050565b7f4e487b7100000000000000000000000000000000000000000000000000000000600052601260045260246000fd5b6000612b8a82611ac8565b9150612b9583611ac8565b925082612ba557612ba4612b50565b5b828204905092915050565b6000612bbb82611ac8565b9150612bc683611ac8565b925082612bd657612bd5612b50565b5b828206905092915050565b7f4e487b7100000000000000000000000000000000000000000000000000000000600052603260045260246000fdfea26469706673582212208900a2a69a397c918b86d077b32f84e1c333fab1995cffa60cdab7a2045c86a064736f6c634300080d0033",
  "immutableReferences": {},
  "source": "// SPDX-License-Identifier: MIT\npragma solidity ^0.8.3;\n\nimport \"../client/node_modules/openzeppelin-solidity/contracts/token/ERC721/ERC721.sol\";\nimport \"../client/node_modules/openzeppelin-solidity/contracts/token/ERC721/extensions/ERC721URIStorage.sol\";\nimport \"../client/node_modules/openzeppelin-solidity/contracts/utils/Counters.sol\";\n\ncontract ThreItems is ERC721URIStorage {\n    using Counters for Counters.Counter;\n    Counters.Counter private _tokenIds;\n\n    string connecTecs = \"farewell\";\n\n    constructor(\n    ) ERC721(\"ThreadsNFT\", \"TReN\") {}\n\n    function mintItem(address player, string memory tokenURI)\n        public\n        returns (uint256)\n    {\n        _tokenIds.increment();\n\n        uint256 newItemId = _tokenIds.current();\n        _mint(player, newItemId);\n        _setTokenURI(newItemId, tokenURI);\n\n        return newItemId;\n    }\n    function connectionTecs() public view returns(string memory){\n        return connecTecs;\n    }\n}",
  "sourcePath": "/home/giparang/threadweb/pogre/trufflebox/contracts/ThreItems.sol",
  "compiler": {
    "name": "solc",
    "version": "0.8.13+commit.abaa5c0e.Emscripten.clang"
  },
  "schemaVersion": "3.4.6",
  "updatedAt": "2022-03-24T01:49:56.186Z",
  "networkType": "ethereum",
  "devdoc": {
    "kind": "dev",
    "methods": {
      "approve(address,uint256)": {
        "details": "See {IERC721-approve}."
      },
      "balanceOf(address)": {
        "details": "See {IERC721-balanceOf}."
      },
      "getApproved(uint256)": {
        "details": "See {IERC721-getApproved}."
      },
      "isApprovedForAll(address,address)": {
        "details": "See {IERC721-isApprovedForAll}."
      },
      "name()": {
        "details": "See {IERC721Metadata-name}."
      },
      "ownerOf(uint256)": {
        "details": "See {IERC721-ownerOf}."
      },
      "safeTransferFrom(address,address,uint256)": {
        "details": "See {IERC721-safeTransferFrom}."
      },
      "safeTransferFrom(address,address,uint256,bytes)": {
        "details": "See {IERC721-safeTransferFrom}."
      },
      "setApprovalForAll(address,bool)": {
        "details": "See {IERC721-setApprovalForAll}."
      },
      "supportsInterface(bytes4)": {
        "details": "See {IERC165-supportsInterface}."
      },
      "symbol()": {
        "details": "See {IERC721Metadata-symbol}."
      },
      "tokenURI(uint256)": {
        "details": "See {IERC721Metadata-tokenURI}."
      },
      "transferFrom(address,address,uint256)": {
        "details": "See {IERC721-transferFrom}."
      }
    },
    "version": 1
  },
  "userdoc": {
    "kind": "user",
    "methods": {},
    "version": 1
  }
}