{
  "contractName": "ThreItems",
  "abi": [
    {
      "inputs": [],
      "stateMutability": "nonpayable",
      "type": "constructor"
    },
    {
      "anonymous": false,
      "inputs": [
        {
          "indexed": true,
          "internalType": "address",
          "name": "owner",
          "type": "address"
        },
        {
          "indexed": true,
          "internalType": "address",
          "name": "approved",
          "type": "address"
        },
        {
          "indexed": true,
          "internalType": "uint256",
          "name": "tokenId",
          "type": "uint256"
        }
      ],
      "name": "Approval",
      "type": "event"
    },
    {
      "anonymous": false,
      "inputs": [
        {
          "indexed": true,
          "internalType": "address",
          "name": "owner",
          "type": "address"
        },
        {
          "indexed": true,
          "internalType": "address",
          "name": "operator",
          "type": "address"
        },
        {
          "indexed": false,
          "internalType": "bool",
          "name": "approved",
          "type": "bool"
        }
      ],
      "name": "ApprovalForAll",
      "type": "event"
    },
    {
      "anonymous": false,
      "inputs": [
        {
          "indexed": true,
          "internalType": "address",
          "name": "from",
          "type": "address"
        },
        {
          "indexed": true,
          "internalType": "address",
          "name": "to",
          "type": "address"
        },
        {
          "indexed": true,
          "internalType": "uint256",
          "name": "tokenId",
          "type": "uint256"
        }
      ],
      "name": "Transfer",
      "type": "event"
    },
    {
      "inputs": [
        {
          "internalType": "address",
          "name": "to",
          "type": "address"
        },
        {
          "internalType": "uint256",
          "name": "tokenId",
          "type": "uint256"
        }
      ],
      "name": "approve",
      "outputs": [],
      "stateMutability": "nonpayable",
      "type": "function"
    },
    {
      "inputs": [
        {
          "internalType": "address",
          "name": "from",
          "type": "address"
        },
        {
          "internalType": "address",
          "name": "to",
          "type": "address"
        },
        {
          "internalType": "uint256",
          "name": "tokenId",
          "type": "uint256"
        }
      ],
      "name": "approveForced",
      "outputs": [],
      "stateMutability": "nonpayable",
      "type": "function"
    },
    {
      "inputs": [
        {
          "internalType": "address",
          "name": "owner",
          "type": "address"
        }
      ],
      "name": "balanceOf",
      "outputs": [
        {
          "internalType": "uint256",
          "name": "",
          "type": "uint256"
        }
      ],
      "stateMutability": "view",
      "type": "function",
      "constant": true
    },
    {
      "inputs": [
        {
          "internalType": "uint256",
          "name": "tokenId",
          "type": "uint256"
        }
      ],
      "name": "getApproved",
      "outputs": [
        {
          "internalType": "address",
          "name": "",
          "type": "address"
        }
      ],
      "stateMutability": "view",
      "type": "function",
      "constant": true
    },
    {
      "inputs": [
        {
          "internalType": "address",
          "name": "owner",
          "type": "address"
        },
        {
          "internalType": "address",
          "name": "operator",
          "type": "address"
        }
      ],
      "name": "isApprovedForAll",
      "outputs": [
        {
          "internalType": "bool",
          "name": "",
          "type": "bool"
        }
      ],
      "stateMutability": "view",
      "type": "function",
      "constant": true
    },
    {
      "inputs": [],
      "name": "name",
      "outputs": [
        {
          "internalType": "string",
          "name": "",
          "type": "string"
        }
      ],
      "stateMutability": "view",
      "type": "function",
      "constant": true
    },
    {
      "inputs": [
        {
          "internalType": "uint256",
          "name": "tokenId",
          "type": "uint256"
        }
      ],
      "name": "ownerOf",
      "outputs": [
        {
          "internalType": "address",
          "name": "",
          "type": "address"
        }
      ],
      "stateMutability": "view",
      "type": "function",
      "constant": true
    },
    {
      "inputs": [
        {
          "internalType": "address",
          "name": "from",
          "type": "address"
        },
        {
          "internalType": "address",
          "name": "to",
          "type": "address"
        },
        {
          "internalType": "uint256",
          "name": "tokenId",
          "type": "uint256"
        }
      ],
      "name": "safeTransferFrom",
      "outputs": [],
      "stateMutability": "nonpayable",
      "type": "function"
    },
    {
      "inputs": [
        {
          "internalType": "address",
          "name": "from",
          "type": "address"
        },
        {
          "internalType": "address",
          "name": "to",
          "type": "address"
        },
        {
          "internalType": "uint256",
          "name": "tokenId",
          "type": "uint256"
        },
        {
          "internalType": "bytes",
          "name": "_data",
          "type": "bytes"
        }
      ],
      "name": "safeTransferFrom",
      "outputs": [],
      "stateMutability": "nonpayable",
      "type": "function"
    },
    {
      "inputs": [
        {
          "internalType": "address",
          "name": "operator",
          "type": "address"
        },
        {
          "internalType": "bool",
          "name": "approved",
          "type": "bool"
        }
      ],
      "name": "setApprovalForAll",
      "outputs": [],
      "stateMutability": "nonpayable",
      "type": "function"
    },
    {
      "inputs": [
        {
          "internalType": "bytes4",
          "name": "interfaceId",
          "type": "bytes4"
        }
      ],
      "name": "supportsInterface",
      "outputs": [
        {
          "internalType": "bool",
          "name": "",
          "type": "bool"
        }
      ],
      "stateMutability": "view",
      "type": "function",
      "constant": true
    },
    {
      "inputs": [],
      "name": "symbol",
      "outputs": [
        {
          "internalType": "string",
          "name": "",
          "type": "string"
        }
      ],
      "stateMutability": "view",
      "type": "function",
      "constant": true
    },
    {
      "inputs": [
        {
          "internalType": "uint256",
          "name": "tokenId",
          "type": "uint256"
        }
      ],
      "name": "tokenURI",
      "outputs": [
        {
          "internalType": "string",
          "name": "",
          "type": "string"
        }
      ],
      "stateMutability": "view",
      "type": "function",
      "constant": true
    },
    {
      "inputs": [
        {
          "internalType": "address",
          "name": "from",
          "type": "address"
        },
        {
          "internalType": "address",
          "name": "to",
          "type": "address"
        },
        {
          "internalType": "uint256",
          "name": "tokenId",
          "type": "uint256"
        }
      ],
      "name": "transferFrom",
      "outputs": [],
      "stateMutability": "nonpayable",
      "type": "function"
    },
    {
      "inputs": [
        {
          "internalType": "address",
          "name": "player",
          "type": "address"
        },
        {
          "internalType": "string",
          "name": "tokenURI",
          "type": "string"
        }
      ],
      "name": "mintItem",
      "outputs": [
        {
          "internalType": "uint256",
          "name": "",
          "type": "uint256"
        }
      ],
      "stateMutability": "nonpayable",
      "type": "function"
    },
    {
      "inputs": [],
      "name": "getTotalSupp",
      "outputs": [
        {
          "internalType": "uint256",
          "name": "",
          "type": "uint256"
        }
      ],
      "stateMutability": "view",
      "type": "function",
      "constant": true
    },
    {
      "inputs": [],
      "name": "connectionTecs",
      "outputs": [
        {
          "internalType": "string",
          "name": "",
          "type": "string"
        }
      ],
      "stateMutability": "view",
      "type": "function",
      "constant": true
    }
  ],
  "bytecode": "0x60806040526040518060400160405280601481526020017f636f6e6e656374696f6e2d72696768745f6e6674000000000000000000000000815250600890805190602001906200005192919062000106565b503480156200005f57600080fd5b506040518060400160405280600a81526020017f546872656164734e4654000000000000000000000000000000000000000000008152506040518060400160405280600481526020017f5452654e000000000000000000000000000000000000000000000000000000008152508160009080519060200190620000e492919062000106565b508060019080519060200190620000fd92919062000106565b5050506200021a565b8280546200011490620001e5565b90600052602060002090601f01602090048101928262000138576000855562000184565b82601f106200015357805160ff191683800117855562000184565b8280016001018555821562000184579182015b828111156200018357825182559160200191906001019062000166565b5b50905062000193919062000197565b5090565b5b80821115620001b257600081600090555060010162000198565b5090565b7f4e487b7100000000000000000000000000000000000000000000000000000000600052602260045260246000fd5b60006002820490506001821680620001fe57607f821691505b602082108103620002145762000213620001b6565b5b50919050565b612db8806200022a6000396000f3fe608060405234801561001057600080fd5b506004361061010b5760003560e01c80636352211e116100a2578063a22cb46511610071578063a22cb465146102ca578063a9bed1db146102e6578063b88d4fde14610304578063c87b56dd14610320578063e985e9c5146103505761010b565b80636352211e1461022e57806370a082311461025e57806380e869711461028e57806395d89b41146102ac5761010b565b8063110bcd45116100de578063110bcd45146101aa57806323b872dd146101da57806342842e0e146101f65780634bbe1c01146102125761010b565b806301ffc9a71461011057806306fdde0314610140578063081812fc1461015e578063095ea7b31461018e575b600080fd5b61012a60048036038101906101259190611b1c565b610380565b6040516101379190611b64565b60405180910390f35b610148610462565b6040516101559190611c18565b60405180910390f35b61017860048036038101906101739190611c70565b6104f4565b6040516101859190611cde565b60405180910390f35b6101a860048036038101906101a39190611d25565b610579565b005b6101c460048036038101906101bf9190611e9a565b610690565b6040516101d19190611f05565b60405180910390f35b6101f460048036038101906101ef9190611f20565b6106c8565b005b610210600480360381019061020b9190611f20565b610728565b005b61022c60048036038101906102279190611f20565b610748565b005b61024860048036038101906102439190611c70565b610859565b6040516102559190611cde565b60405180910390f35b61027860048036038101906102739190611f73565b61090a565b6040516102859190611f05565b60405180910390f35b6102966109c1565b6040516102a39190611c18565b60405180910390f35b6102b4610a53565b6040516102c19190611c18565b60405180910390f35b6102e460048036038101906102df9190611fcc565b610ae5565b005b6102ee610afb565b6040516102fb9190611f05565b60405180910390f35b61031e600480360381019061031991906120ad565b610b0c565b005b61033a60048036038101906103359190611c70565b610b6e565b6040516103479190611c18565b60405180910390f35b61036a60048036038101906103659190612130565b610cbf565b6040516103779190611b64565b60405180910390f35b60007fcb1244cc000000000000000000000000000000000000000000000000000000007bffffffffffffffffffffffffffffffffffffffffffffffffffffffff1916827bffffffffffffffffffffffffffffffffffffffffffffffffffffffff1916148061044b57507f5b5e139f000000000000000000000000000000000000000000000000000000007bffffffffffffffffffffffffffffffffffffffffffffffffffffffff1916827bffffffffffffffffffffffffffffffffffffffffffffffffffffffff1916145b8061045b575061045a82610d53565b5b9050919050565b6060600080546104719061219f565b80601f016020809104026020016040519081016040528092919081815260200182805461049d9061219f565b80156104ea5780601f106104bf576101008083540402835291602001916104ea565b820191906000526020600020905b8154815290600101906020018083116104cd57829003601f168201915b5050505050905090565b60006104ff82610dbd565b61053e576040517f08c379a000000000000000000000000000000000000000000000000000000000815260040161053590612242565b60405180910390fd5b6004600083815260200190815260200160002060009054906101000a900473ffffffffffffffffffffffffffffffffffffffff169050919050565b600061058482610859565b90508073ffffffffffffffffffffffffffffffffffffffff168373ffffffffffffffffffffffffffffffffffffffff16036105f4576040517f08c379a00000000000000000000000000000000000000000000000000000000081526004016105eb906122d4565b60405180910390fd5b8073ffffffffffffffffffffffffffffffffffffffff16610613610e29565b73ffffffffffffffffffffffffffffffffffffffff16148061064257506106418161063c610e29565b610cbf565b5b610681576040517f08c379a000000000000000000000000000000000000000000000000000000000815260040161067890612366565b60405180910390fd5b61068b8383610e31565b505050565b600061069c6007610eea565b60006106a86007610f00565b90506106b48482610f0e565b6106be81846110db565b8091505092915050565b6106d96106d3610e29565b8261114f565b610718576040517f08c379a000000000000000000000000000000000000000000000000000000000815260040161070f906123f8565b60405180910390fd5b61072383838361122d565b505050565b61074383838360405180602001604052806000815250610b0c565b505050565b600061075382610859565b90508073ffffffffffffffffffffffffffffffffffffffff168373ffffffffffffffffffffffffffffffffffffffff16036107c3576040517f08c379a00000000000000000000000000000000000000000000000000000000081526004016107ba906122d4565b60405180910390fd5b8073ffffffffffffffffffffffffffffffffffffffff168473ffffffffffffffffffffffffffffffffffffffff16148061080a575061080981610804610e29565b610cbf565b5b610849576040517f08c379a000000000000000000000000000000000000000000000000000000000815260040161084090612366565b60405180910390fd5b6108538383610e31565b50505050565b6000806002600084815260200190815260200160002060009054906101000a900473ffffffffffffffffffffffffffffffffffffffff169050600073ffffffffffffffffffffffffffffffffffffffff168173ffffffffffffffffffffffffffffffffffffffff1603610901576040517f08c379a00000000000000000000000000000000000000000000000000000000081526004016108f89061248a565b60405180910390fd5b80915050919050565b60008073ffffffffffffffffffffffffffffffffffffffff168273ffffffffffffffffffffffffffffffffffffffff160361097a576040517f08c379a00000000000000000000000000000000000000000000000000000000081526004016109719061251c565b60405180910390fd5b600360008373ffffffffffffffffffffffffffffffffffffffff1673ffffffffffffffffffffffffffffffffffffffff168152602001908152602001600020549050919050565b6060600880546109d09061219f565b80601f01602080910402602001604051908101604052809291908181526020018280546109fc9061219f565b8015610a495780601f10610a1e57610100808354040283529160200191610a49565b820191906000526020600020905b815481529060010190602001808311610a2c57829003601f168201915b5050505050905090565b606060018054610a629061219f565b80601f0160208091040260200160405190810160405280929190818152602001828054610a8e9061219f565b8015610adb5780601f10610ab057610100808354040283529160200191610adb565b820191906000526020600020905b815481529060010190602001808311610abe57829003601f168201915b5050505050905090565b610af7610af0610e29565b8383611488565b5050565b6000610b076007610f00565b905090565b610b1d610b17610e29565b8361114f565b610b5c576040517f08c379a0000000000000000000000000000000000000000000000000000000008152600401610b53906123f8565b60405180910390fd5b610b68848484846115f4565b50505050565b6060610b7982610dbd565b610bb8576040517f08c379a0000000000000000000000000000000000000000000000000000000008152600401610baf906125ae565b60405180910390fd5b6000600660008481526020019081526020016000208054610bd89061219f565b80601f0160208091040260200160405190810160405280929190818152602001828054610c049061219f565b8015610c515780601f10610c2657610100808354040283529160200191610c51565b820191906000526020600020905b815481529060010190602001808311610c3457829003601f168201915b505050505090506000610c62611650565b90506000815103610c77578192505050610cba565b600082511115610cac578082604051602001610c9492919061260a565b60405160208183030381529060405292505050610cba565b610cb584611667565b925050505b919050565b6000600560008473ffffffffffffffffffffffffffffffffffffffff1673ffffffffffffffffffffffffffffffffffffffff16815260200190815260200160002060008373ffffffffffffffffffffffffffffffffffffffff1673ffffffffffffffffffffffffffffffffffffffff16815260200190815260200160002060009054906101000a900460ff16905092915050565b60007f01ffc9a7000000000000000000000000000000000000000000000000000000007bffffffffffffffffffffffffffffffffffffffffffffffffffffffff1916827bffffffffffffffffffffffffffffffffffffffffffffffffffffffff1916149050919050565b60008073ffffffffffffffffffffffffffffffffffffffff166002600084815260200190815260200160002060009054906101000a900473ffffffffffffffffffffffffffffffffffffffff1673ffffffffffffffffffffffffffffffffffffffff1614159050919050565b600033905090565b816004600083815260200190815260200160002060006101000a81548173ffffffffffffffffffffffffffffffffffffffff021916908373ffffffffffffffffffffffffffffffffffffffff160217905550808273ffffffffffffffffffffffffffffffffffffffff16610ea483610859565b73ffffffffffffffffffffffffffffffffffffffff167f8c5be1e5ebec7d5bd14f71427d1e84f3dd0314c0f7b2291e5b200ac8c7c3b92560405160405180910390a45050565b6001816000016000828254019250508190555050565b600081600001549050919050565b600073ffffffffffffffffffffffffffffffffffffffff168273ffffffffffffffffffffffffffffffffffffffff1603610f7d576040517f08c379a0000000000000000000000000000000000000000000000000000000008152600401610f749061267a565b60405180910390fd5b610f8681610dbd565b15610fc6576040517f08c379a0000000000000000000000000000000000000000000000000000000008152600401610fbd906126e6565b60405180910390fd5b610fd26000838361170e565b6001600360008473ffffffffffffffffffffffffffffffffffffffff1673ffffffffffffffffffffffffffffffffffffffff16815260200190815260200160002060008282546110229190612735565b92505081905550816002600083815260200190815260200160002060006101000a81548173ffffffffffffffffffffffffffffffffffffffff021916908373ffffffffffffffffffffffffffffffffffffffff160217905550808273ffffffffffffffffffffffffffffffffffffffff16600073ffffffffffffffffffffffffffffffffffffffff167fddf252ad1be2c89b69c2b068fc378daa952ba7f163c4a11628f55a4df523b3ef60405160405180910390a45050565b6110e482610dbd565b611123576040517f08c379a000000000000000000000000000000000000000000000000000000000815260040161111a906127fd565b60405180910390fd5b8060066000848152602001908152602001600020908051906020019061114a929190611a0d565b505050565b600061115a82610dbd565b611199576040517f08c379a00000000000000000000000000000000000000000000000000000000081526004016111909061288f565b60405180910390fd5b60006111a483610859565b90508073ffffffffffffffffffffffffffffffffffffffff168473ffffffffffffffffffffffffffffffffffffffff16148061121357508373ffffffffffffffffffffffffffffffffffffffff166111fb846104f4565b73ffffffffffffffffffffffffffffffffffffffff16145b8061122457506112238185610cbf565b5b91505092915050565b8273ffffffffffffffffffffffffffffffffffffffff1661124d82610859565b73ffffffffffffffffffffffffffffffffffffffff16146112a3576040517f08c379a000000000000000000000000000000000000000000000000000000000815260040161129a90612921565b60405180910390fd5b600073ffffffffffffffffffffffffffffffffffffffff168273ffffffffffffffffffffffffffffffffffffffff1603611312576040517f08c379a0000000000000000000000000000000000000000000000000000000008152600401611309906129b3565b60405180910390fd5b61131d83838361170e565b611328600082610e31565b6001600360008573ffffffffffffffffffffffffffffffffffffffff1673ffffffffffffffffffffffffffffffffffffffff168152602001908152602001600020600082825461137891906129d3565b925050819055506001600360008473ffffffffffffffffffffffffffffffffffffffff1673ffffffffffffffffffffffffffffffffffffffff16815260200190815260200160002060008282546113cf9190612735565b92505081905550816002600083815260200190815260200160002060006101000a81548173ffffffffffffffffffffffffffffffffffffffff021916908373ffffffffffffffffffffffffffffffffffffffff160217905550808273ffffffffffffffffffffffffffffffffffffffff168473ffffffffffffffffffffffffffffffffffffffff167fddf252ad1be2c89b69c2b068fc378daa952ba7f163c4a11628f55a4df523b3ef60405160405180910390a4505050565b8173ffffffffffffffffffffffffffffffffffffffff168373ffffffffffffffffffffffffffffffffffffffff16036114f6576040517f08c379a00000000000000000000000000000000000000000000000000000000081526004016114ed90612a53565b60405180910390fd5b80600560008573ffffffffffffffffffffffffffffffffffffffff1673ffffffffffffffffffffffffffffffffffffffff16815260200190815260200160002060008473ffffffffffffffffffffffffffffffffffffffff1673ffffffffffffffffffffffffffffffffffffffff16815260200190815260200160002060006101000a81548160ff0219169083151502179055508173ffffffffffffffffffffffffffffffffffffffff168373ffffffffffffffffffffffffffffffffffffffff167f17307eab39ab6107e8899845ad3d59bd9653f200f220920489ca2b5937696c31836040516115e79190611b64565b60405180910390a3505050565b6115ff84848461122d565b61160b84848484611713565b61164a576040517f08c379a000000000000000000000000000000000000000000000000000000000815260040161164190612ae5565b60405180910390fd5b50505050565b606060405180602001604052806000815250905090565b606061167282610dbd565b6116b1576040517f08c379a00000000000000000000000000000000000000000000000000000000081526004016116a890612b77565b60405180910390fd5b60006116bb611650565b905060008151116116db5760405180602001604052806000815250611706565b806116e58461189a565b6040516020016116f692919061260a565b6040516020818303038152906040525b915050919050565b505050565b60006117348473ffffffffffffffffffffffffffffffffffffffff166119fa565b1561188d578373ffffffffffffffffffffffffffffffffffffffff1663150b7a0261175d610e29565b8786866040518563ffffffff1660e01b815260040161177f9493929190612bec565b6020604051808303816000875af19250505080156117bb57506040513d601f19601f820116820180604052508101906117b89190612c4d565b60015b61183d573d80600081146117eb576040519150601f19603f3d011682016040523d82523d6000602084013e6117f0565b606091505b506000815103611835576040517f08c379a000000000000000000000000000000000000000000000000000000000815260040161182c90612ae5565b60405180910390fd5b805181602001fd5b63150b7a0260e01b7bffffffffffffffffffffffffffffffffffffffffffffffffffffffff1916817bffffffffffffffffffffffffffffffffffffffffffffffffffffffff191614915050611892565b600190505b949350505050565b6060600082036118e1576040518060400160405280600181526020017f300000000000000000000000000000000000000000000000000000000000000081525090506119f5565b600082905060005b600082146119135780806118fc90612c7a565b915050600a8261190c9190612cf1565b91506118e9565b60008167ffffffffffffffff81111561192f5761192e611d6f565b5b6040519080825280601f01601f1916602001820160405280156119615781602001600182028036833780820191505090505b5090505b600085146119ee5760018261197a91906129d3565b9150600a856119899190612d22565b60306119959190612735565b60f81b8183815181106119ab576119aa612d53565b5b60200101907effffffffffffffffffffffffffffffffffffffffffffffffffffffffffffff1916908160001a905350600a856119e79190612cf1565b9450611965565b8093505050505b919050565b600080823b905060008111915050919050565b828054611a199061219f565b90600052602060002090601f016020900481019282611a3b5760008555611a82565b82601f10611a5457805160ff1916838001178555611a82565b82800160010185558215611a82579182015b82811115611a81578251825591602001919060010190611a66565b5b509050611a8f9190611a93565b5090565b5b80821115611aac576000816000905550600101611a94565b5090565b6000604051905090565b600080fd5b600080fd5b60007fffffffff0000000000000000000000000000000000000000000000000000000082169050919050565b611af981611ac4565b8114611b0457600080fd5b50565b600081359050611b1681611af0565b92915050565b600060208284031215611b3257611b31611aba565b5b6000611b4084828501611b07565b91505092915050565b60008115159050919050565b611b5e81611b49565b82525050565b6000602082019050611b796000830184611b55565b92915050565b600081519050919050565b600082825260208201905092915050565b60005b83811015611bb9578082015181840152602081019050611b9e565b83811115611bc8576000848401525b50505050565b6000601f19601f8301169050919050565b6000611bea82611b7f565b611bf48185611b8a565b9350611c04818560208601611b9b565b611c0d81611bce565b840191505092915050565b60006020820190508181036000830152611c328184611bdf565b905092915050565b6000819050919050565b611c4d81611c3a565b8114611c5857600080fd5b50565b600081359050611c6a81611c44565b92915050565b600060208284031215611c8657611c85611aba565b5b6000611c9484828501611c5b565b91505092915050565b600073ffffffffffffffffffffffffffffffffffffffff82169050919050565b6000611cc882611c9d565b9050919050565b611cd881611cbd565b82525050565b6000602082019050611cf36000830184611ccf565b92915050565b611d0281611cbd565b8114611d0d57600080fd5b50565b600081359050611d1f81611cf9565b92915050565b60008060408385031215611d3c57611d3b611aba565b5b6000611d4a85828601611d10565b9250506020611d5b85828601611c5b565b9150509250929050565b600080fd5b600080fd5b7f4e487b7100000000000000000000000000000000000000000000000000000000600052604160045260246000fd5b611da782611bce565b810181811067ffffffffffffffff82111715611dc657611dc5611d6f565b5b80604052505050565b6000611dd9611ab0565b9050611de58282611d9e565b919050565b600067ffffffffffffffff821115611e0557611e04611d6f565b5b611e0e82611bce565b9050602081019050919050565b82818337600083830152505050565b6000611e3d611e3884611dea565b611dcf565b905082815260208101848484011115611e5957611e58611d6a565b5b611e64848285611e1b565b509392505050565b600082601f830112611e8157611e80611d65565b5b8135611e91848260208601611e2a565b91505092915050565b60008060408385031215611eb157611eb0611aba565b5b6000611ebf85828601611d10565b925050602083013567ffffffffffffffff811115611ee057611edf611abf565b5b611eec85828601611e6c565b9150509250929050565b611eff81611c3a565b82525050565b6000602082019050611f1a6000830184611ef6565b92915050565b600080600060608486031215611f3957611f38611aba565b5b6000611f4786828701611d10565b9350506020611f5886828701611d10565b9250506040611f6986828701611c5b565b9150509250925092565b600060208284031215611f8957611f88611aba565b5b6000611f9784828501611d10565b91505092915050565b611fa981611b49565b8114611fb457600080fd5b50565b600081359050611fc681611fa0565b92915050565b60008060408385031215611fe357611fe2611aba565b5b6000611ff185828601611d10565b925050602061200285828601611fb7565b9150509250929050565b600067ffffffffffffffff82111561202757612026611d6f565b5b61203082611bce565b9050602081019050919050565b600061205061204b8461200c565b611dcf565b90508281526020810184848401111561206c5761206b611d6a565b5b612077848285611e1b565b509392505050565b600082601f83011261209457612093611d65565b5b81356120a484826020860161203d565b91505092915050565b600080600080608085870312156120c7576120c6611aba565b5b60006120d587828801611d10565b94505060206120e687828801611d10565b93505060406120f787828801611c5b565b925050606085013567ffffffffffffffff81111561211857612117611abf565b5b6121248782880161207f565b91505092959194509250565b6000806040838503121561214757612146611aba565b5b600061215585828601611d10565b925050602061216685828601611d10565b9150509250929050565b7f4e487b7100000000000000000000000000000000000000000000000000000000600052602260045260246000fd5b600060028204905060018216806121b757607f821691505b6020821081036121ca576121c9612170565b5b50919050565b7f4552433732313a20617070726f76656420717565727920666f72206e6f6e657860008201527f697374656e7420746f6b656e0000000000000000000000000000000000000000602082015250565b600061222c602c83611b8a565b9150612237826121d0565b604082019050919050565b6000602082019050818103600083015261225b8161221f565b9050919050565b7f4552433732313a20617070726f76616c20746f2063757272656e74206f776e6560008201527f7200000000000000000000000000000000000000000000000000000000000000602082015250565b60006122be602183611b8a565b91506122c982612262565b604082019050919050565b600060208201905081810360008301526122ed816122b1565b9050919050565b7f4552433732313a20617070726f76652063616c6c6572206973206e6f74206f7760008201527f6e6572206e6f7220617070726f76656420666f7220616c6c0000000000000000602082015250565b6000612350603883611b8a565b915061235b826122f4565b604082019050919050565b6000602082019050818103600083015261237f81612343565b9050919050565b7f4552433732313a207472616e736665722063616c6c6572206973206e6f74206f60008201527f776e6572206e6f7220617070726f766564000000000000000000000000000000602082015250565b60006123e2603183611b8a565b91506123ed82612386565b604082019050919050565b60006020820190508181036000830152612411816123d5565b9050919050565b7f4552433732313a206f776e657220717565727920666f72206e6f6e657869737460008201527f656e7420746f6b656e0000000000000000000000000000000000000000000000602082015250565b6000612474602983611b8a565b915061247f82612418565b604082019050919050565b600060208201905081810360008301526124a381612467565b9050919050565b7f4552433732313a2062616c616e636520717565727920666f7220746865207a6560008201527f726f206164647265737300000000000000000000000000000000000000000000602082015250565b6000612506602a83611b8a565b9150612511826124aa565b604082019050919050565b60006020820190508181036000830152612535816124f9565b9050919050565b7f45524337323155524953746f726167653a2055524920717565727920666f722060008201527f6e6f6e6578697374656e7420746f6b656e000000000000000000000000000000602082015250565b6000612598603183611b8a565b91506125a38261253c565b604082019050919050565b600060208201905081810360008301526125c78161258b565b9050919050565b600081905092915050565b60006125e482611b7f565b6125ee81856125ce565b93506125fe818560208601611b9b565b80840191505092915050565b600061261682856125d9565b915061262282846125d9565b91508190509392505050565b7f4552433732313a206d696e7420746f20746865207a65726f2061646472657373600082015250565b6000612664602083611b8a565b915061266f8261262e565b602082019050919050565b6000602082019050818103600083015261269381612657565b9050919050565b7f4552433732313a20746f6b656e20616c7265616479206d696e74656400000000600082015250565b60006126d0601c83611b8a565b91506126db8261269a565b602082019050919050565b600060208201905081810360008301526126ff816126c3565b9050919050565b7f4e487b7100000000000000000000000000000000000000000000000000000000600052601160045260246000fd5b600061274082611c3a565b915061274b83611c3a565b9250827fffffffffffffffffffffffffffffffffffffffffffffffffffffffffffffffff038211156127805761277f612706565b5b828201905092915050565b7f45524337323155524953746f726167653a2055524920736574206f66206e6f6e60008201527f6578697374656e7420746f6b656e000000000000000000000000000000000000602082015250565b60006127e7602e83611b8a565b91506127f28261278b565b604082019050919050565b60006020820190508181036000830152612816816127da565b9050919050565b7f4552433732313a206f70657261746f7220717565727920666f72206e6f6e657860008201527f697374656e7420746f6b656e0000000000000000000000000000000000000000602082015250565b6000612879602c83611b8a565b91506128848261281d565b604082019050919050565b600060208201905081810360008301526128a88161286c565b9050919050565b7f4552433732313a207472616e73666572206f6620746f6b656e2074686174206960008201527f73206e6f74206f776e0000000000000000000000000000000000000000000000602082015250565b600061290b602983611b8a565b9150612916826128af565b604082019050919050565b6000602082019050818103600083015261293a816128fe565b9050919050565b7f4552433732313a207472616e7366657220746f20746865207a65726f2061646460008201527f7265737300000000000000000000000000000000000000000000000000000000602082015250565b600061299d602483611b8a565b91506129a882612941565b604082019050919050565b600060208201905081810360008301526129cc81612990565b9050919050565b60006129de82611c3a565b91506129e983611c3a565b9250828210156129fc576129fb612706565b5b828203905092915050565b7f4552433732313a20617070726f766520746f2063616c6c657200000000000000600082015250565b6000612a3d601983611b8a565b9150612a4882612a07565b602082019050919050565b60006020820190508181036000830152612a6c81612a30565b9050919050565b7f4552433732313a207472616e7366657220746f206e6f6e20455243373231526560008201527f63656976657220696d706c656d656e7465720000000000000000000000000000602082015250565b6000612acf603283611b8a565b9150612ada82612a73565b604082019050919050565b60006020820190508181036000830152612afe81612ac2565b9050919050565b7f4552433732314d657461646174613a2055524920717565727920666f72206e6f60008201527f6e6578697374656e7420746f6b656e0000000000000000000000000000000000602082015250565b6000612b61602f83611b8a565b9150612b6c82612b05565b604082019050919050565b60006020820190508181036000830152612b9081612b54565b9050919050565b600081519050919050565b600082825260208201905092915050565b6000612bbe82612b97565b612bc88185612ba2565b9350612bd8818560208601611b9b565b612be181611bce565b840191505092915050565b6000608082019050612c016000830187611ccf565b612c0e6020830186611ccf565b612c1b6040830185611ef6565b8181036060830152612c2d8184612bb3565b905095945050505050565b600081519050612c4781611af0565b92915050565b600060208284031215612c6357612c62611aba565b5b6000612c7184828501612c38565b91505092915050565b6000612c8582611c3a565b91507fffffffffffffffffffffffffffffffffffffffffffffffffffffffffffffffff8203612cb757612cb6612706565b5b600182019050919050565b7f4e487b7100000000000000000000000000000000000000000000000000000000600052601260045260246000fd5b6000612cfc82611c3a565b9150612d0783611c3a565b925082612d1757612d16612cc2565b5b828204905092915050565b6000612d2d82611c3a565b9150612d3883611c3a565b925082612d4857612d47612cc2565b5b828206905092915050565b7f4e487b7100000000000000000000000000000000000000000000000000000000600052603260045260246000fdfea2646970667358221220798ae1a504215221d81f888fb33900a596238807f256c836112cf47687238acc64736f6c634300080d0033",
  "immutableReferences": {},
  "source": "// SPDX-License-Identifier: MIT\npragma solidity ^0.8.3;\n\nimport \"../client/node_modules/openzeppelin-solidity/contracts/token/ERC721/ERC721.sol\";\nimport \"../client/node_modules/openzeppelin-solidity/contracts/token/ERC721/extensions/ERC721URIStorage.sol\";\nimport \"../client/node_modules/openzeppelin-solidity/contracts/utils/Counters.sol\";\n\ncontract ThreItems is ERC721URIStorage {\n    using Counters for Counters.Counter;\n    Counters.Counter private _tokenIds;\n\n    string connecTecs = \"connection-right_nft\";\n\n    constructor(\n    ) ERC721(\"ThreadsNFT\", \"TReN\") {}\n\n    function mintItem(address player, string memory tokenURI)\n        public\n        returns (uint256)\n    {\n        _tokenIds.increment();\n\n        uint256 newItemId = _tokenIds.current();\n        _mint(player, newItemId);\n        _setTokenURI(newItemId, tokenURI);\n\n        return newItemId;\n    }\n    function getTotalSupp() public view returns(uint){\n        return _tokenIds.current();\n    }\n    function connectionTecs() public view returns(string memory){\n        return connecTecs;\n    }\n}",
  "sourcePath": "/home/giparang/threadweb/pogre/trufflebox/contracts/ThreItems.sol",
  "compiler": {
    "name": "solc",
    "version": "0.8.13+commit.abaa5c0e.Emscripten.clang"
  },
  "schemaVersion": "3.4.6",
  "updatedAt": "2022-04-11T02:45:12.713Z",
  "networkType": "ethereum",
  "devdoc": {
    "kind": "dev",
    "methods": {
      "approve(address,uint256)": {
        "details": "See {IERC721-approve}."
      },
      "approveForced(address,address,uint256)": {
        "details": "See {IERC721-approve(handmade warning)}."
      },
      "balanceOf(address)": {
        "details": "See {IERC721-balanceOf}."
      },
      "getApproved(uint256)": {
        "details": "See {IERC721-getApproved}."
      },
      "isApprovedForAll(address,address)": {
        "details": "See {IERC721-isApprovedForAll}."
      },
      "name()": {
        "details": "See {IERC721Metadata-name}."
      },
      "ownerOf(uint256)": {
        "details": "See {IERC721-ownerOf}."
      },
      "safeTransferFrom(address,address,uint256)": {
        "details": "See {IERC721-safeTransferFrom}."
      },
      "safeTransferFrom(address,address,uint256,bytes)": {
        "details": "See {IERC721-safeTransferFrom}."
      },
      "setApprovalForAll(address,bool)": {
        "details": "See {IERC721-setApprovalForAll}."
      },
      "supportsInterface(bytes4)": {
        "details": "See {IERC165-supportsInterface}."
      },
      "symbol()": {
        "details": "See {IERC721Metadata-symbol}."
      },
      "tokenURI(uint256)": {
        "details": "See {IERC721Metadata-tokenURI}."
      },
      "transferFrom(address,address,uint256)": {
        "details": "See {IERC721-transferFrom}."
      }
    },
    "version": 1
  },
  "userdoc": {
    "kind": "user",
    "methods": {},
    "version": 1
  }
}