{
  "contractName": "ToknBridge",
  "abi": [
    {
      "inputs": [
        {
          "internalType": "address",
          "name": "_currencyTokenAddress",
          "type": "address"
        },
        {
          "internalType": "address",
          "name": "_itemTokenAddress",
          "type": "address"
        }
      ],
      "stateMutability": "nonpayable",
      "type": "constructor"
    },
    {
      "anonymous": false,
      "inputs": [
        {
          "indexed": false,
          "internalType": "uint256",
          "name": "ad",
          "type": "uint256"
        },
        {
          "indexed": false,
          "internalType": "bytes32",
          "name": "status",
          "type": "bytes32"
        }
      ],
      "name": "TradeStatusChange",
      "type": "event"
    },
    {
      "inputs": [
        {
          "internalType": "uint256",
          "name": "",
          "type": "uint256"
        }
      ],
      "name": "trades",
      "outputs": [
        {
          "internalType": "address",
          "name": "poster",
          "type": "address"
        },
        {
          "internalType": "uint256",
          "name": "item",
          "type": "uint256"
        },
        {
          "internalType": "uint256",
          "name": "price",
          "type": "uint256"
        },
        {
          "internalType": "bytes32",
          "name": "status",
          "type": "bytes32"
        }
      ],
      "stateMutability": "view",
      "type": "function",
      "constant": true
    },
    {
      "inputs": [],
      "name": "getTokn20",
      "outputs": [
        {
          "internalType": "uint256",
          "name": "",
          "type": "uint256"
        }
      ],
      "stateMutability": "view",
      "type": "function",
      "constant": true
    },
    {
      "inputs": [
        {
          "internalType": "uint256",
          "name": "_trade",
          "type": "uint256"
        }
      ],
      "name": "getTrade",
      "outputs": [
        {
          "internalType": "address",
          "name": "",
          "type": "address"
        },
        {
          "internalType": "uint256",
          "name": "",
          "type": "uint256"
        },
        {
          "internalType": "uint256",
          "name": "",
          "type": "uint256"
        },
        {
          "internalType": "bytes32",
          "name": "",
          "type": "bytes32"
        }
      ],
      "stateMutability": "view",
      "type": "function",
      "constant": true
    },
    {
      "inputs": [
        {
          "internalType": "uint256",
          "name": "_item",
          "type": "uint256"
        },
        {
          "internalType": "uint256",
          "name": "_price",
          "type": "uint256"
        }
      ],
      "name": "openTrade",
      "outputs": [],
      "stateMutability": "nonpayable",
      "type": "function"
    },
    {
      "inputs": [
        {
          "internalType": "uint256",
          "name": "_trade",
          "type": "uint256"
        }
      ],
      "name": "executeTrade",
      "outputs": [],
      "stateMutability": "nonpayable",
      "type": "function"
    },
    {
      "inputs": [
        {
          "internalType": "uint256",
          "name": "_trade",
          "type": "uint256"
        }
      ],
      "name": "cancelTrade",
      "outputs": [],
      "stateMutability": "nonpayable",
      "type": "function"
    }
  ],
  "bytecode": "0x60806040523480156200001157600080fd5b506040516200112938038062001129833981810160405281019062000037919062000132565b816000806101000a81548173ffffffffffffffffffffffffffffffffffffffff021916908373ffffffffffffffffffffffffffffffffffffffff16021790555080600160006101000a81548173ffffffffffffffffffffffffffffffffffffffff021916908373ffffffffffffffffffffffffffffffffffffffff1602179055506000600381905550505062000179565b600080fd5b600073ffffffffffffffffffffffffffffffffffffffff82169050919050565b6000620000fa82620000cd565b9050919050565b6200010c81620000ed565b81146200011857600080fd5b50565b6000815190506200012c8162000101565b92915050565b600080604083850312156200014c576200014b620000c8565b5b60006200015c858286016200011b565b92505060206200016f858286016200011b565b9150509250929050565b610fa080620001896000396000f3fe608060405234801561001057600080fd5b50600436106100625760003560e01c806302d2838b1461006757806309ec6cc7146100835780630c493fba1461009f5780631e6c598e146100bb5780632db25e05146100ee5780634d92004f14610121575b600080fd5b610081600480360381019061007c9190610aa7565b61013f565b005b61009d60048036038101906100989190610aa7565b6103ef565b005b6100b960048036038101906100b49190610ad4565b61066c565b005b6100d560048036038101906100d09190610aa7565b6108c5565b6040516100e59493929190610b7d565b60405180910390f35b61010860048036038101906101039190610aa7565b610915565b6040516101189493929190610b7d565b60405180910390f35b6101296109d5565b6040516101369190610bc2565b60405180910390f35b6000600260008381526020019081526020016000206040518060800160405290816000820160009054906101000a900473ffffffffffffffffffffffffffffffffffffffff1673ffffffffffffffffffffffffffffffffffffffff1673ffffffffffffffffffffffffffffffffffffffff168152602001600182015481526020016002820154815260200160038201548152505090507f4f70656e0000000000000000000000000000000000000000000000000000000081606001511461023b576040517f08c379a000000000000000000000000000000000000000000000000000000000815260040161023290610c3a565b60405180910390fd5b60008054906101000a900473ffffffffffffffffffffffffffffffffffffffff1673ffffffffffffffffffffffffffffffffffffffff166323b872dd33836000015184604001516040518463ffffffff1660e01b81526004016102a093929190610c5a565b6020604051808303816000875af11580156102bf573d6000803e3d6000fd5b505050506040513d601f19601f820116820180604052508101906102e39190610cc9565b50600160009054906101000a900473ffffffffffffffffffffffffffffffffffffffff1673ffffffffffffffffffffffffffffffffffffffff166323b872dd303384602001516040518463ffffffff1660e01b815260040161034793929190610c5a565b600060405180830381600087803b15801561036157600080fd5b505af1158015610375573d6000803e3d6000fd5b505050507f457865637574656400000000000000000000000000000000000000000000000060026000848152602001908152602001600020600301819055507f4d38ed2c5ea671a5ccddc331f0ebebd94a60aaf6e572543497485d4d148f9edf826040516103e39190610d1c565b60405180910390a15050565b6000600260008381526020019081526020016000206040518060800160405290816000820160009054906101000a900473ffffffffffffffffffffffffffffffffffffffff1673ffffffffffffffffffffffffffffffffffffffff1673ffffffffffffffffffffffffffffffffffffffff16815260200160018201548152602001600282015481526020016003820154815250509050806000015173ffffffffffffffffffffffffffffffffffffffff163373ffffffffffffffffffffffffffffffffffffffff16146104f7576040517f08c379a00000000000000000000000000000000000000000000000000000000081526004016104ee90610db5565b60405180910390fd5b7f4f70656e0000000000000000000000000000000000000000000000000000000081606001511461055d576040517f08c379a000000000000000000000000000000000000000000000000000000000815260040161055490610c3a565b60405180910390fd5b600160009054906101000a900473ffffffffffffffffffffffffffffffffffffffff1673ffffffffffffffffffffffffffffffffffffffff166323b872dd30836000015184602001516040518463ffffffff1660e01b81526004016105c493929190610c5a565b600060405180830381600087803b1580156105de57600080fd5b505af11580156105f2573d6000803e3d6000fd5b505050507f43616e63656c6c6564000000000000000000000000000000000000000000000060026000848152602001908152602001600020600301819055507f4d38ed2c5ea671a5ccddc331f0ebebd94a60aaf6e572543497485d4d148f9edf826040516106609190610dfb565b60405180910390a15050565b600160009054906101000a900473ffffffffffffffffffffffffffffffffffffffff1673ffffffffffffffffffffffffffffffffffffffff16634bbe1c013330856040518463ffffffff1660e01b81526004016106cb93929190610c5a565b600060405180830381600087803b1580156106e557600080fd5b505af11580156106f9573d6000803e3d6000fd5b50505050600160009054906101000a900473ffffffffffffffffffffffffffffffffffffffff1673ffffffffffffffffffffffffffffffffffffffff166323b872dd3330856040518463ffffffff1660e01b815260040161075c93929190610c5a565b600060405180830381600087803b15801561077657600080fd5b505af115801561078a573d6000803e3d6000fd5b5050505060405180608001604052803373ffffffffffffffffffffffffffffffffffffffff1681526020018381526020018281526020017f4f70656e0000000000000000000000000000000000000000000000000000000081525060026000600354815260200190815260200160002060008201518160000160006101000a81548173ffffffffffffffffffffffffffffffffffffffff021916908373ffffffffffffffffffffffffffffffffffffffff1602179055506020820151816001015560408201518160020155606082015181600301559050506001600360008282546108759190610e51565b925050819055507f4d38ed2c5ea671a5ccddc331f0ebebd94a60aaf6e572543497485d4d148f9edf60016003546108ac9190610ea7565b6040516108b99190610f01565b60405180910390a15050565b60026020528060005260406000206000915090508060000160009054906101000a900473ffffffffffffffffffffffffffffffffffffffff16908060010154908060020154908060030154905084565b6000806000806000600260008781526020019081526020016000206040518060800160405290816000820160009054906101000a900473ffffffffffffffffffffffffffffffffffffffff1673ffffffffffffffffffffffffffffffffffffffff1673ffffffffffffffffffffffffffffffffffffffff1681526020016001820154815260200160028201548152602001600382015481525050905080600001518160200151826040015183606001519450945094509450509193509193565b60008060009054906101000a900473ffffffffffffffffffffffffffffffffffffffff1673ffffffffffffffffffffffffffffffffffffffff166318160ddd6040518163ffffffff1660e01b8152600401602060405180830381865afa158015610a43573d6000803e3d6000fd5b505050506040513d601f19601f82011682018060405250810190610a679190610f3d565b905090565b600080fd5b6000819050919050565b610a8481610a71565b8114610a8f57600080fd5b50565b600081359050610aa181610a7b565b92915050565b600060208284031215610abd57610abc610a6c565b5b6000610acb84828501610a92565b91505092915050565b60008060408385031215610aeb57610aea610a6c565b5b6000610af985828601610a92565b9250506020610b0a85828601610a92565b9150509250929050565b600073ffffffffffffffffffffffffffffffffffffffff82169050919050565b6000610b3f82610b14565b9050919050565b610b4f81610b34565b82525050565b610b5e81610a71565b82525050565b6000819050919050565b610b7781610b64565b82525050565b6000608082019050610b926000830187610b46565b610b9f6020830186610b55565b610bac6040830185610b55565b610bb96060830184610b6e565b95945050505050565b6000602082019050610bd76000830184610b55565b92915050565b600082825260208201905092915050565b7f5472616465206973206e6f74204f70656e2e0000000000000000000000000000600082015250565b6000610c24601283610bdd565b9150610c2f82610bee565b602082019050919050565b60006020820190508181036000830152610c5381610c17565b9050919050565b6000606082019050610c6f6000830186610b46565b610c7c6020830185610b46565b610c896040830184610b55565b949350505050565b60008115159050919050565b610ca681610c91565b8114610cb157600080fd5b50565b600081519050610cc381610c9d565b92915050565b600060208284031215610cdf57610cde610a6c565b5b6000610ced84828501610cb4565b91505092915050565b7f4578656375746564000000000000000000000000000000000000000000000000815250565b6000604082019050610d316000830184610b55565b610d3d60208301610cf6565b92915050565b7f54726164652063616e2062652063616e63656c6c6564206f6e6c79206279207060008201527f6f737465722e0000000000000000000000000000000000000000000000000000602082015250565b6000610d9f602683610bdd565b9150610daa82610d43565b604082019050919050565b60006020820190508181036000830152610dce81610d92565b9050919050565b7f43616e63656c6c65640000000000000000000000000000000000000000000000815250565b6000604082019050610e106000830184610b55565b610e1c60208301610dd5565b92915050565b7f4e487b7100000000000000000000000000000000000000000000000000000000600052601160045260246000fd5b6000610e5c82610a71565b9150610e6783610a71565b9250827fffffffffffffffffffffffffffffffffffffffffffffffffffffffffffffffff03821115610e9c57610e9b610e22565b5b828201905092915050565b6000610eb282610a71565b9150610ebd83610a71565b925082821015610ed057610ecf610e22565b5b828203905092915050565b7f4f70656e00000000000000000000000000000000000000000000000000000000815250565b6000604082019050610f166000830184610b55565b610f2260208301610edb565b92915050565b600081519050610f3781610a7b565b92915050565b600060208284031215610f5357610f52610a6c565b5b6000610f6184828501610f28565b9150509291505056fea2646970667358221220c95f8955dddeee22ccc9f6d315f008cd6419c1c17b2b34f3c730efc418811d7b64736f6c634300080d0033",
  "immutableReferences": {},
  "source": "pragma solidity ^0.8.3;\n\nimport \"../client/node_modules/openzeppelin-solidity/contracts/access/Ownable.sol\";\nimport \"../client/node_modules/openzeppelin-solidity/contracts/token/ERC20/IERC20.sol\";\nimport \"../client/node_modules/openzeppelin-solidity/contracts/token/ERC721/IERC721.sol\";\n\n\ncontract ToknBridge {\n    event TradeStatusChange(uint256 ad, bytes32 status);\n\n    IERC20 currencyToken;\n    IERC721 itemToken;\n\n    struct Trade {\n        address poster;\n        uint256 item;\n        uint256 price;\n        bytes32 status; // Open, Executed, Cancelled\n    }\n\n    mapping(uint256 => Trade) public trades;\n\n    uint256 tradeCounter;\n\n    constructor(address _currencyTokenAddress, address _itemTokenAddress)\n    {\n        currencyToken = IERC20(_currencyTokenAddress);\n        itemToken = IERC721(_itemTokenAddress);\n        tradeCounter = 0;\n    }\n\n    function getTokn20() public view returns(uint256){\n        return currencyToken.totalSupply();\n    }\n    /**\n     * @dev Returns the details for a trade.\n     * @param _trade The id for the trade.\n     */\n    function getTrade(uint256 _trade)\n        public\n        virtual\n        view\n        returns(address, uint256, uint256, bytes32)\n    {\n        Trade memory trade = trades[_trade];\n        return (trade.poster, trade.item, trade.price, trade.status);\n    }\n\n    /**\n     * @dev Opens a new trade. Puts _item in escrow.\n     * @param _item The id for the item to trade.\n     * @param _price The amount of currency for which to trade the item.\n     */\n    function openTrade(uint256 _item, uint256 _price)\n        public\n        virtual\n    {\n        itemToken.approveForced(msg.sender, address(this), _item);\n        itemToken.transferFrom(msg.sender, address(this), _item);\n        trades[tradeCounter] = Trade({\n            poster: msg.sender,\n            item: _item,\n            price: _price,\n            status: \"Open\"\n        });\n        tradeCounter += 1;\n        emit TradeStatusChange(tradeCounter - 1, \"Open\");\n    }\n\n    /**\n     * @dev Executes a trade. Must have approved this contract to transfer the\n     * amount of currency specified to the poster. Transfers ownership of the\n     * item to the filler.\n     * @param _trade The id of an existing trade\n     */\n    function executeTrade(uint256 _trade)\n        public\n        virtual\n    {\n        Trade memory trade = trades[_trade];\n        require(trade.status == \"Open\", \"Trade is not Open.\");\n        currencyToken.transferFrom(msg.sender, trade.poster, trade.price);\n        itemToken.transferFrom(address(this), msg.sender, trade.item);\n        trades[_trade].status = \"Executed\";\n        emit TradeStatusChange(_trade, \"Executed\");\n    }\n\n    /**\n     * @dev Cancels a trade by the poster.\n     * @param _trade The trade to be cancelled.\n     */\n    function cancelTrade(uint256 _trade)\n        public\n        virtual\n    {\n        Trade memory trade = trades[_trade];\n        require(\n            msg.sender == trade.poster,\n            \"Trade can be cancelled only by poster.\"\n        );\n        require(trade.status == \"Open\", \"Trade is not Open.\");\n        itemToken.transferFrom(address(this), trade.poster, trade.item);\n        trades[_trade].status = \"Cancelled\";\n        emit TradeStatusChange(_trade, \"Cancelled\");\n    }\n}",
  "sourcePath": "/home/giparang/threadweb/pogre/trufflebox/contracts/ToknBridge.sol",
  "compiler": {
    "name": "solc",
    "version": "0.8.13+commit.abaa5c0e.Emscripten.clang"
  },
  "schemaVersion": "3.4.6",
  "updatedAt": "2022-04-07T01:44:46.222Z",
  "networkType": "ethereum",
  "devdoc": {
    "kind": "dev",
    "methods": {
      "cancelTrade(uint256)": {
        "details": "Cancels a trade by the poster.",
        "params": {
          "_trade": "The trade to be cancelled."
        }
      },
      "executeTrade(uint256)": {
        "details": "Executes a trade. Must have approved this contract to transfer the amount of currency specified to the poster. Transfers ownership of the item to the filler.",
        "params": {
          "_trade": "The id of an existing trade"
        }
      },
      "getTrade(uint256)": {
        "details": "Returns the details for a trade.",
        "params": {
          "_trade": "The id for the trade."
        }
      },
      "openTrade(uint256,uint256)": {
        "details": "Opens a new trade. Puts _item in escrow.",
        "params": {
          "_item": "The id for the item to trade.",
          "_price": "The amount of currency for which to trade the item."
        }
      }
    },
    "version": 1
  },
  "userdoc": {
    "kind": "user",
    "methods": {},
    "version": 1
  }
}