{
  "contractName": "ToknBridge",
  "abi": [
    {
      "inputs": [
        {
          "internalType": "address",
          "name": "_currencyTokenAddress",
          "type": "address"
        },
        {
          "internalType": "address",
          "name": "_itemTokenAddress",
          "type": "address"
        }
      ],
      "stateMutability": "nonpayable",
      "type": "constructor"
    },
    {
      "anonymous": false,
      "inputs": [
        {
          "indexed": false,
          "internalType": "uint256",
          "name": "ad",
          "type": "uint256"
        },
        {
          "indexed": false,
          "internalType": "bytes32",
          "name": "status",
          "type": "bytes32"
        }
      ],
      "name": "TradeStatusChange",
      "type": "event"
    },
    {
      "inputs": [
        {
          "internalType": "uint256",
          "name": "",
          "type": "uint256"
        }
      ],
      "name": "trades",
      "outputs": [
        {
          "internalType": "address",
          "name": "poster",
          "type": "address"
        },
        {
          "internalType": "uint256",
          "name": "item",
          "type": "uint256"
        },
        {
          "internalType": "uint256",
          "name": "price",
          "type": "uint256"
        },
        {
          "internalType": "bytes32",
          "name": "status",
          "type": "bytes32"
        }
      ],
      "stateMutability": "view",
      "type": "function",
      "constant": true
    },
    {
      "inputs": [],
      "name": "getTokn20",
      "outputs": [
        {
          "internalType": "uint256",
          "name": "",
          "type": "uint256"
        }
      ],
      "stateMutability": "view",
      "type": "function",
      "constant": true
    },
    {
      "inputs": [],
      "name": "getContractTokn20",
      "outputs": [
        {
          "internalType": "uint256",
          "name": "",
          "type": "uint256"
        }
      ],
      "stateMutability": "view",
      "type": "function",
      "constant": true
    },
    {
      "inputs": [
        {
          "internalType": "uint256",
          "name": "_trade",
          "type": "uint256"
        }
      ],
      "name": "getTrade",
      "outputs": [
        {
          "internalType": "address",
          "name": "",
          "type": "address"
        },
        {
          "internalType": "uint256",
          "name": "",
          "type": "uint256"
        },
        {
          "internalType": "uint256",
          "name": "",
          "type": "uint256"
        },
        {
          "internalType": "bytes32",
          "name": "",
          "type": "bytes32"
        }
      ],
      "stateMutability": "view",
      "type": "function",
      "constant": true
    },
    {
      "inputs": [
        {
          "internalType": "uint256",
          "name": "_item",
          "type": "uint256"
        },
        {
          "internalType": "uint256",
          "name": "_price",
          "type": "uint256"
        }
      ],
      "name": "openTrade",
      "outputs": [],
      "stateMutability": "nonpayable",
      "type": "function"
    },
    {
      "inputs": [
        {
          "internalType": "uint256",
          "name": "_trade",
          "type": "uint256"
        }
      ],
      "name": "executeTrade",
      "outputs": [],
      "stateMutability": "nonpayable",
      "type": "function"
    },
    {
      "inputs": [
        {
          "internalType": "uint256",
          "name": "_trade",
          "type": "uint256"
        }
      ],
      "name": "cancelTrade",
      "outputs": [],
      "stateMutability": "nonpayable",
      "type": "function"
    }
  ],
  "bytecode": "0x60806040523480156200001157600080fd5b506040516200123f3803806200123f833981810160405281019062000037919062000132565b816000806101000a81548173ffffffffffffffffffffffffffffffffffffffff021916908373ffffffffffffffffffffffffffffffffffffffff16021790555080600160006101000a81548173ffffffffffffffffffffffffffffffffffffffff021916908373ffffffffffffffffffffffffffffffffffffffff1602179055506000600381905550505062000179565b600080fd5b600073ffffffffffffffffffffffffffffffffffffffff82169050919050565b6000620000fa82620000cd565b9050919050565b6200010c81620000ed565b81146200011857600080fd5b50565b6000815190506200012c8162000101565b92915050565b600080604083850312156200014c576200014b620000c8565b5b60006200015c858286016200011b565b92505060206200016f858286016200011b565b9150509250929050565b6110b680620001896000396000f3fe608060405234801561001057600080fd5b506004361061007d5760003560e01c80631e6c598e1161005b5780631e6c598e146100d65780632db25e05146101095780634d92004f1461013c578063aa44dd471461015a5761007d565b806302d2838b1461008257806309ec6cc71461009e5780630c493fba146100ba575b600080fd5b61009c60048036038101906100979190610ba2565b610178565b005b6100b860048036038101906100b39190610ba2565b610428565b005b6100d460048036038101906100cf9190610bcf565b6106a5565b005b6100f060048036038101906100eb9190610ba2565b6108fe565b6040516101009493929190610c78565b60405180910390f35b610123600480360381019061011e9190610ba2565b61094e565b6040516101339493929190610c78565b60405180910390f35b610144610a0e565b6040516101519190610cbd565b60405180910390f35b610162610aa5565b60405161016f9190610cbd565b60405180910390f35b6000600260008381526020019081526020016000206040518060800160405290816000820160009054906101000a900473ffffffffffffffffffffffffffffffffffffffff1673ffffffffffffffffffffffffffffffffffffffff1673ffffffffffffffffffffffffffffffffffffffff168152602001600182015481526020016002820154815260200160038201548152505090507f4f70656e00000000000000000000000000000000000000000000000000000000816060015114610274576040517f08c379a000000000000000000000000000000000000000000000000000000000815260040161026b90610d35565b60405180910390fd5b60008054906101000a900473ffffffffffffffffffffffffffffffffffffffff1673ffffffffffffffffffffffffffffffffffffffff166323b872dd33836000015184604001516040518463ffffffff1660e01b81526004016102d993929190610d55565b6020604051808303816000875af11580156102f8573d6000803e3d6000fd5b505050506040513d601f19601f8201168201806040525081019061031c9190610dc4565b50600160009054906101000a900473ffffffffffffffffffffffffffffffffffffffff1673ffffffffffffffffffffffffffffffffffffffff166323b872dd303384602001516040518463ffffffff1660e01b815260040161038093929190610d55565b600060405180830381600087803b15801561039a57600080fd5b505af11580156103ae573d6000803e3d6000fd5b505050507f457865637574656400000000000000000000000000000000000000000000000060026000848152602001908152602001600020600301819055507f4d38ed2c5ea671a5ccddc331f0ebebd94a60aaf6e572543497485d4d148f9edf8260405161041c9190610e17565b60405180910390a15050565b6000600260008381526020019081526020016000206040518060800160405290816000820160009054906101000a900473ffffffffffffffffffffffffffffffffffffffff1673ffffffffffffffffffffffffffffffffffffffff1673ffffffffffffffffffffffffffffffffffffffff16815260200160018201548152602001600282015481526020016003820154815250509050806000015173ffffffffffffffffffffffffffffffffffffffff163373ffffffffffffffffffffffffffffffffffffffff1614610530576040517f08c379a000000000000000000000000000000000000000000000000000000000815260040161052790610eb0565b60405180910390fd5b7f4f70656e00000000000000000000000000000000000000000000000000000000816060015114610596576040517f08c379a000000000000000000000000000000000000000000000000000000000815260040161058d90610d35565b60405180910390fd5b600160009054906101000a900473ffffffffffffffffffffffffffffffffffffffff1673ffffffffffffffffffffffffffffffffffffffff166323b872dd30836000015184602001516040518463ffffffff1660e01b81526004016105fd93929190610d55565b600060405180830381600087803b15801561061757600080fd5b505af115801561062b573d6000803e3d6000fd5b505050507f43616e63656c6c6564000000000000000000000000000000000000000000000060026000848152602001908152602001600020600301819055507f4d38ed2c5ea671a5ccddc331f0ebebd94a60aaf6e572543497485d4d148f9edf826040516106999190610ef6565b60405180910390a15050565b600160009054906101000a900473ffffffffffffffffffffffffffffffffffffffff1673ffffffffffffffffffffffffffffffffffffffff16634bbe1c013330856040518463ffffffff1660e01b815260040161070493929190610d55565b600060405180830381600087803b15801561071e57600080fd5b505af1158015610732573d6000803e3d6000fd5b50505050600160009054906101000a900473ffffffffffffffffffffffffffffffffffffffff1673ffffffffffffffffffffffffffffffffffffffff166323b872dd3330856040518463ffffffff1660e01b815260040161079593929190610d55565b600060405180830381600087803b1580156107af57600080fd5b505af11580156107c3573d6000803e3d6000fd5b5050505060405180608001604052803373ffffffffffffffffffffffffffffffffffffffff1681526020018381526020018281526020017f4f70656e0000000000000000000000000000000000000000000000000000000081525060026000600354815260200190815260200160002060008201518160000160006101000a81548173ffffffffffffffffffffffffffffffffffffffff021916908373ffffffffffffffffffffffffffffffffffffffff1602179055506020820151816001015560408201518160020155606082015181600301559050506001600360008282546108ae9190610f4c565b925050819055507f4d38ed2c5ea671a5ccddc331f0ebebd94a60aaf6e572543497485d4d148f9edf60016003546108e59190610fa2565b6040516108f29190610ffc565b60405180910390a15050565b60026020528060005260406000206000915090508060000160009054906101000a900473ffffffffffffffffffffffffffffffffffffffff16908060010154908060020154908060030154905084565b6000806000806000600260008781526020019081526020016000206040518060800160405290816000820160009054906101000a900473ffffffffffffffffffffffffffffffffffffffff1673ffffffffffffffffffffffffffffffffffffffff1673ffffffffffffffffffffffffffffffffffffffff1681526020016001820154815260200160028201548152602001600382015481525050905080600001518160200151826040015183606001519450945094509450509193509193565b60008060009054906101000a900473ffffffffffffffffffffffffffffffffffffffff1673ffffffffffffffffffffffffffffffffffffffff166318160ddd6040518163ffffffff1660e01b8152600401602060405180830381865afa158015610a7c573d6000803e3d6000fd5b505050506040513d601f19601f82011682018060405250810190610aa09190611038565b905090565b60008060009054906101000a900473ffffffffffffffffffffffffffffffffffffffff1673ffffffffffffffffffffffffffffffffffffffff166370a0823160008054906101000a900473ffffffffffffffffffffffffffffffffffffffff166040518263ffffffff1660e01b8152600401610b219190611065565b602060405180830381865afa158015610b3e573d6000803e3d6000fd5b505050506040513d601f19601f82011682018060405250810190610b629190611038565b905090565b600080fd5b6000819050919050565b610b7f81610b6c565b8114610b8a57600080fd5b50565b600081359050610b9c81610b76565b92915050565b600060208284031215610bb857610bb7610b67565b5b6000610bc684828501610b8d565b91505092915050565b60008060408385031215610be657610be5610b67565b5b6000610bf485828601610b8d565b9250506020610c0585828601610b8d565b9150509250929050565b600073ffffffffffffffffffffffffffffffffffffffff82169050919050565b6000610c3a82610c0f565b9050919050565b610c4a81610c2f565b82525050565b610c5981610b6c565b82525050565b6000819050919050565b610c7281610c5f565b82525050565b6000608082019050610c8d6000830187610c41565b610c9a6020830186610c50565b610ca76040830185610c50565b610cb46060830184610c69565b95945050505050565b6000602082019050610cd26000830184610c50565b92915050565b600082825260208201905092915050565b7f5472616465206973206e6f74204f70656e2e0000000000000000000000000000600082015250565b6000610d1f601283610cd8565b9150610d2a82610ce9565b602082019050919050565b60006020820190508181036000830152610d4e81610d12565b9050919050565b6000606082019050610d6a6000830186610c41565b610d776020830185610c41565b610d846040830184610c50565b949350505050565b60008115159050919050565b610da181610d8c565b8114610dac57600080fd5b50565b600081519050610dbe81610d98565b92915050565b600060208284031215610dda57610dd9610b67565b5b6000610de884828501610daf565b91505092915050565b7f4578656375746564000000000000000000000000000000000000000000000000815250565b6000604082019050610e2c6000830184610c50565b610e3860208301610df1565b92915050565b7f54726164652063616e2062652063616e63656c6c6564206f6e6c79206279207060008201527f6f737465722e0000000000000000000000000000000000000000000000000000602082015250565b6000610e9a602683610cd8565b9150610ea582610e3e565b604082019050919050565b60006020820190508181036000830152610ec981610e8d565b9050919050565b7f43616e63656c6c65640000000000000000000000000000000000000000000000815250565b6000604082019050610f0b6000830184610c50565b610f1760208301610ed0565b92915050565b7f4e487b7100000000000000000000000000000000000000000000000000000000600052601160045260246000fd5b6000610f5782610b6c565b9150610f6283610b6c565b9250827fffffffffffffffffffffffffffffffffffffffffffffffffffffffffffffffff03821115610f9757610f96610f1d565b5b828201905092915050565b6000610fad82610b6c565b9150610fb883610b6c565b925082821015610fcb57610fca610f1d565b5b828203905092915050565b7f4f70656e00000000000000000000000000000000000000000000000000000000815250565b60006040820190506110116000830184610c50565b61101d60208301610fd6565b92915050565b60008151905061103281610b76565b92915050565b60006020828403121561104e5761104d610b67565b5b600061105c84828501611023565b91505092915050565b600060208201905061107a6000830184610c41565b9291505056fea2646970667358221220e40b3584c4976f7b7d7ce345bd82599bd9523c06267cd952ede1b8d281280ecd64736f6c634300080d0033",
  "immutableReferences": {},
  "source": "pragma solidity ^0.8.3;\n\nimport \"../client/node_modules/openzeppelin-solidity/contracts/access/Ownable.sol\";\nimport \"../client/node_modules/openzeppelin-solidity/contracts/token/ERC20/IERC20.sol\";\nimport \"../client/node_modules/openzeppelin-solidity/contracts/token/ERC721/IERC721.sol\";\n\n\ncontract ToknBridge {\n    event TradeStatusChange(uint256 ad, bytes32 status);\n\n    IERC20 currencyToken;\n    IERC721 itemToken;\n\n    struct Trade {\n        address poster;\n        uint256 item;\n        uint256 price;\n        bytes32 status; // Open, Executed, Cancelled\n    }\n\n    mapping(uint256 => Trade) public trades;\n\n    uint256 tradeCounter;\n\n    constructor(address _currencyTokenAddress, address _itemTokenAddress)\n    {\n        currencyToken = IERC20(_currencyTokenAddress);\n        itemToken = IERC721(_itemTokenAddress);\n        tradeCounter = 0;\n    }\n\n    function getTokn20() public view returns(uint256){\n        return currencyToken.totalSupply();\n    }\n    function getContractTokn20() public view returns(uint256){\n        return currencyToken.balanceOf(address(currencyToken));\n    }\n    /**\n     * @dev Returns the details for a trade.\n     * @param _trade The id for the trade.\n     */\n    function getTrade(uint256 _trade)\n        public\n        virtual\n        view\n        returns(address, uint256, uint256, bytes32)\n    {\n        Trade memory trade = trades[_trade];\n        return (trade.poster, trade.item, trade.price, trade.status);\n    }\n\n    /**\n     * @dev Opens a new trade. Puts _item in escrow.\n     * @param _item The id for the item to trade.\n     * @param _price The amount of currency for which to trade the item.\n     */\n    function openTrade(uint256 _item, uint256 _price)\n        public\n        virtual\n    {\n        itemToken.approveForced(msg.sender, address(this), _item);\n        itemToken.transferFrom(msg.sender, address(this), _item);\n        trades[tradeCounter] = Trade({\n            poster: msg.sender,\n            item: _item,\n            price: _price,\n            status: \"Open\"\n        });\n        tradeCounter += 1;\n        emit TradeStatusChange(tradeCounter - 1, \"Open\");\n    }\n\n    /**\n     * @dev Executes a trade. Must have approved this contract to transfer the\n     * amount of currency specified to the poster. Transfers ownership of the\n     * item to the filler.\n     * @param _trade The id of an existing trade\n     */\n    function executeTrade(uint256 _trade)\n        public\n        virtual\n    {\n        Trade memory trade = trades[_trade];\n        require(trade.status == \"Open\", \"Trade is not Open.\");\n        currencyToken.transferFrom(msg.sender, trade.poster, trade.price);\n        itemToken.transferFrom(address(this), msg.sender, trade.item);\n        trades[_trade].status = \"Executed\";\n        emit TradeStatusChange(_trade, \"Executed\");\n    }\n\n    /**\n     * @dev Cancels a trade by the poster.\n     * @param _trade The trade to be cancelled.\n     */\n    function cancelTrade(uint256 _trade)\n        public\n        virtual\n    {\n        Trade memory trade = trades[_trade];\n        require(\n            msg.sender == trade.poster,\n            \"Trade can be cancelled only by poster.\"\n        );\n        require(trade.status == \"Open\", \"Trade is not Open.\");\n        itemToken.transferFrom(address(this), trade.poster, trade.item);\n        trades[_trade].status = \"Cancelled\";\n        emit TradeStatusChange(_trade, \"Cancelled\");\n    }\n}",
  "sourcePath": "/home/giparang/threadweb/pogre/trufflebox/contracts/ToknBridge.sol",
  "compiler": {
    "name": "solc",
    "version": "0.8.13+commit.abaa5c0e.Emscripten.clang"
  },
  "schemaVersion": "3.4.6",
  "updatedAt": "2022-04-11T02:45:12.732Z",
  "networkType": "ethereum",
  "devdoc": {
    "kind": "dev",
    "methods": {
      "cancelTrade(uint256)": {
        "details": "Cancels a trade by the poster.",
        "params": {
          "_trade": "The trade to be cancelled."
        }
      },
      "executeTrade(uint256)": {
        "details": "Executes a trade. Must have approved this contract to transfer the amount of currency specified to the poster. Transfers ownership of the item to the filler.",
        "params": {
          "_trade": "The id of an existing trade"
        }
      },
      "getTrade(uint256)": {
        "details": "Returns the details for a trade.",
        "params": {
          "_trade": "The id for the trade."
        }
      },
      "openTrade(uint256,uint256)": {
        "details": "Opens a new trade. Puts _item in escrow.",
        "params": {
          "_item": "The id for the item to trade.",
          "_price": "The amount of currency for which to trade the item."
        }
      }
    },
    "version": 1
  },
  "userdoc": {
    "kind": "user",
    "methods": {},
    "version": 1
  }
}